{
  "_format": "hh-sol-artifact-1",
  "contractName": "Router",
  "sourceName": "contracts/Router.sol",
  "abi": [
    {
      "inputs": [
        {
          "internalType": "address",
          "name": "bank_",
          "type": "address"
        }
      ],
      "stateMutability": "nonpayable",
      "type": "constructor"
    },
    {
      "inputs": [],
      "name": "bank",
      "outputs": [
        {
          "internalType": "address",
          "name": "",
          "type": "address"
        }
      ],
      "stateMutability": "view",
      "type": "function"
    },
    {
      "inputs": [
        {
          "internalType": "bool",
          "name": "showDeposit",
          "type": "bool"
        },
        {
          "internalType": "bool",
          "name": "showStake",
          "type": "bool"
        }
      ],
      "name": "encode",
      "outputs": [
        {
          "internalType": "bytes",
          "name": "",
          "type": "bytes"
        }
      ],
      "stateMutability": "nonpayable",
      "type": "function"
    },
    {
      "inputs": [
        {
          "internalType": "address",
          "name": "user",
          "type": "address"
        },
        {
          "internalType": "bytes",
          "name": "options",
          "type": "bytes"
        }
      ],
      "name": "getUserInfo",
      "outputs": [
        {
          "internalType": "uint256",
          "name": "depositBalance",
          "type": "uint256"
        },
        {
          "internalType": "uint256",
          "name": "depositClaimedAt",
          "type": "uint256"
        },
        {
          "internalType": "uint256",
          "name": "stakeBalance",
          "type": "uint256"
        },
        {
          "internalType": "uint256",
          "name": "stakeClaimedAt",
          "type": "uint256"
        },
        {
          "internalType": "bool",
          "name": "isBlackUser",
          "type": "bool"
        },
        {
          "internalType": "uint256",
          "name": "blockNumber",
          "type": "uint256"
        }
      ],
      "stateMutability": "view",
      "type": "function"
    },
    {
      "inputs": [
        {
          "internalType": "uint256",
          "name": "page",
          "type": "uint256"
        }
      ],
      "name": "getUsers",
      "outputs": [
        {
          "internalType": "address[]",
          "name": "users_",
          "type": "address[]"
        },
        {
          "internalType": "uint256[]",
          "name": "amounts_",
          "type": "uint256[]"
        }
      ],
      "stateMutability": "view",
      "type": "function"
    }
  ],
  "bytecode": "0x60806040523480156200001157600080fd5b506040516200116a3803806200116a8339818101604052810190620000379190620000e8565b806000806101000a81548173ffffffffffffffffffffffffffffffffffffffff021916908373ffffffffffffffffffffffffffffffffffffffff160217905550506200011a565b600080fd5b600073ffffffffffffffffffffffffffffffffffffffff82169050919050565b6000620000b08262000083565b9050919050565b620000c281620000a3565b8114620000ce57600080fd5b50565b600081519050620000e281620000b7565b92915050565b6000602082840312156200010157620001006200007e565b5b60006200011184828501620000d1565b91505092915050565b611040806200012a6000396000f3fe608060405234801561001057600080fd5b506004361061004c5760003560e01c80633d81b89c146100515780635d73ab9a1461008157806376cdb03b146100b25780639e42eb44146100d0575b600080fd5b61006b60048036038101906100669190610684565b610105565b6040516100789190610754565b60405180910390f35b61009b600480360381019061009691906107ac565b610131565b6040516100a9929190610987565b60405180910390f35b6100ba610403565b6040516100c791906109cd565b60405180910390f35b6100ea60048036038101906100e59190610a79565b610427565b6040516100fc96959493929190610af7565b60405180910390f35b6060828260405160200161011a929190610b58565b604051602081830303815290604052905092915050565b6060806000600a905060008060009054906101000a900473ffffffffffffffffffffffffffffffffffffffff1690506000808273ffffffffffffffffffffffffffffffffffffffff1663b8f59c808473ffffffffffffffffffffffffffffffffffffffff16638a62f1ca6040518163ffffffff1660e01b8152600401602060405180830381865afa1580156101ca573d6000803e3d6000fd5b505050506040513d601f19601f820116820180604052508101906101ee9190610b96565b6040518263ffffffff1660e01b815260040161020a9190610bc3565b600060405180830381865afa158015610227573d6000803e3d6000fd5b505050506040513d6000823e3d601f19601f820116820180604052508101906102509190610df4565b9150915060008251905060008560018a61026a9190610e9b565b6102749190610ecf565b9050600081836102849190610e9b565b905086811115610292578690505b8067ffffffffffffffff8111156102ac576102ab610bde565b5b6040519080825280602002602001820160405280156102da5781602001602082028036833780820191505090505b5098508067ffffffffffffffff8111156102f7576102f6610bde565b5b6040519080825280602002602001820160405280156103255781602001602082028036833780820191505090505b50975060005b818110156103f65785838151811061034657610345610f11565b5b60200260200101518a828151811061036157610360610f11565b5b602002602001019073ffffffffffffffffffffffffffffffffffffffff16908173ffffffffffffffffffffffffffffffffffffffff16815250508483815181106103ae576103ad610f11565b5b60200260200101518982815181106103c9576103c8610f11565b5b60200260200101818152505082806103e090610f40565b93505080806103ee90610f40565b91505061032b565b5050505050505050915091565b60008054906101000a900473ffffffffffffffffffffffffffffffffffffffff1681565b60008060008060008060008089898101906104429190610684565b9150915060008060009054906101000a900473ffffffffffffffffffffffffffffffffffffffff16905082156104fb576000808273ffffffffffffffffffffffffffffffffffffffff1663cb13cddb8f6040518263ffffffff1660e01b81526004016104ae91906109cd565b6040805180830381865afa1580156104ca573d6000803e3d6000fd5b505050506040513d601f19601f820116820180604052508101906104ee9190610f88565b91509150819a5080995050505b811561058a576000808273ffffffffffffffffffffffffffffffffffffffff166398807d848f6040518263ffffffff1660e01b815260040161053d91906109cd565b6040805180830381865afa158015610559573d6000803e3d6000fd5b505050506040513d601f19601f8201168201806040525081019061057d9190610f88565b9150915081985080975050505b60008054906101000a900473ffffffffffffffffffffffffffffffffffffffff1673ffffffffffffffffffffffffffffffffffffffff1663e392af3f8d6040518263ffffffff1660e01b81526004016105e391906109cd565b602060405180830381865afa158015610600573d6000803e3d6000fd5b505050506040513d601f19601f820116820180604052508101906106249190610fdd565b945043935050505093975093979195509350565b6000604051905090565b600080fd5b600080fd5b60008115159050919050565b6106618161064c565b811461066c57600080fd5b50565b60008135905061067e81610658565b92915050565b6000806040838503121561069b5761069a610642565b5b60006106a98582860161066f565b92505060206106ba8582860161066f565b9150509250929050565b600081519050919050565b600082825260208201905092915050565b60005b838110156106fe5780820151818401526020810190506106e3565b60008484015250505050565b6000601f19601f8301169050919050565b6000610726826106c4565b61073081856106cf565b93506107408185602086016106e0565b6107498161070a565b840191505092915050565b6000602082019050818103600083015261076e818461071b565b905092915050565b6000819050919050565b61078981610776565b811461079457600080fd5b50565b6000813590506107a681610780565b92915050565b6000602082840312156107c2576107c1610642565b5b60006107d084828501610797565b91505092915050565b600081519050919050565b600082825260208201905092915050565b6000819050602082019050919050565b600073ffffffffffffffffffffffffffffffffffffffff82169050919050565b600061083082610805565b9050919050565b61084081610825565b82525050565b60006108528383610837565b60208301905092915050565b6000602082019050919050565b6000610876826107d9565b61088081856107e4565b935061088b836107f5565b8060005b838110156108bc5781516108a38882610846565b97506108ae8361085e565b92505060018101905061088f565b5085935050505092915050565b600081519050919050565b600082825260208201905092915050565b6000819050602082019050919050565b6108fe81610776565b82525050565b600061091083836108f5565b60208301905092915050565b6000602082019050919050565b6000610934826108c9565b61093e81856108d4565b9350610949836108e5565b8060005b8381101561097a5781516109618882610904565b975061096c8361091c565b92505060018101905061094d565b5085935050505092915050565b600060408201905081810360008301526109a1818561086b565b905081810360208301526109b58184610929565b90509392505050565b6109c781610825565b82525050565b60006020820190506109e260008301846109be565b92915050565b6109f181610825565b81146109fc57600080fd5b50565b600081359050610a0e816109e8565b92915050565b600080fd5b600080fd5b600080fd5b60008083601f840112610a3957610a38610a14565b5b8235905067ffffffffffffffff811115610a5657610a55610a19565b5b602083019150836001820283011115610a7257610a71610a1e565b5b9250929050565b600080600060408486031215610a9257610a91610642565b5b6000610aa0868287016109ff565b935050602084013567ffffffffffffffff811115610ac157610ac0610647565b5b610acd86828701610a23565b92509250509250925092565b610ae281610776565b82525050565b610af18161064c565b82525050565b600060c082019050610b0c6000830189610ad9565b610b196020830188610ad9565b610b266040830187610ad9565b610b336060830186610ad9565b610b406080830185610ae8565b610b4d60a0830184610ad9565b979650505050505050565b6000604082019050610b6d6000830185610ae8565b610b7a6020830184610ae8565b9392505050565b600081519050610b9081610780565b92915050565b600060208284031215610bac57610bab610642565b5b6000610bba84828501610b81565b91505092915050565b6000602082019050610bd86000830184610ad9565b92915050565b7f4e487b7100000000000000000000000000000000000000000000000000000000600052604160045260246000fd5b610c168261070a565b810181811067ffffffffffffffff82111715610c3557610c34610bde565b5b80604052505050565b6000610c48610638565b9050610c548282610c0d565b919050565b600067ffffffffffffffff821115610c7457610c73610bde565b5b602082029050602081019050919050565b600081519050610c94816109e8565b92915050565b6000610cad610ca884610c59565b610c3e565b90508083825260208201905060208402830185811115610cd057610ccf610a1e565b5b835b81811015610cf95780610ce58882610c85565b845260208401935050602081019050610cd2565b5050509392505050565b600082601f830112610d1857610d17610a14565b5b8151610d28848260208601610c9a565b91505092915050565b600067ffffffffffffffff821115610d4c57610d4b610bde565b5b602082029050602081019050919050565b6000610d70610d6b84610d31565b610c3e565b90508083825260208201905060208402830185811115610d9357610d92610a1e565b5b835b81811015610dbc5780610da88882610b81565b845260208401935050602081019050610d95565b5050509392505050565b600082601f830112610ddb57610dda610a14565b5b8151610deb848260208601610d5d565b91505092915050565b60008060408385031215610e0b57610e0a610642565b5b600083015167ffffffffffffffff811115610e2957610e28610647565b5b610e3585828601610d03565b925050602083015167ffffffffffffffff811115610e5657610e55610647565b5b610e6285828601610dc6565b9150509250929050565b7f4e487b7100000000000000000000000000000000000000000000000000000000600052601160045260246000fd5b6000610ea682610776565b9150610eb183610776565b9250828203905081811115610ec957610ec8610e6c565b5b92915050565b6000610eda82610776565b9150610ee583610776565b9250828202610ef381610776565b91508282048414831517610f0a57610f09610e6c565b5b5092915050565b7f4e487b7100000000000000000000000000000000000000000000000000000000600052603260045260246000fd5b6000610f4b82610776565b91507fffffffffffffffffffffffffffffffffffffffffffffffffffffffffffffffff8203610f7d57610f7c610e6c565b5b600182019050919050565b60008060408385031215610f9f57610f9e610642565b5b6000610fad85828601610b81565b9250506020610fbe85828601610b81565b9150509250929050565b600081519050610fd781610658565b92915050565b600060208284031215610ff357610ff2610642565b5b600061100184828501610fc8565b9150509291505056fea264697066735822122041f9560d9a70ee78ec37955ebc1512d90fcb7d744680057c2ae9800486a2977f64736f6c63430008110033",
  "linkReferences": {},
  "deployedLinkReferences": {}
}