{
  "_format": "hh-sol-artifact-1",
  "contractName": "RewardNft",
  "sourceName": "contracts/RewardNft.sol",
  "abi": [
    {
      "inputs": [],
      "stateMutability": "nonpayable",
      "type": "constructor"
    },
    {
      "anonymous": false,
      "inputs": [
        {
          "indexed": true,
          "internalType": "address",
          "name": "owner",
          "type": "address"
        },
        {
          "indexed": true,
          "internalType": "address",
          "name": "approved",
          "type": "address"
        },
        {
          "indexed": true,
          "internalType": "uint256",
          "name": "tokenId",
          "type": "uint256"
        }
      ],
      "name": "Approval",
      "type": "event"
    },
    {
      "anonymous": false,
      "inputs": [
        {
          "indexed": true,
          "internalType": "address",
          "name": "owner",
          "type": "address"
        },
        {
          "indexed": true,
          "internalType": "address",
          "name": "operator",
          "type": "address"
        },
        {
          "indexed": false,
          "internalType": "bool",
          "name": "approved",
          "type": "bool"
        }
      ],
      "name": "ApprovalForAll",
      "type": "event"
    },
    {
      "anonymous": false,
      "inputs": [
        {
          "indexed": false,
          "internalType": "uint256",
          "name": "_fromTokenId",
          "type": "uint256"
        },
        {
          "indexed": false,
          "internalType": "uint256",
          "name": "_toTokenId",
          "type": "uint256"
        }
      ],
      "name": "BatchMetadataUpdate",
      "type": "event"
    },
    {
      "anonymous": false,
      "inputs": [
        {
          "indexed": false,
          "internalType": "uint256",
          "name": "_tokenId",
          "type": "uint256"
        }
      ],
      "name": "MetadataUpdate",
      "type": "event"
    },
    {
      "anonymous": false,
      "inputs": [
        {
          "indexed": true,
          "internalType": "address",
          "name": "previousOwner",
          "type": "address"
        },
        {
          "indexed": true,
          "internalType": "address",
          "name": "newOwner",
          "type": "address"
        }
      ],
      "name": "OwnershipTransferred",
      "type": "event"
    },
    {
      "anonymous": false,
      "inputs": [
        {
          "indexed": true,
          "internalType": "address",
          "name": "from",
          "type": "address"
        },
        {
          "indexed": true,
          "internalType": "address",
          "name": "to",
          "type": "address"
        },
        {
          "indexed": true,
          "internalType": "uint256",
          "name": "tokenId",
          "type": "uint256"
        }
      ],
      "name": "Transfer",
      "type": "event"
    },
    {
      "inputs": [
        {
          "internalType": "address",
          "name": "to",
          "type": "address"
        },
        {
          "internalType": "uint256",
          "name": "tokenId",
          "type": "uint256"
        }
      ],
      "name": "approve",
      "outputs": [],
      "stateMutability": "nonpayable",
      "type": "function"
    },
    {
      "inputs": [
        {
          "internalType": "address",
          "name": "owner",
          "type": "address"
        }
      ],
      "name": "balanceOf",
      "outputs": [
        {
          "internalType": "uint256",
          "name": "",
          "type": "uint256"
        }
      ],
      "stateMutability": "view",
      "type": "function"
    },
    {
      "inputs": [],
      "name": "bankContract",
      "outputs": [
        {
          "internalType": "address",
          "name": "",
          "type": "address"
        }
      ],
      "stateMutability": "view",
      "type": "function"
    },
    {
      "inputs": [
        {
          "internalType": "uint256",
          "name": "tokenId",
          "type": "uint256"
        }
      ],
      "name": "getApproved",
      "outputs": [
        {
          "internalType": "address",
          "name": "",
          "type": "address"
        }
      ],
      "stateMutability": "view",
      "type": "function"
    },
    {
      "inputs": [
        {
          "internalType": "address",
          "name": "owner",
          "type": "address"
        },
        {
          "internalType": "address",
          "name": "operator",
          "type": "address"
        }
      ],
      "name": "isApprovedForAll",
      "outputs": [
        {
          "internalType": "bool",
          "name": "",
          "type": "bool"
        }
      ],
      "stateMutability": "view",
      "type": "function"
    },
    {
      "inputs": [
        {
          "internalType": "address",
          "name": "to",
          "type": "address"
        },
        {
          "internalType": "string",
          "name": "tokenURI",
          "type": "string"
        }
      ],
      "name": "mint",
      "outputs": [
        {
          "internalType": "uint256",
          "name": "newNFTId",
          "type": "uint256"
        }
      ],
      "stateMutability": "nonpayable",
      "type": "function"
    },
    {
      "inputs": [],
      "name": "name",
      "outputs": [
        {
          "internalType": "string",
          "name": "",
          "type": "string"
        }
      ],
      "stateMutability": "view",
      "type": "function"
    },
    {
      "inputs": [],
      "name": "owner",
      "outputs": [
        {
          "internalType": "address",
          "name": "",
          "type": "address"
        }
      ],
      "stateMutability": "view",
      "type": "function"
    },
    {
      "inputs": [
        {
          "internalType": "uint256",
          "name": "tokenId",
          "type": "uint256"
        }
      ],
      "name": "ownerOf",
      "outputs": [
        {
          "internalType": "address",
          "name": "",
          "type": "address"
        }
      ],
      "stateMutability": "view",
      "type": "function"
    },
    {
      "inputs": [],
      "name": "renounceOwnership",
      "outputs": [],
      "stateMutability": "nonpayable",
      "type": "function"
    },
    {
      "inputs": [
        {
          "internalType": "address",
          "name": "from",
          "type": "address"
        },
        {
          "internalType": "address",
          "name": "to",
          "type": "address"
        },
        {
          "internalType": "uint256",
          "name": "tokenId",
          "type": "uint256"
        }
      ],
      "name": "safeTransferFrom",
      "outputs": [],
      "stateMutability": "nonpayable",
      "type": "function"
    },
    {
      "inputs": [
        {
          "internalType": "address",
          "name": "from",
          "type": "address"
        },
        {
          "internalType": "address",
          "name": "to",
          "type": "address"
        },
        {
          "internalType": "uint256",
          "name": "tokenId",
          "type": "uint256"
        },
        {
          "internalType": "bytes",
          "name": "data",
          "type": "bytes"
        }
      ],
      "name": "safeTransferFrom",
      "outputs": [],
      "stateMutability": "nonpayable",
      "type": "function"
    },
    {
      "inputs": [
        {
          "internalType": "address",
          "name": "operator",
          "type": "address"
        },
        {
          "internalType": "bool",
          "name": "approved",
          "type": "bool"
        }
      ],
      "name": "setApprovalForAll",
      "outputs": [],
      "stateMutability": "nonpayable",
      "type": "function"
    },
    {
      "inputs": [
        {
          "internalType": "address",
          "name": "addr",
          "type": "address"
        }
      ],
      "name": "setBankContract",
      "outputs": [],
      "stateMutability": "nonpayable",
      "type": "function"
    },
    {
      "inputs": [
        {
          "internalType": "bytes4",
          "name": "interfaceId",
          "type": "bytes4"
        }
      ],
      "name": "supportsInterface",
      "outputs": [
        {
          "internalType": "bool",
          "name": "",
          "type": "bool"
        }
      ],
      "stateMutability": "view",
      "type": "function"
    },
    {
      "inputs": [],
      "name": "symbol",
      "outputs": [
        {
          "internalType": "string",
          "name": "",
          "type": "string"
        }
      ],
      "stateMutability": "view",
      "type": "function"
    },
    {
      "inputs": [
        {
          "internalType": "uint256",
          "name": "tokenId",
          "type": "uint256"
        }
      ],
      "name": "tokenURI",
      "outputs": [
        {
          "internalType": "string",
          "name": "",
          "type": "string"
        }
      ],
      "stateMutability": "view",
      "type": "function"
    },
    {
      "inputs": [
        {
          "internalType": "address",
          "name": "from",
          "type": "address"
        },
        {
          "internalType": "address",
          "name": "to",
          "type": "address"
        },
        {
          "internalType": "uint256",
          "name": "tokenId",
          "type": "uint256"
        }
      ],
      "name": "transferFrom",
      "outputs": [],
      "stateMutability": "nonpayable",
      "type": "function"
    },
    {
      "inputs": [
        {
          "internalType": "address",
          "name": "newOwner",
          "type": "address"
        }
      ],
      "name": "transferOwnership",
      "outputs": [],
      "stateMutability": "nonpayable",
      "type": "function"
    }
  ],
  "bytecode": "0x60806040523480156200001157600080fd5b506040518060400160405280600d81526020017f596f7520617265206120564950000000000000000000000000000000000000008152506040518060400160405280600381526020017f564950000000000000000000000000000000000000000000000000000000000081525081600090816200008f919062000412565b508060019081620000a1919062000412565b505050620000c4620000b8620000ca60201b60201c565b620000d260201b60201c565b620004f9565b600033905090565b6000600760009054906101000a900473ffffffffffffffffffffffffffffffffffffffff16905081600760006101000a81548173ffffffffffffffffffffffffffffffffffffffff021916908373ffffffffffffffffffffffffffffffffffffffff1602179055508173ffffffffffffffffffffffffffffffffffffffff168173ffffffffffffffffffffffffffffffffffffffff167f8be0079c531659141344cd1fd0a4f28419497f9722a3daafe3b4186f6b6457e060405160405180910390a35050565b600081519050919050565b7f4e487b7100000000000000000000000000000000000000000000000000000000600052604160045260246000fd5b7f4e487b7100000000000000000000000000000000000000000000000000000000600052602260045260246000fd5b600060028204905060018216806200021a57607f821691505b60208210810362000230576200022f620001d2565b5b50919050565b60008190508160005260206000209050919050565b60006020601f8301049050919050565b600082821b905092915050565b6000600883026200029a7fffffffffffffffffffffffffffffffffffffffffffffffffffffffffffffffff826200025b565b620002a686836200025b565b95508019841693508086168417925050509392505050565b6000819050919050565b6000819050919050565b6000620002f3620002ed620002e784620002be565b620002c8565b620002be565b9050919050565b6000819050919050565b6200030f83620002d2565b620003276200031e82620002fa565b84845462000268565b825550505050565b600090565b6200033e6200032f565b6200034b81848462000304565b505050565b5b8181101562000373576200036760008262000334565b60018101905062000351565b5050565b601f821115620003c2576200038c8162000236565b62000397846200024b565b81016020851015620003a7578190505b620003bf620003b6856200024b565b83018262000350565b50505b505050565b600082821c905092915050565b6000620003e760001984600802620003c7565b1980831691505092915050565b6000620004028383620003d4565b9150826002028217905092915050565b6200041d8262000198565b67ffffffffffffffff811115620004395762000438620001a3565b5b62000445825462000201565b6200045282828562000377565b600060209050601f8311600181146200048a576000841562000475578287015190505b620004818582620003f4565b865550620004f1565b601f1984166200049a8662000236565b60005b82811015620004c4578489015182556001820191506020850194506020810190506200049d565b86831015620004e45784890151620004e0601f891682620003d4565b8355505b6001600288020188555050505b505050505050565b61310280620005096000396000f3fe608060405234801561001057600080fd5b50600436106101215760003560e01c8063715018a6116100ad578063c87b56dd11610071578063c87b56dd146102f4578063d0def52114610324578063d351b5fd14610354578063e985e9c514610370578063f2fde38b146103a057610121565b8063715018a6146102765780638da5cb5b1461028057806395d89b411461029e578063a22cb465146102bc578063b88d4fde146102d857610121565b8063095ea7b3116100f4578063095ea7b3146101c257806323b872dd146101de57806342842e0e146101fa5780636352211e1461021657806370a082311461024657610121565b806301ffc9a71461012657806306fdde031461015657806307c2e44914610174578063081812fc14610192575b600080fd5b610140600480360381019061013b9190611e87565b6103bc565b60405161014d9190611ecf565b60405180910390f35b61015e61041d565b60405161016b9190611f7a565b60405180910390f35b61017c6104af565b6040516101899190611fdd565b60405180910390f35b6101ac60048036038101906101a7919061202e565b6104d5565b6040516101b99190611fdd565b60405180910390f35b6101dc60048036038101906101d79190612087565b61051b565b005b6101f860048036038101906101f391906120c7565b610632565b005b610214600480360381019061020f91906120c7565b610692565b005b610230600480360381019061022b919061202e565b6106b2565b60405161023d9190611fdd565b60405180910390f35b610260600480360381019061025b919061211a565b610738565b60405161026d9190612156565b60405180910390f35b61027e6107ef565b005b610288610803565b6040516102959190611fdd565b60405180910390f35b6102a661082d565b6040516102b39190611f7a565b60405180910390f35b6102d660048036038101906102d1919061219d565b6108bf565b005b6102f260048036038101906102ed9190612312565b6108d5565b005b61030e6004803603810190610309919061202e565b610937565b60405161031b9190611f7a565b60405180910390f35b61033e60048036038101906103399190612436565b610a49565b60405161034b9190612156565b60405180910390f35b61036e6004803603810190610369919061211a565b610b48565b005b61038a60048036038101906103859190612492565b610c59565b6040516103979190611ecf565b60405180910390f35b6103ba60048036038101906103b5919061211a565b610ced565b005b6000634906490660e01b7bffffffffffffffffffffffffffffffffffffffffffffffffffffffff1916827bffffffffffffffffffffffffffffffffffffffffffffffffffffffff19161480610416575061041582610d70565b5b9050919050565b60606000805461042c90612501565b80601f016020809104026020016040519081016040528092919081815260200182805461045890612501565b80156104a55780601f1061047a576101008083540402835291602001916104a5565b820191906000526020600020905b81548152906001019060200180831161048857829003601f168201915b5050505050905090565b600960009054906101000a900473ffffffffffffffffffffffffffffffffffffffff1681565b60006104e082610e52565b6004600083815260200190815260200160002060009054906101000a900473ffffffffffffffffffffffffffffffffffffffff169050919050565b6000610526826106b2565b90508073ffffffffffffffffffffffffffffffffffffffff168373ffffffffffffffffffffffffffffffffffffffff1603610596576040517f08c379a000000000000000000000000000000000000000000000000000000000815260040161058d906125a4565b60405180910390fd5b8073ffffffffffffffffffffffffffffffffffffffff166105b5610e9d565b73ffffffffffffffffffffffffffffffffffffffff1614806105e457506105e3816105de610e9d565b610c59565b5b610623576040517f08c379a000000000000000000000000000000000000000000000000000000000815260040161061a90612636565b60405180910390fd5b61062d8383610ea5565b505050565b61064361063d610e9d565b82610f5e565b610682576040517f08c379a0000000000000000000000000000000000000000000000000000000008152600401610679906126c8565b60405180910390fd5b61068d838383610ff3565b505050565b6106ad838383604051806020016040528060008152506108d5565b505050565b6000806106be836112ec565b9050600073ffffffffffffffffffffffffffffffffffffffff168173ffffffffffffffffffffffffffffffffffffffff160361072f576040517f08c379a000000000000000000000000000000000000000000000000000000000815260040161072690612734565b60405180910390fd5b80915050919050565b60008073ffffffffffffffffffffffffffffffffffffffff168273ffffffffffffffffffffffffffffffffffffffff16036107a8576040517f08c379a000000000000000000000000000000000000000000000000000000000815260040161079f906127c6565b60405180910390fd5b600360008373ffffffffffffffffffffffffffffffffffffffff1673ffffffffffffffffffffffffffffffffffffffff168152602001908152602001600020549050919050565b6107f7611329565b61080160006113a7565b565b6000600760009054906101000a900473ffffffffffffffffffffffffffffffffffffffff16905090565b60606001805461083c90612501565b80601f016020809104026020016040519081016040528092919081815260200182805461086890612501565b80156108b55780601f1061088a576101008083540402835291602001916108b5565b820191906000526020600020905b81548152906001019060200180831161089857829003601f168201915b5050505050905090565b6108d16108ca610e9d565b838361146d565b5050565b6108e66108e0610e9d565b83610f5e565b610925576040517f08c379a000000000000000000000000000000000000000000000000000000000815260040161091c906126c8565b60405180910390fd5b610931848484846115d9565b50505050565b606061094282610e52565b600060066000848152602001908152602001600020805461096290612501565b80601f016020809104026020016040519081016040528092919081815260200182805461098e90612501565b80156109db5780601f106109b0576101008083540402835291602001916109db565b820191906000526020600020905b8154815290600101906020018083116109be57829003601f168201915b5050505050905060006109ec611635565b90506000815103610a01578192505050610a44565b600082511115610a36578082604051602001610a1e929190612822565b60405160208183030381529060405292505050610a44565b610a3f8461164c565b925050505b919050565b6000610a53610803565b73ffffffffffffffffffffffffffffffffffffffff163373ffffffffffffffffffffffffffffffffffffffff161480610ad95750600960009054906101000a900473ffffffffffffffffffffffffffffffffffffffff1673ffffffffffffffffffffffffffffffffffffffff163373ffffffffffffffffffffffffffffffffffffffff16145b610b18576040517f08c379a0000000000000000000000000000000000000000000000000000000008152600401610b0f90612892565b60405180910390fd5b610b2260086116b4565b9050610b2e83826116c2565b610b3881836118df565b610b426008611983565b92915050565b610b50610803565b73ffffffffffffffffffffffffffffffffffffffff163373ffffffffffffffffffffffffffffffffffffffff161480610bd65750600960009054906101000a900473ffffffffffffffffffffffffffffffffffffffff1673ffffffffffffffffffffffffffffffffffffffff163373ffffffffffffffffffffffffffffffffffffffff16145b610c15576040517f08c379a0000000000000000000000000000000000000000000000000000000008152600401610c0c90612892565b60405180910390fd5b80600960006101000a81548173ffffffffffffffffffffffffffffffffffffffff021916908373ffffffffffffffffffffffffffffffffffffffff16021790555050565b6000600560008473ffffffffffffffffffffffffffffffffffffffff1673ffffffffffffffffffffffffffffffffffffffff16815260200190815260200160002060008373ffffffffffffffffffffffffffffffffffffffff1673ffffffffffffffffffffffffffffffffffffffff16815260200190815260200160002060009054906101000a900460ff16905092915050565b610cf5611329565b600073ffffffffffffffffffffffffffffffffffffffff168173ffffffffffffffffffffffffffffffffffffffff1603610d64576040517f08c379a0000000000000000000000000000000000000000000000000000000008152600401610d5b90612924565b60405180910390fd5b610d6d816113a7565b50565b60007f80ac58cd000000000000000000000000000000000000000000000000000000007bffffffffffffffffffffffffffffffffffffffffffffffffffffffff1916827bffffffffffffffffffffffffffffffffffffffffffffffffffffffff19161480610e3b57507f5b5e139f000000000000000000000000000000000000000000000000000000007bffffffffffffffffffffffffffffffffffffffffffffffffffffffff1916827bffffffffffffffffffffffffffffffffffffffffffffffffffffffff1916145b80610e4b5750610e4a82611999565b5b9050919050565b610e5b81611a03565b610e9a576040517f08c379a0000000000000000000000000000000000000000000000000000000008152600401610e9190612734565b60405180910390fd5b50565b600033905090565b816004600083815260200190815260200160002060006101000a81548173ffffffffffffffffffffffffffffffffffffffff021916908373ffffffffffffffffffffffffffffffffffffffff160217905550808273ffffffffffffffffffffffffffffffffffffffff16610f18836106b2565b73ffffffffffffffffffffffffffffffffffffffff167f8c5be1e5ebec7d5bd14f71427d1e84f3dd0314c0f7b2291e5b200ac8c7c3b92560405160405180910390a45050565b600080610f6a836106b2565b90508073ffffffffffffffffffffffffffffffffffffffff168473ffffffffffffffffffffffffffffffffffffffff161480610fac5750610fab8185610c59565b5b80610fea57508373ffffffffffffffffffffffffffffffffffffffff16610fd2846104d5565b73ffffffffffffffffffffffffffffffffffffffff16145b91505092915050565b8273ffffffffffffffffffffffffffffffffffffffff16611013826106b2565b73ffffffffffffffffffffffffffffffffffffffff1614611069576040517f08c379a0000000000000000000000000000000000000000000000000000000008152600401611060906129b6565b60405180910390fd5b600073ffffffffffffffffffffffffffffffffffffffff168273ffffffffffffffffffffffffffffffffffffffff16036110d8576040517f08c379a00000000000000000000000000000000000000000000000000000000081526004016110cf90612a48565b60405180910390fd5b6110e58383836001611a44565b8273ffffffffffffffffffffffffffffffffffffffff16611105826106b2565b73ffffffffffffffffffffffffffffffffffffffff161461115b576040517f08c379a0000000000000000000000000000000000000000000000000000000008152600401611152906129b6565b60405180910390fd5b6004600082815260200190815260200160002060006101000a81549073ffffffffffffffffffffffffffffffffffffffff02191690556001600360008573ffffffffffffffffffffffffffffffffffffffff1673ffffffffffffffffffffffffffffffffffffffff168152602001908152602001600020600082825403925050819055506001600360008473ffffffffffffffffffffffffffffffffffffffff1673ffffffffffffffffffffffffffffffffffffffff16815260200190815260200160002060008282540192505081905550816002600083815260200190815260200160002060006101000a81548173ffffffffffffffffffffffffffffffffffffffff021916908373ffffffffffffffffffffffffffffffffffffffff160217905550808273ffffffffffffffffffffffffffffffffffffffff168473ffffffffffffffffffffffffffffffffffffffff167fddf252ad1be2c89b69c2b068fc378daa952ba7f163c4a11628f55a4df523b3ef60405160405180910390a46112e78383836001611a4a565b505050565b60006002600083815260200190815260200160002060009054906101000a900473ffffffffffffffffffffffffffffffffffffffff169050919050565b611331610e9d565b73ffffffffffffffffffffffffffffffffffffffff1661134f610803565b73ffffffffffffffffffffffffffffffffffffffff16146113a5576040517f08c379a000000000000000000000000000000000000000000000000000000000815260040161139c90612ab4565b60405180910390fd5b565b6000600760009054906101000a900473ffffffffffffffffffffffffffffffffffffffff16905081600760006101000a81548173ffffffffffffffffffffffffffffffffffffffff021916908373ffffffffffffffffffffffffffffffffffffffff1602179055508173ffffffffffffffffffffffffffffffffffffffff168173ffffffffffffffffffffffffffffffffffffffff167f8be0079c531659141344cd1fd0a4f28419497f9722a3daafe3b4186f6b6457e060405160405180910390a35050565b8173ffffffffffffffffffffffffffffffffffffffff168373ffffffffffffffffffffffffffffffffffffffff16036114db576040517f08c379a00000000000000000000000000000000000000000000000000000000081526004016114d290612b20565b60405180910390fd5b80600560008573ffffffffffffffffffffffffffffffffffffffff1673ffffffffffffffffffffffffffffffffffffffff16815260200190815260200160002060008473ffffffffffffffffffffffffffffffffffffffff1673ffffffffffffffffffffffffffffffffffffffff16815260200190815260200160002060006101000a81548160ff0219169083151502179055508173ffffffffffffffffffffffffffffffffffffffff168373ffffffffffffffffffffffffffffffffffffffff167f17307eab39ab6107e8899845ad3d59bd9653f200f220920489ca2b5937696c31836040516115cc9190611ecf565b60405180910390a3505050565b6115e4848484610ff3565b6115f084848484611a50565b61162f576040517f08c379a000000000000000000000000000000000000000000000000000000000815260040161162690612bb2565b60405180910390fd5b50505050565b606060405180602001604052806000815250905090565b606061165782610e52565b6000611661611635565b9050600081511161168157604051806020016040528060008152506116ac565b8061168b84611bd7565b60405160200161169c929190612822565b6040516020818303038152906040525b915050919050565b600081600001549050919050565b600073ffffffffffffffffffffffffffffffffffffffff168273ffffffffffffffffffffffffffffffffffffffff1603611731576040517f08c379a000000000000000000000000000000000000000000000000000000000815260040161172890612c1e565b60405180910390fd5b61173a81611a03565b1561177a576040517f08c379a000000000000000000000000000000000000000000000000000000000815260040161177190612c8a565b60405180910390fd5b611788600083836001611a44565b61179181611a03565b156117d1576040517f08c379a00000000000000000000000000000000000000000000000000000000081526004016117c890612c8a565b60405180910390fd5b6001600360008473ffffffffffffffffffffffffffffffffffffffff1673ffffffffffffffffffffffffffffffffffffffff16815260200190815260200160002060008282540192505081905550816002600083815260200190815260200160002060006101000a81548173ffffffffffffffffffffffffffffffffffffffff021916908373ffffffffffffffffffffffffffffffffffffffff160217905550808273ffffffffffffffffffffffffffffffffffffffff16600073ffffffffffffffffffffffffffffffffffffffff167fddf252ad1be2c89b69c2b068fc378daa952ba7f163c4a11628f55a4df523b3ef60405160405180910390a46118db600083836001611a4a565b5050565b6118e882611a03565b611927576040517f08c379a000000000000000000000000000000000000000000000000000000000815260040161191e90612d1c565b60405180910390fd5b806006600084815260200190815260200160002090816119479190612ee8565b507ff8e1a15aba9398e019f0b49df1a4fde98ee17ae345cb5f6b5e2c27f5033e8ce7826040516119779190612156565b60405180910390a15050565b6001816000016000828254019250508190555050565b60007f01ffc9a7000000000000000000000000000000000000000000000000000000007bffffffffffffffffffffffffffffffffffffffffffffffffffffffff1916827bffffffffffffffffffffffffffffffffffffffffffffffffffffffff1916149050919050565b60008073ffffffffffffffffffffffffffffffffffffffff16611a25836112ec565b73ffffffffffffffffffffffffffffffffffffffff1614159050919050565b50505050565b50505050565b6000611a718473ffffffffffffffffffffffffffffffffffffffff16611ca5565b15611bca578373ffffffffffffffffffffffffffffffffffffffff1663150b7a02611a9a610e9d565b8786866040518563ffffffff1660e01b8152600401611abc949392919061300f565b6020604051808303816000875af1925050508015611af857506040513d601f19601f82011682018060405250810190611af59190613070565b60015b611b7a573d8060008114611b28576040519150601f19603f3d011682016040523d82523d6000602084013e611b2d565b606091505b506000815103611b72576040517f08c379a0000000000000000000000000000000000000000000000000000000008152600401611b6990612bb2565b60405180910390fd5b805181602001fd5b63150b7a0260e01b7bffffffffffffffffffffffffffffffffffffffffffffffffffffffff1916817bffffffffffffffffffffffffffffffffffffffffffffffffffffffff191614915050611bcf565b600190505b949350505050565b606060006001611be684611cc8565b01905060008167ffffffffffffffff811115611c0557611c046121e7565b5b6040519080825280601f01601f191660200182016040528015611c375781602001600182028036833780820191505090505b509050600082602001820190505b600115611c9a578080600190039150507f3031323334353637383961626364656600000000000000000000000000000000600a86061a8153600a8581611c8e57611c8d61309d565b5b04945060008503611c45575b819350505050919050565b6000808273ffffffffffffffffffffffffffffffffffffffff163b119050919050565b600080600090507a184f03e93ff9f4daa797ed6e38ed64bf6a1f0100000000000000008310611d26577a184f03e93ff9f4daa797ed6e38ed64bf6a1f0100000000000000008381611d1c57611d1b61309d565b5b0492506040810190505b6d04ee2d6d415b85acef81000000008310611d63576d04ee2d6d415b85acef81000000008381611d5957611d5861309d565b5b0492506020810190505b662386f26fc100008310611d9257662386f26fc100008381611d8857611d8761309d565b5b0492506010810190505b6305f5e1008310611dbb576305f5e1008381611db157611db061309d565b5b0492506008810190505b6127108310611de0576127108381611dd657611dd561309d565b5b0492506004810190505b60648310611e035760648381611df957611df861309d565b5b0492506002810190505b600a8310611e12576001810190505b80915050919050565b6000604051905090565b600080fd5b600080fd5b60007fffffffff0000000000000000000000000000000000000000000000000000000082169050919050565b611e6481611e2f565b8114611e6f57600080fd5b50565b600081359050611e8181611e5b565b92915050565b600060208284031215611e9d57611e9c611e25565b5b6000611eab84828501611e72565b91505092915050565b60008115159050919050565b611ec981611eb4565b82525050565b6000602082019050611ee46000830184611ec0565b92915050565b600081519050919050565b600082825260208201905092915050565b60005b83811015611f24578082015181840152602081019050611f09565b60008484015250505050565b6000601f19601f8301169050919050565b6000611f4c82611eea565b611f568185611ef5565b9350611f66818560208601611f06565b611f6f81611f30565b840191505092915050565b60006020820190508181036000830152611f948184611f41565b905092915050565b600073ffffffffffffffffffffffffffffffffffffffff82169050919050565b6000611fc782611f9c565b9050919050565b611fd781611fbc565b82525050565b6000602082019050611ff26000830184611fce565b92915050565b6000819050919050565b61200b81611ff8565b811461201657600080fd5b50565b60008135905061202881612002565b92915050565b60006020828403121561204457612043611e25565b5b600061205284828501612019565b91505092915050565b61206481611fbc565b811461206f57600080fd5b50565b6000813590506120818161205b565b92915050565b6000806040838503121561209e5761209d611e25565b5b60006120ac85828601612072565b92505060206120bd85828601612019565b9150509250929050565b6000806000606084860312156120e0576120df611e25565b5b60006120ee86828701612072565b93505060206120ff86828701612072565b925050604061211086828701612019565b9150509250925092565b6000602082840312156121305761212f611e25565b5b600061213e84828501612072565b91505092915050565b61215081611ff8565b82525050565b600060208201905061216b6000830184612147565b92915050565b61217a81611eb4565b811461218557600080fd5b50565b60008135905061219781612171565b92915050565b600080604083850312156121b4576121b3611e25565b5b60006121c285828601612072565b92505060206121d385828601612188565b9150509250929050565b600080fd5b600080fd5b7f4e487b7100000000000000000000000000000000000000000000000000000000600052604160045260246000fd5b61221f82611f30565b810181811067ffffffffffffffff8211171561223e5761223d6121e7565b5b80604052505050565b6000612251611e1b565b905061225d8282612216565b919050565b600067ffffffffffffffff82111561227d5761227c6121e7565b5b61228682611f30565b9050602081019050919050565b82818337600083830152505050565b60006122b56122b084612262565b612247565b9050828152602081018484840111156122d1576122d06121e2565b5b6122dc848285612293565b509392505050565b600082601f8301126122f9576122f86121dd565b5b81356123098482602086016122a2565b91505092915050565b6000806000806080858703121561232c5761232b611e25565b5b600061233a87828801612072565b945050602061234b87828801612072565b935050604061235c87828801612019565b925050606085013567ffffffffffffffff81111561237d5761237c611e2a565b5b612389878288016122e4565b91505092959194509250565b600067ffffffffffffffff8211156123b0576123af6121e7565b5b6123b982611f30565b9050602081019050919050565b60006123d96123d484612395565b612247565b9050828152602081018484840111156123f5576123f46121e2565b5b612400848285612293565b509392505050565b600082601f83011261241d5761241c6121dd565b5b813561242d8482602086016123c6565b91505092915050565b6000806040838503121561244d5761244c611e25565b5b600061245b85828601612072565b925050602083013567ffffffffffffffff81111561247c5761247b611e2a565b5b61248885828601612408565b9150509250929050565b600080604083850312156124a9576124a8611e25565b5b60006124b785828601612072565b92505060206124c885828601612072565b9150509250929050565b7f4e487b7100000000000000000000000000000000000000000000000000000000600052602260045260246000fd5b6000600282049050600182168061251957607f821691505b60208210810361252c5761252b6124d2565b5b50919050565b7f4552433732313a20617070726f76616c20746f2063757272656e74206f776e6560008201527f7200000000000000000000000000000000000000000000000000000000000000602082015250565b600061258e602183611ef5565b915061259982612532565b604082019050919050565b600060208201905081810360008301526125bd81612581565b9050919050565b7f4552433732313a20617070726f76652063616c6c6572206973206e6f7420746f60008201527f6b656e206f776e6572206f7220617070726f76656420666f7220616c6c000000602082015250565b6000612620603d83611ef5565b915061262b826125c4565b604082019050919050565b6000602082019050818103600083015261264f81612613565b9050919050565b7f4552433732313a2063616c6c6572206973206e6f7420746f6b656e206f776e6560008201527f72206f7220617070726f76656400000000000000000000000000000000000000602082015250565b60006126b2602d83611ef5565b91506126bd82612656565b604082019050919050565b600060208201905081810360008301526126e1816126a5565b9050919050565b7f4552433732313a20696e76616c696420746f6b656e2049440000000000000000600082015250565b600061271e601883611ef5565b9150612729826126e8565b602082019050919050565b6000602082019050818103600083015261274d81612711565b9050919050565b7f4552433732313a2061646472657373207a65726f206973206e6f74206120766160008201527f6c6964206f776e65720000000000000000000000000000000000000000000000602082015250565b60006127b0602983611ef5565b91506127bb82612754565b604082019050919050565b600060208201905081810360008301526127df816127a3565b9050919050565b600081905092915050565b60006127fc82611eea565b61280681856127e6565b9350612816818560208601611f06565b80840191505092915050565b600061282e82856127f1565b915061283a82846127f1565b91508190509392505050565b7f4e6f7420617574686f72697a6564000000000000000000000000000000000000600082015250565b600061287c600e83611ef5565b915061288782612846565b602082019050919050565b600060208201905081810360008301526128ab8161286f565b9050919050565b7f4f776e61626c653a206e6577206f776e657220697320746865207a65726f206160008201527f6464726573730000000000000000000000000000000000000000000000000000602082015250565b600061290e602683611ef5565b9150612919826128b2565b604082019050919050565b6000602082019050818103600083015261293d81612901565b9050919050565b7f4552433732313a207472616e736665722066726f6d20696e636f72726563742060008201527f6f776e6572000000000000000000000000000000000000000000000000000000602082015250565b60006129a0602583611ef5565b91506129ab82612944565b604082019050919050565b600060208201905081810360008301526129cf81612993565b9050919050565b7f4552433732313a207472616e7366657220746f20746865207a65726f2061646460008201527f7265737300000000000000000000000000000000000000000000000000000000602082015250565b6000612a32602483611ef5565b9150612a3d826129d6565b604082019050919050565b60006020820190508181036000830152612a6181612a25565b9050919050565b7f4f776e61626c653a2063616c6c6572206973206e6f7420746865206f776e6572600082015250565b6000612a9e602083611ef5565b9150612aa982612a68565b602082019050919050565b60006020820190508181036000830152612acd81612a91565b9050919050565b7f4552433732313a20617070726f766520746f2063616c6c657200000000000000600082015250565b6000612b0a601983611ef5565b9150612b1582612ad4565b602082019050919050565b60006020820190508181036000830152612b3981612afd565b9050919050565b7f4552433732313a207472616e7366657220746f206e6f6e20455243373231526560008201527f63656976657220696d706c656d656e7465720000000000000000000000000000602082015250565b6000612b9c603283611ef5565b9150612ba782612b40565b604082019050919050565b60006020820190508181036000830152612bcb81612b8f565b9050919050565b7f4552433732313a206d696e7420746f20746865207a65726f2061646472657373600082015250565b6000612c08602083611ef5565b9150612c1382612bd2565b602082019050919050565b60006020820190508181036000830152612c3781612bfb565b9050919050565b7f4552433732313a20746f6b656e20616c7265616479206d696e74656400000000600082015250565b6000612c74601c83611ef5565b9150612c7f82612c3e565b602082019050919050565b60006020820190508181036000830152612ca381612c67565b9050919050565b7f45524337323155524953746f726167653a2055524920736574206f66206e6f6e60008201527f6578697374656e7420746f6b656e000000000000000000000000000000000000602082015250565b6000612d06602e83611ef5565b9150612d1182612caa565b604082019050919050565b60006020820190508181036000830152612d3581612cf9565b9050919050565b60008190508160005260206000209050919050565b60006020601f8301049050919050565b600082821b905092915050565b600060088302612d9e7fffffffffffffffffffffffffffffffffffffffffffffffffffffffffffffffff82612d61565b612da88683612d61565b95508019841693508086168417925050509392505050565b6000819050919050565b6000612de5612de0612ddb84611ff8565b612dc0565b611ff8565b9050919050565b6000819050919050565b612dff83612dca565b612e13612e0b82612dec565b848454612d6e565b825550505050565b600090565b612e28612e1b565b612e33818484612df6565b505050565b5b81811015612e5757612e4c600082612e20565b600181019050612e39565b5050565b601f821115612e9c57612e6d81612d3c565b612e7684612d51565b81016020851015612e85578190505b612e99612e9185612d51565b830182612e38565b50505b505050565b600082821c905092915050565b6000612ebf60001984600802612ea1565b1980831691505092915050565b6000612ed88383612eae565b9150826002028217905092915050565b612ef182611eea565b67ffffffffffffffff811115612f0a57612f096121e7565b5b612f148254612501565b612f1f828285612e5b565b600060209050601f831160018114612f525760008415612f40578287015190505b612f4a8582612ecc565b865550612fb2565b601f198416612f6086612d3c565b60005b82811015612f8857848901518255600182019150602085019450602081019050612f63565b86831015612fa55784890151612fa1601f891682612eae565b8355505b6001600288020188555050505b505050505050565b600081519050919050565b600082825260208201905092915050565b6000612fe182612fba565b612feb8185612fc5565b9350612ffb818560208601611f06565b61300481611f30565b840191505092915050565b60006080820190506130246000830187611fce565b6130316020830186611fce565b61303e6040830185612147565b81810360608301526130508184612fd6565b905095945050505050565b60008151905061306a81611e5b565b92915050565b60006020828403121561308657613085611e25565b5b60006130948482850161305b565b91505092915050565b7f4e487b7100000000000000000000000000000000000000000000000000000000600052601260045260246000fdfea26469706673582212202da7c21ffb47d879e045577418adfbc7c93cce0eb99fe27608392c7c9b40875664736f6c63430008110033",
  "linkReferences": {},
  "deployedLinkReferences": {}
}