{
	"data": {
		"bytecode": {
			"linkReferences": {},
			"object": "60806040526040518060600160405280604051806060016040528060238152602001620037af602391398152602001604051806060016040528060238152602001620037f5602391398152602001604051806060016040528060238152602001620037d260239139815250600e9060036200007c9291906200022b565b506000600f553480156200008f57600080fd5b5060405162003818380380620038188339818101604052810190620000b5919062000382565b620000d5620000c96200015f60201b60201c565b6200016760201b60201c565b81600160006101000a81548173ffffffffffffffffffffffffffffffffffffffff021916908373ffffffffffffffffffffffffffffffffffffffff16021790555080600260006101000a81548173ffffffffffffffffffffffffffffffffffffffff021916908373ffffffffffffffffffffffffffffffffffffffff16021790555050506200072a565b600033905090565b60008060009054906101000a900473ffffffffffffffffffffffffffffffffffffffff169050816000806101000a81548173ffffffffffffffffffffffffffffffffffffffff021916908373ffffffffffffffffffffffffffffffffffffffff1602179055508173ffffffffffffffffffffffffffffffffffffffff168173ffffffffffffffffffffffffffffffffffffffff167f8be0079c531659141344cd1fd0a4f28419497f9722a3daafe3b4186f6b6457e060405160405180910390a35050565b82805482825590600052602060002090810192821562000278579160200282015b828111156200027757825182908162000266919062000643565b50916020019190600101906200024c565b5b5090506200028791906200028b565b5090565b5b80821115620002af5760008181620002a59190620002b3565b506001016200028c565b5090565b508054620002c19062000432565b6000825580601f10620002d55750620002f6565b601f016020900490600052602060002090810190620002f59190620002f9565b5b50565b5b8082111562000314576000816000905550600101620002fa565b5090565b600080fd5b600073ffffffffffffffffffffffffffffffffffffffff82169050919050565b60006200034a826200031d565b9050919050565b6200035c816200033d565b81146200036857600080fd5b50565b6000815190506200037c8162000351565b92915050565b600080604083850312156200039c576200039b62000318565b5b6000620003ac858286016200036b565b9250506020620003bf858286016200036b565b9150509250929050565b600081519050919050565b7f4e487b7100000000000000000000000000000000000000000000000000000000600052604160045260246000fd5b7f4e487b7100000000000000000000000000000000000000000000000000000000600052602260045260246000fd5b600060028204905060018216806200044b57607f821691505b60208210810362000461576200046062000403565b5b50919050565b60008190508160005260206000209050919050565b60006020601f8301049050919050565b600082821b905092915050565b600060088302620004cb7fffffffffffffffffffffffffffffffffffffffffffffffffffffffffffffffff826200048c565b620004d786836200048c565b95508019841693508086168417925050509392505050565b6000819050919050565b6000819050919050565b6000620005246200051e6200051884620004ef565b620004f9565b620004ef565b9050919050565b6000819050919050565b620005408362000503565b620005586200054f826200052b565b84845462000499565b825550505050565b600090565b6200056f62000560565b6200057c81848462000535565b505050565b5b81811015620005a4576200059860008262000565565b60018101905062000582565b5050565b601f821115620005f357620005bd8162000467565b620005c8846200047c565b81016020851015620005d8578190505b620005f0620005e7856200047c565b83018262000581565b50505b505050565b600082821c905092915050565b60006200061860001984600802620005f8565b1980831691505092915050565b600062000633838362000605565b9150826002028217905092915050565b6200064e82620003c9565b67ffffffffffffffff8111156200066a5762000669620003d4565b5b62000676825462000432565b62000683828285620005a8565b600060209050601f831160018114620006bb5760008415620006a6578287015190505b620006b2858262000625565b86555062000722565b601f198416620006cb8662000467565b60005b82811015620006f557848901518255600182019150602085019450602081019050620006ce565b8683101562000715578489015162000711601f89168262000605565b8355505b6001600288020188555050505b505050505050565b613075806200073a6000396000f3fe6080604052600436106101cd5760003560e01c80638da5cb5b116100f7578063cb13cddb11610095578063daa3ea7511610064578063daa3ea751461065a578063e392af3f14610664578063f2fde38b146106a1578063fb8e7835146106ca576101cd565b8063cb13cddb146105be578063d0e30db0146105fc578063d279c19114610606578063d76a05331461062f576101cd565b806398807d84116100d157806398807d84146104ee578063a04c82fb1461052c578063a694fc3a14610557578063b8f59c8014610580576101cd565b80638da5cb5b1461046f57806392586c341461049a578063930efb71146104c3576101cd565b80636c916e431161016f5780637df124a11161013e5780637df124a1146103c75780638456cb591461040457806388d742c21461041b5780638a62f1ca14610444576101cd565b80636c916e431461031c5780636ee5a06114610348578063715018a6146103855780637acf48921461039c576101cd565b80632e1a7d4d116101ab5780632e1a7d4d1461024f578063477348921461027857806356144ab5146102b65780636227c207146102df576101cd565b806312ce31ef146101d2578063153b0d1e146101fd5780632e17de7814610226575b600080fd5b3480156101de57600080fd5b506101e7610707565b6040516101f491906121c9565b60405180910390f35b34801561020957600080fd5b50610224600480360381019061021f919061227f565b61070d565b005b34801561023257600080fd5b5061024d600480360381019061024891906122eb565b610770565b005b34801561025b57600080fd5b50610276600480360381019061027191906122eb565b61091e565b005b34801561028457600080fd5b5061029f600480360381019061029a9190612318565b610add565b6040516102ad929190612345565b60405180910390f35b3480156102c257600080fd5b506102dd60048036038101906102d891906122eb565b610b6f565b005b3480156102eb57600080fd5b50610306600480360381019061030191906122eb565b610bd6565b60405161031391906123fe565b60405180910390f35b34801561032857600080fd5b50610331610c82565b60405161033f92919061259c565b60405180910390f35b34801561035457600080fd5b5061036f600480360381019061036a91906125d3565b610fff565b60405161037c9190612622565b60405180910390f35b34801561039157600080fd5b5061039a611097565b005b3480156103a857600080fd5b506103b16110ab565b6040516103be9190612622565b60405180910390f35b3480156103d357600080fd5b506103ee60048036038101906103e99190612318565b611109565b6040516103fb9190612622565b60405180910390f35b34801561041057600080fd5b50610419611129565b005b34801561042757600080fd5b50610442600480360381019061043d9190612318565b61115d565b005b34801561045057600080fd5b506104596112cb565b60405161046691906121c9565b60405180910390f35b34801561047b57600080fd5b506104846112d8565b604051610491919061264c565b60405180910390f35b3480156104a657600080fd5b506104c160048036038101906104bc91906122eb565b611301565b005b3480156104cf57600080fd5b506104d8611319565b6040516104e591906121c9565b60405180910390f35b3480156104fa57600080fd5b5061051560048036038101906105109190612318565b61131f565b604051610523929190612345565b60405180910390f35b34801561053857600080fd5b50610541611343565b60405161054e91906121c9565b60405180910390f35b34801561056357600080fd5b5061057e600480360381019061057991906122eb565b611349565b005b34801561058c57600080fd5b506105a760048036038101906105a291906122eb565b6114f6565b6040516105b5929190612667565b60405180910390f35b3480156105ca57600080fd5b506105e560048036038101906105e09190612318565b6116ce565b6040516105f3929190612345565b60405180910390f35b6106046116f2565b005b34801561061257600080fd5b5061062d60048036038101906106289190612318565b611aec565b005b34801561063b57600080fd5b50610644611cf8565b60405161065191906121c9565b60405180910390f35b610662611cfe565b005b34801561067057600080fd5b5061068b60048036038101906106869190612318565b611d19565b6040516106989190612622565b60405180910390f35b3480156106ad57600080fd5b506106c860048036038101906106c39190612318565b611d39565b005b3480156106d657600080fd5b506106f160048036038101906106ec91906122eb565b611dbc565b6040516106fe91906121c9565b60405180910390f35b600f5481565b610715611ec4565b80600a60008473ffffffffffffffffffffffffffffffffffffffff1673ffffffffffffffffffffffffffffffffffffffff16815260200190815260200160002060006101000a81548160ff0219169083151502179055505050565b6107786110ab565b1561091b574262015180600760003373ffffffffffffffffffffffffffffffffffffffff1673ffffffffffffffffffffffffffffffffffffffff168152602001908152602001600020600101546107cf91906126cd565b1061080f576040517f08c379a000000000000000000000000000000000000000000000000000000000815260040161080690612773565b60405180910390fd5b61081833611aec565b80600460003373ffffffffffffffffffffffffffffffffffffffff1673ffffffffffffffffffffffffffffffffffffffff168152602001908152602001600020600001600082825461086a91906126cd565b9250508190555080600760003373ffffffffffffffffffffffffffffffffffffffff1673ffffffffffffffffffffffffffffffffffffffff16815260200190815260200160002060000160008282546108c39190612793565b925050819055503373ffffffffffffffffffffffffffffffffffffffff167ff960dbf9e5d0682f7a298ed974e33a28b4464914b7a2bfac12ae419a9afeb2808242604051610912929190612345565b60405180910390a25b50565b6109266110ab565b8015610982575060001515600a60003373ffffffffffffffffffffffffffffffffffffffff1673ffffffffffffffffffffffffffffffffffffffff16815260200190815260200160002060009054906101000a900460ff161515145b801561098f5750600d5442115b15610ada5761099d3361115d565b80600460003373ffffffffffffffffffffffffffffffffffffffff1673ffffffffffffffffffffffffffffffffffffffff16815260200190815260200160002060000160008282546109ef9190612793565b925050819055503373ffffffffffffffffffffffffffffffffffffffff167ff279e6a1f5e320cca91135676d9cb6e44ca8a08c0b88342bcdb1144f6511b5688242604051610a3e929190612345565b60405180910390a26000600460003373ffffffffffffffffffffffffffffffffffffffff1673ffffffffffffffffffffffffffffffffffffffff1681526020019081526020016000206000015403610ad9576000600460003373ffffffffffffffffffffffffffffffffffffffff1673ffffffffffffffffffffffffffffffffffffffff168152602001908152602001600020600101819055505b5b50565b600080600460008473ffffffffffffffffffffffffffffffffffffffff1673ffffffffffffffffffffffffffffffffffffffff168152602001908152602001600020600001549150600760008473ffffffffffffffffffffffffffffffffffffffff1673ffffffffffffffffffffffffffffffffffffffff168152602001908152602001600020600001549050915091565b610b77611ec4565b6000612a309050808210610bc0576040517f08c379a0000000000000000000000000000000000000000000000000000000008152600401610bb790612839565b60405180910390fd5b8142610bcc91906126cd565b600d819055505050565b600e8181548110610be657600080fd5b906000526020600020016000915090508054610c0190612888565b80601f0160208091040260200160405190810160405280929190818152602001828054610c2d90612888565b8015610c7a5780601f10610c4f57610100808354040283529160200191610c7a565b820191906000526020600020905b815481529060010190602001808311610c5d57829003601f168201915b505050505081565b6060806005805480602002602001604051908101604052809291908181526020018280548015610d0757602002820191906000526020600020905b8160009054906101000a900473ffffffffffffffffffffffffffffffffffffffff1673ffffffffffffffffffffffffffffffffffffffff1681526020019060010190808311610cbd575b50505050509050805167ffffffffffffffff811115610d2957610d286128b9565b5b604051908082528060200260200182016040528015610d575781602001602082028036833780820191505090505b50915060005b8151811015610dfb576000828281518110610d7b57610d7a6128e8565b5b60200260200101519050600460008273ffffffffffffffffffffffffffffffffffffffff1673ffffffffffffffffffffffffffffffffffffffff16815260200190815260200160002060000154848381518110610ddb57610dda6128e8565b5b602002602001018181525050508080610df390612917565b915050610d5d565b506000825190506000600190505b81811015610ff9576000848281518110610e2657610e256128e8565b5b602002602001015190506000600183610e3f9190612969565b90505b60008112158015610e6c575081868281518110610e6257610e616128e8565b5b6020026020010151105b15610fb857858181518110610e8457610e836128e8565b5b602002602001015186600183610e9a91906129ac565b81518110610eab57610eaa6128e8565b5b602002602001018181525050600085600183610ec791906129ac565b81518110610ed857610ed76128e8565b5b60200260200101519050858281518110610ef557610ef46128e8565b5b602002602001015186600184610f0b91906129ac565b81518110610f1c57610f1b6128e8565b5b602002602001019073ffffffffffffffffffffffffffffffffffffffff16908173ffffffffffffffffffffffffffffffffffffffff168152505080868381518110610f6a57610f696128e8565b5b602002602001019073ffffffffffffffffffffffffffffffffffffffff16908173ffffffffffffffffffffffffffffffffffffffff16815250508180610faf906129f0565b92505050610e42565b8186600183610fc791906129ac565b81518110610fd857610fd76128e8565b5b60200260200101818152505050508080610ff190612917565b915050610e09565b50509091565b600060608061100c610c82565b8092508193505050816001856110229190612793565b81518110611033576110326128e8565b5b6020026020010151600460008773ffffffffffffffffffffffffffffffffffffffff1673ffffffffffffffffffffffffffffffffffffffff168152602001908152602001600020600001541061108e57600192505050611091565b50505b92915050565b61109f611ec4565b6110a96000611f42565b565b6000801515600260149054906101000a900460ff16151514611102576040517f08c379a00000000000000000000000000000000000000000000000000000000081526004016110f990612a84565b60405180910390fd5b6001905090565b600b6020528060005260406000206000915054906101000a900460ff1681565b611131611ec4565b600260149054906101000a900460ff1615600260146101000a81548160ff021916908315150217905550565b6111656110ab565b80156111725750600d5442115b156112c85760006111c4600460008473ffffffffffffffffffffffffffffffffffffffff1673ffffffffffffffffffffffffffffffffffffffff16815260200190815260200160002060000154611dbc565b90506000600460008473ffffffffffffffffffffffffffffffffffffffff1673ffffffffffffffffffffffffffffffffffffffff16815260200190815260200160002060010154426112169190612793565b826112219190612aa4565b90506112626040518060400160405280601581526020017f746f74616c496e746572657374416d6f756e743a20000000000000000000000081525082612006565b6000611270848360016120a2565b90508373ffffffffffffffffffffffffffffffffffffffff167f55f6a1dcc1b009ec2c3ee9331f0a3e0c3fcbc553ca0ba1c706192fa8f5b346288383426040516112bc93929190612ae6565b60405180910390a25050505b50565b6000600580549050905090565b60008060009054906101000a900473ffffffffffffffffffffffffffffffffffffffff16905090565b611309611ec4565b611315338260006120a2565b5050565b600c5481565b60076020528060005260406000206000915090508060000154908060010154905082565b60035481565b6113516110ab565b156114f357662386f26fc100008110156113a0576040517f08c379a000000000000000000000000000000000000000000000000000000000815260040161139790612b69565b60405180910390fd5b6113a933611aec565b42600760003373ffffffffffffffffffffffffffffffffffffffff1673ffffffffffffffffffffffffffffffffffffffff1681526020019081526020016000206001018190555080600460003373ffffffffffffffffffffffffffffffffffffffff1673ffffffffffffffffffffffffffffffffffffffff16815260200190815260200160002060000160008282546114429190612793565b9250508190555080600760003373ffffffffffffffffffffffffffffffffffffffff1673ffffffffffffffffffffffffffffffffffffffff168152602001908152602001600020600001600082825461149b91906126cd565b925050819055503373ffffffffffffffffffffffffffffffffffffffff167f5af417134f72a9d41143ace85b0a26dce6f550f894f2cbc1eeee8810603d91b682426040516114ea929190612345565b60405180910390a25b50565b6060806115016112cb565b831115611543576040517f08c379a000000000000000000000000000000000000000000000000000000000815260040161153a90612bd5565b60405180910390fd5b60608061154e610c82565b809350819250505061155e6112cb565b850361156f578193508092506116c7565b8467ffffffffffffffff811115611589576115886128b9565b5b6040519080825280602002602001820160405280156115b75781602001602082028036833780820191505090505b5093508467ffffffffffffffff8111156115d4576115d36128b9565b5b6040519080825280602002602001820160405280156116025781602001602082028036833780820191505090505b50925060005b858110156116c557828181518110611623576116226128e8565b5b602002602001015185828151811061163e5761163d6128e8565b5b602002602001019073ffffffffffffffffffffffffffffffffffffffff16908173ffffffffffffffffffffffffffffffffffffffff168152505081818151811061168b5761168a6128e8565b5b60200260200101518482815181106116a6576116a56128e8565b5b60200260200101818152505080806116bd90612917565b915050611608565b505b5050915091565b60046020528060005260406000206000915090508060000154908060010154905082565b6116fa6110ab565b80156117075750600d5442115b15611aea57600660003373ffffffffffffffffffffffffffffffffffffffff1673ffffffffffffffffffffffffffffffffffffffff16815260200190815260200160002060009054906101000a900460ff16611819576001600660003373ffffffffffffffffffffffffffffffffffffffff1673ffffffffffffffffffffffffffffffffffffffff16815260200190815260200160002060006101000a81548160ff0219169083151502179055506005339080600181540180825580915050600190039060005260206000200160009091909190916101000a81548173ffffffffffffffffffffffffffffffffffffffff021916908373ffffffffffffffffffffffffffffffffffffffff1602179055505b6118223361115d565b34600460003373ffffffffffffffffffffffffffffffffffffffff1673ffffffffffffffffffffffffffffffffffffffff168152602001908152602001600020600001600082825461187491906126cd565b9250508190555042600460003373ffffffffffffffffffffffffffffffffffffffff1673ffffffffffffffffffffffffffffffffffffffff168152602001908152602001600020600101819055503373ffffffffffffffffffffffffffffffffffffffff167f90890809c654f11d6e72a28fa60149770a0d11ec6c92319d6ceb2bb0a4ea1a15344260405161190a929190612345565b60405180910390a2600a60058054905010611ae9576060611929610c82565b905080915050600081600081518110611945576119446128e8565b5b60200260200101519050600b60008273ffffffffffffffffffffffffffffffffffffffff1673ffffffffffffffffffffffffffffffffffffffff16815260200190815260200160002060009054906101000a900460ff16611ae657600260009054906101000a900473ffffffffffffffffffffffffffffffffffffffff1673ffffffffffffffffffffffffffffffffffffffff1663d0def52133600e600f54815481106119f5576119f46128e8565b5b906000526020600020016040518363ffffffff1660e01b8152600401611a1c929190612c8e565b6020604051808303816000875af1158015611a3b573d6000803e3d6000fd5b505050506040513d601f19601f82011682018060405250810190611a5f9190612cd3565b506001600b60008373ffffffffffffffffffffffffffffffffffffffff1673ffffffffffffffffffffffffffffffffffffffff16815260200190815260200160002060006101000a81548160ff021916908315150217905550600f6000815480929190611acb90612917565b91905055506003600f54611adf9190612d2f565b600f819055505b50505b5b565b6000600760008373ffffffffffffffffffffffffffffffffffffffff1673ffffffffffffffffffffffffffffffffffffffff168152602001908152602001600020600001549050600064e8d4a51000826002611b489190612aa4565b611b529190612d60565b905060006301e1338082611b669190612d60565b90506000600760008673ffffffffffffffffffffffffffffffffffffffff1673ffffffffffffffffffffffffffffffffffffffff1681526020019081526020016000206001015442611bb89190612793565b82611bc39190612aa4565b9050611c046040518060400160405280601581526020017f746f74616c496e746572657374416d6f756e743a20000000000000000000000081525082612006565b611c0c6110ab565b15611cf157600160009054906101000a900473ffffffffffffffffffffffffffffffffffffffff1673ffffffffffffffffffffffffffffffffffffffff166340c10f1986836040518363ffffffff1660e01b8152600401611c6e929190612d91565b600060405180830381600087803b158015611c8857600080fd5b505af1158015611c9c573d6000803e3d6000fd5b505050508473ffffffffffffffffffffffffffffffffffffffff167fe74e5c9d4ac1fc33412485f18c159a0a391efe287ab3fd271123f30e6bacf4e38242604051611ce8929190612345565b60405180910390a25b5050505050565b600d5481565b3460036000828254611d1091906126cd565b92505081905550565b600a6020528060005260406000206000915054906101000a900460ff1681565b611d41611ec4565b600073ffffffffffffffffffffffffffffffffffffffff168173ffffffffffffffffffffffffffffffffffffffff1603611db0576040517f08c379a0000000000000000000000000000000000000000000000000000000008152600401611da790612e2c565b60405180910390fd5b611db981611f42565b50565b60008068056bc75e2d63100000831015611e4657600068056bc75e2d631000007fffffffffffffffffffffffffffffffffffffffffffffffffffffffffffffffce611e079190612e4c565b9050600060648583611e199190612eb6565b611e2391906129ac565b905060648186611e339190612aa4565b611e3d9190612d60565b92505050611e67565b68056bc75e2d631000008310611e6657600283611e639190612d60565b90505b5b60006301e1338082611e799190612d60565b9050611eba6040518060400160405280601681526020017f696e746572657374416d6f756e745065725365633a200000000000000000000081525082612006565b8092505050919050565b611ecc612158565b73ffffffffffffffffffffffffffffffffffffffff16611eea6112d8565b73ffffffffffffffffffffffffffffffffffffffff1614611f40576040517f08c379a0000000000000000000000000000000000000000000000000000000008152600401611f3790612f7a565b60405180910390fd5b565b60008060009054906101000a900473ffffffffffffffffffffffffffffffffffffffff169050816000806101000a81548173ffffffffffffffffffffffffffffffffffffffff021916908373ffffffffffffffffffffffffffffffffffffffff1602179055508173ffffffffffffffffffffffffffffffffffffffff168173ffffffffffffffffffffffffffffffffffffffff167f8be0079c531659141344cd1fd0a4f28419497f9722a3daafe3b4186f6b6457e060405160405180910390a35050565b61209e828260405160240161201c929190612f9a565b6040516020818303038152906040527fb60e72cc000000000000000000000000000000000000000000000000000000007bffffffffffffffffffffffffffffffffffffffffffffffffffffffff19166020820180517bffffffffffffffffffffffffffffffffffffffffffffffffffffffff8381831617835250505050612160565b5050565b600081156120d4578260035410156120ba5760035492505b82600360008282546120cc9190612793565b925050819055505b60008473ffffffffffffffffffffffffffffffffffffffff16846040516120fa90612ffb565b60006040518083038185875af1925050503d8060008114612137576040519150601f19603f3d011682016040523d82523d6000602084013e61213c565b606091505b50509050801561214f5783915050612151565b505b9392505050565b600033905090565b6121778161216f61217a61219b565b63ffffffff16565b50565b60006a636f6e736f6c652e6c6f679050600080835160208501845afa505050565b6121a6819050919050565b6121ae613010565b565b6000819050919050565b6121c3816121b0565b82525050565b60006020820190506121de60008301846121ba565b92915050565b600080fd5b600073ffffffffffffffffffffffffffffffffffffffff82169050919050565b6000612214826121e9565b9050919050565b61222481612209565b811461222f57600080fd5b50565b6000813590506122418161221b565b92915050565b60008115159050919050565b61225c81612247565b811461226757600080fd5b50565b60008135905061227981612253565b92915050565b60008060408385031215612296576122956121e4565b5b60006122a485828601612232565b92505060206122b58582860161226a565b9150509250929050565b6122c8816121b0565b81146122d357600080fd5b50565b6000813590506122e5816122bf565b92915050565b600060208284031215612301576123006121e4565b5b600061230f848285016122d6565b91505092915050565b60006020828403121561232e5761232d6121e4565b5b600061233c84828501612232565b91505092915050565b600060408201905061235a60008301856121ba565b61236760208301846121ba565b9392505050565b600081519050919050565b600082825260208201905092915050565b60005b838110156123a857808201518184015260208101905061238d565b60008484015250505050565b6000601f19601f8301169050919050565b60006123d08261236e565b6123da8185612379565b93506123ea81856020860161238a565b6123f3816123b4565b840191505092915050565b6000602082019050818103600083015261241881846123c5565b905092915050565b600081519050919050565b600082825260208201905092915050565b6000819050602082019050919050565b612455816121b0565b82525050565b6000612467838361244c565b60208301905092915050565b6000602082019050919050565b600061248b82612420565b612495818561242b565b93506124a08361243c565b8060005b838110156124d15781516124b8888261245b565b97506124c383612473565b9250506001810190506124a4565b5085935050505092915050565b600081519050919050565b600082825260208201905092915050565b6000819050602082019050919050565b61251381612209565b82525050565b6000612525838361250a565b60208301905092915050565b6000602082019050919050565b6000612549826124de565b61255381856124e9565b935061255e836124fa565b8060005b8381101561258f5781516125768882612519565b975061258183612531565b925050600181019050612562565b5085935050505092915050565b600060408201905081810360008301526125b68185612480565b905081810360208301526125ca818461253e565b90509392505050565b600080604083850312156125ea576125e96121e4565b5b60006125f885828601612232565b9250506020612609858286016122d6565b9150509250929050565b61261c81612247565b82525050565b60006020820190506126376000830184612613565b92915050565b61264681612209565b82525050565b6000602082019050612661600083018461263d565b92915050565b60006040820190508181036000830152612681818561253e565b905081810360208301526126958184612480565b90509392505050565b7f4e487b7100000000000000000000000000000000000000000000000000000000600052601160045260246000fd5b60006126d8826121b0565b91506126e3836121b0565b92508282019050808211156126fb576126fa61269e565b5b92915050565b7f796f752063616e277420756e7374616b652077697468696e203164617920616660008201527f74657220796f75206561726e2061207265776172640000000000000000000000602082015250565b600061275d603583612379565b915061276882612701565b604082019050919050565b6000602082019050818103600083015261278c81612750565b9050919050565b600061279e826121b0565b91506127a9836121b0565b92508282039050818111156127c1576127c061269e565b5b92915050565b7f796f75206e65656420746f2073657420736563732077697468696e2033686f7560008201527f7273000000000000000000000000000000000000000000000000000000000000602082015250565b6000612823602283612379565b915061282e826127c7565b604082019050919050565b6000602082019050818103600083015261285281612816565b9050919050565b7f4e487b7100000000000000000000000000000000000000000000000000000000600052602260045260246000fd5b600060028204905060018216806128a057607f821691505b6020821081036128b3576128b2612859565b5b50919050565b7f4e487b7100000000000000000000000000000000000000000000000000000000600052604160045260246000fd5b7f4e487b7100000000000000000000000000000000000000000000000000000000600052603260045260246000fd5b6000612922826121b0565b91507fffffffffffffffffffffffffffffffffffffffffffffffffffffffffffffffff82036129545761295361269e565b5b600182019050919050565b6000819050919050565b60006129748261295f565b915061297f8361295f565b92508282039050818112600084121682821360008512151617156129a6576129a561269e565b5b92915050565b60006129b78261295f565b91506129c28361295f565b9250828201905082811215600083121683821260008412151617156129ea576129e961269e565b5b92915050565b60006129fb8261295f565b91507f80000000000000000000000000000000000000000000000000000000000000008203612a2d57612a2c61269e565b5b600182039050919050565b7f6974277320706175736564000000000000000000000000000000000000000000600082015250565b6000612a6e600b83612379565b9150612a7982612a38565b602082019050919050565b60006020820190508181036000830152612a9d81612a61565b9050919050565b6000612aaf826121b0565b9150612aba836121b0565b9250828202612ac8816121b0565b91508282048414831517612adf57612ade61269e565b5b5092915050565b6000606082019050612afb60008301866121ba565b612b0860208301856121ba565b612b1560408301846121ba565b949350505050565b7f696e73756666696369656e7420616d6f756e7400000000000000000000000000600082015250565b6000612b53601383612379565b9150612b5e82612b1d565b602082019050919050565b60006020820190508181036000830152612b8281612b46565b9050919050565b7f6f7574206f662072616e67650000000000000000000000000000000000000000600082015250565b6000612bbf600c83612379565b9150612bca82612b89565b602082019050919050565b60006020820190508181036000830152612bee81612bb2565b9050919050565b60008190508160005260206000209050919050565b60008154612c1781612888565b612c218186612379565b94506001821660008114612c3c5760018114612c5257612c85565b60ff198316865281151560200286019350612c85565b612c5b85612bf5565b60005b83811015612c7d57815481890152600182019150602081019050612c5e565b808801955050505b50505092915050565b6000604082019050612ca3600083018561263d565b8181036020830152612cb58184612c0a565b90509392505050565b600081519050612ccd816122bf565b92915050565b600060208284031215612ce957612ce86121e4565b5b6000612cf784828501612cbe565b91505092915050565b7f4e487b7100000000000000000000000000000000000000000000000000000000600052601260045260246000fd5b6000612d3a826121b0565b9150612d45836121b0565b925082612d5557612d54612d00565b5b828206905092915050565b6000612d6b826121b0565b9150612d76836121b0565b925082612d8657612d85612d00565b5b828204905092915050565b6000604082019050612da6600083018561263d565b612db360208301846121ba565b9392505050565b7f4f776e61626c653a206e6577206f776e657220697320746865207a65726f206160008201527f6464726573730000000000000000000000000000000000000000000000000000602082015250565b6000612e16602683612379565b9150612e2182612dba565b604082019050919050565b60006020820190508181036000830152612e4581612e09565b9050919050565b6000612e578261295f565b9150612e628361295f565b925082612e7257612e71612d00565b5b600160000383147f800000000000000000000000000000000000000000000000000000000000000083141615612eab57612eaa61269e565b5b828205905092915050565b6000612ec18261295f565b9150612ecc8361295f565b9250828202612eda8161295f565b91507f80000000000000000000000000000000000000000000000000000000000000008414600084121615612f1257612f1161269e565b5b8282058414831517612f2757612f2661269e565b5b5092915050565b7f4f776e61626c653a2063616c6c6572206973206e6f7420746865206f776e6572600082015250565b6000612f64602083612379565b9150612f6f82612f2e565b602082019050919050565b60006020820190508181036000830152612f9381612f57565b9050919050565b60006040820190508181036000830152612fb481856123c5565b9050612fc360208301846121ba565b9392505050565b600081905092915050565b50565b6000612fe5600083612fca565b9150612ff082612fd5565b600082019050919050565b600061300682612fd8565b9150819050919050565b7f4e487b7100000000000000000000000000000000000000000000000000000000600052605160045260246000fdfea264697066735822122008e6af6762e52fc305cc120736ecf48df0bb7f35bc120a5857dabe33d8c133fa64736f6c63430008120033697066733a2f2f7368613235366861736856616c75652f73616d706c65312e6a736f6e697066733a2f2f7368613235366861736856616c75652f73616d706c65332e6a736f6e697066733a2f2f7368613235366861736856616c75652f73616d706c65322e6a736f6e",
			"opcodes": "PUSH1 0x80 PUSH1 0x40 MSTORE PUSH1 0x40 MLOAD DUP1 PUSH1 0x60 ADD PUSH1 0x40 MSTORE DUP1 PUSH1 0x40 MLOAD DUP1 PUSH1 0x60 ADD PUSH1 0x40 MSTORE DUP1 PUSH1 0x23 DUP2 MSTORE PUSH1 0x20 ADD PUSH3 0x37AF PUSH1 0x23 SWAP2 CODECOPY DUP2 MSTORE PUSH1 0x20 ADD PUSH1 0x40 MLOAD DUP1 PUSH1 0x60 ADD PUSH1 0x40 MSTORE DUP1 PUSH1 0x23 DUP2 MSTORE PUSH1 0x20 ADD PUSH3 0x37F5 PUSH1 0x23 SWAP2 CODECOPY DUP2 MSTORE PUSH1 0x20 ADD PUSH1 0x40 MLOAD DUP1 PUSH1 0x60 ADD PUSH1 0x40 MSTORE DUP1 PUSH1 0x23 DUP2 MSTORE PUSH1 0x20 ADD PUSH3 0x37D2 PUSH1 0x23 SWAP2 CODECOPY DUP2 MSTORE POP PUSH1 0xE SWAP1 PUSH1 0x3 PUSH3 0x7C SWAP3 SWAP2 SWAP1 PUSH3 0x22B JUMP JUMPDEST POP PUSH1 0x0 PUSH1 0xF SSTORE CALLVALUE DUP1 ISZERO PUSH3 0x8F JUMPI PUSH1 0x0 DUP1 REVERT JUMPDEST POP PUSH1 0x40 MLOAD PUSH3 0x3818 CODESIZE SUB DUP1 PUSH3 0x3818 DUP4 CODECOPY DUP2 DUP2 ADD PUSH1 0x40 MSTORE DUP2 ADD SWAP1 PUSH3 0xB5 SWAP2 SWAP1 PUSH3 0x382 JUMP JUMPDEST PUSH3 0xD5 PUSH3 0xC9 PUSH3 0x15F PUSH1 0x20 SHL PUSH1 0x20 SHR JUMP JUMPDEST PUSH3 0x167 PUSH1 0x20 SHL PUSH1 0x20 SHR JUMP JUMPDEST DUP2 PUSH1 0x1 PUSH1 0x0 PUSH2 0x100 EXP DUP2 SLOAD DUP2 PUSH20 0xFFFFFFFFFFFFFFFFFFFFFFFFFFFFFFFFFFFFFFFF MUL NOT AND SWAP1 DUP4 PUSH20 0xFFFFFFFFFFFFFFFFFFFFFFFFFFFFFFFFFFFFFFFF AND MUL OR SWAP1 SSTORE POP DUP1 PUSH1 0x2 PUSH1 0x0 PUSH2 0x100 EXP DUP2 SLOAD DUP2 PUSH20 0xFFFFFFFFFFFFFFFFFFFFFFFFFFFFFFFFFFFFFFFF MUL NOT AND SWAP1 DUP4 PUSH20 0xFFFFFFFFFFFFFFFFFFFFFFFFFFFFFFFFFFFFFFFF AND MUL OR SWAP1 SSTORE POP POP POP PUSH3 0x72A JUMP JUMPDEST PUSH1 0x0 CALLER SWAP1 POP SWAP1 JUMP JUMPDEST PUSH1 0x0 DUP1 PUSH1 0x0 SWAP1 SLOAD SWAP1 PUSH2 0x100 EXP SWAP1 DIV PUSH20 0xFFFFFFFFFFFFFFFFFFFFFFFFFFFFFFFFFFFFFFFF AND SWAP1 POP DUP2 PUSH1 0x0 DUP1 PUSH2 0x100 EXP DUP2 SLOAD DUP2 PUSH20 0xFFFFFFFFFFFFFFFFFFFFFFFFFFFFFFFFFFFFFFFF MUL NOT AND SWAP1 DUP4 PUSH20 0xFFFFFFFFFFFFFFFFFFFFFFFFFFFFFFFFFFFFFFFF AND MUL OR SWAP1 SSTORE POP DUP2 PUSH20 0xFFFFFFFFFFFFFFFFFFFFFFFFFFFFFFFFFFFFFFFF AND DUP2 PUSH20 0xFFFFFFFFFFFFFFFFFFFFFFFFFFFFFFFFFFFFFFFF AND PUSH32 0x8BE0079C531659141344CD1FD0A4F28419497F9722A3DAAFE3B4186F6B6457E0 PUSH1 0x40 MLOAD PUSH1 0x40 MLOAD DUP1 SWAP2 SUB SWAP1 LOG3 POP POP JUMP JUMPDEST DUP3 DUP1 SLOAD DUP3 DUP3 SSTORE SWAP1 PUSH1 0x0 MSTORE PUSH1 0x20 PUSH1 0x0 KECCAK256 SWAP1 DUP2 ADD SWAP3 DUP3 ISZERO PUSH3 0x278 JUMPI SWAP2 PUSH1 0x20 MUL DUP3 ADD JUMPDEST DUP3 DUP2 GT ISZERO PUSH3 0x277 JUMPI DUP3 MLOAD DUP3 SWAP1 DUP2 PUSH3 0x266 SWAP2 SWAP1 PUSH3 0x643 JUMP JUMPDEST POP SWAP2 PUSH1 0x20 ADD SWAP2 SWAP1 PUSH1 0x1 ADD SWAP1 PUSH3 0x24C JUMP JUMPDEST JUMPDEST POP SWAP1 POP PUSH3 0x287 SWAP2 SWAP1 PUSH3 0x28B JUMP JUMPDEST POP SWAP1 JUMP JUMPDEST JUMPDEST DUP1 DUP3 GT ISZERO PUSH3 0x2AF JUMPI PUSH1 0x0 DUP2 DUP2 PUSH3 0x2A5 SWAP2 SWAP1 PUSH3 0x2B3 JUMP JUMPDEST POP PUSH1 0x1 ADD PUSH3 0x28C JUMP JUMPDEST POP SWAP1 JUMP JUMPDEST POP DUP1 SLOAD PUSH3 0x2C1 SWAP1 PUSH3 0x432 JUMP JUMPDEST PUSH1 0x0 DUP3 SSTORE DUP1 PUSH1 0x1F LT PUSH3 0x2D5 JUMPI POP PUSH3 0x2F6 JUMP JUMPDEST PUSH1 0x1F ADD PUSH1 0x20 SWAP1 DIV SWAP1 PUSH1 0x0 MSTORE PUSH1 0x20 PUSH1 0x0 KECCAK256 SWAP1 DUP2 ADD SWAP1 PUSH3 0x2F5 SWAP2 SWAP1 PUSH3 0x2F9 JUMP JUMPDEST JUMPDEST POP JUMP JUMPDEST JUMPDEST DUP1 DUP3 GT ISZERO PUSH3 0x314 JUMPI PUSH1 0x0 DUP2 PUSH1 0x0 SWAP1 SSTORE POP PUSH1 0x1 ADD PUSH3 0x2FA JUMP JUMPDEST POP SWAP1 JUMP JUMPDEST PUSH1 0x0 DUP1 REVERT JUMPDEST PUSH1 0x0 PUSH20 0xFFFFFFFFFFFFFFFFFFFFFFFFFFFFFFFFFFFFFFFF DUP3 AND SWAP1 POP SWAP2 SWAP1 POP JUMP JUMPDEST PUSH1 0x0 PUSH3 0x34A DUP3 PUSH3 0x31D JUMP JUMPDEST SWAP1 POP SWAP2 SWAP1 POP JUMP JUMPDEST PUSH3 0x35C DUP2 PUSH3 0x33D JUMP JUMPDEST DUP2 EQ PUSH3 0x368 JUMPI PUSH1 0x0 DUP1 REVERT JUMPDEST POP JUMP JUMPDEST PUSH1 0x0 DUP2 MLOAD SWAP1 POP PUSH3 0x37C DUP2 PUSH3 0x351 JUMP JUMPDEST SWAP3 SWAP2 POP POP JUMP JUMPDEST PUSH1 0x0 DUP1 PUSH1 0x40 DUP4 DUP6 SUB SLT ISZERO PUSH3 0x39C JUMPI PUSH3 0x39B PUSH3 0x318 JUMP JUMPDEST JUMPDEST PUSH1 0x0 PUSH3 0x3AC DUP6 DUP3 DUP7 ADD PUSH3 0x36B JUMP JUMPDEST SWAP3 POP POP PUSH1 0x20 PUSH3 0x3BF DUP6 DUP3 DUP7 ADD PUSH3 0x36B JUMP JUMPDEST SWAP2 POP POP SWAP3 POP SWAP3 SWAP1 POP JUMP JUMPDEST PUSH1 0x0 DUP2 MLOAD SWAP1 POP SWAP2 SWAP1 POP JUMP JUMPDEST PUSH32 0x4E487B7100000000000000000000000000000000000000000000000000000000 PUSH1 0x0 MSTORE PUSH1 0x41 PUSH1 0x4 MSTORE PUSH1 0x24 PUSH1 0x0 REVERT JUMPDEST PUSH32 0x4E487B7100000000000000000000000000000000000000000000000000000000 PUSH1 0x0 MSTORE PUSH1 0x22 PUSH1 0x4 MSTORE PUSH1 0x24 PUSH1 0x0 REVERT JUMPDEST PUSH1 0x0 PUSH1 0x2 DUP3 DIV SWAP1 POP PUSH1 0x1 DUP3 AND DUP1 PUSH3 0x44B JUMPI PUSH1 0x7F DUP3 AND SWAP2 POP JUMPDEST PUSH1 0x20 DUP3 LT DUP2 SUB PUSH3 0x461 JUMPI PUSH3 0x460 PUSH3 0x403 JUMP JUMPDEST JUMPDEST POP SWAP2 SWAP1 POP JUMP JUMPDEST PUSH1 0x0 DUP2 SWAP1 POP DUP2 PUSH1 0x0 MSTORE PUSH1 0x20 PUSH1 0x0 KECCAK256 SWAP1 POP SWAP2 SWAP1 POP JUMP JUMPDEST PUSH1 0x0 PUSH1 0x20 PUSH1 0x1F DUP4 ADD DIV SWAP1 POP SWAP2 SWAP1 POP JUMP JUMPDEST PUSH1 0x0 DUP3 DUP3 SHL SWAP1 POP SWAP3 SWAP2 POP POP JUMP JUMPDEST PUSH1 0x0 PUSH1 0x8 DUP4 MUL PUSH3 0x4CB PUSH32 0xFFFFFFFFFFFFFFFFFFFFFFFFFFFFFFFFFFFFFFFFFFFFFFFFFFFFFFFFFFFFFFFF DUP3 PUSH3 0x48C JUMP JUMPDEST PUSH3 0x4D7 DUP7 DUP4 PUSH3 0x48C JUMP JUMPDEST SWAP6 POP DUP1 NOT DUP5 AND SWAP4 POP DUP1 DUP7 AND DUP5 OR SWAP3 POP POP POP SWAP4 SWAP3 POP POP POP JUMP JUMPDEST PUSH1 0x0 DUP2 SWAP1 POP SWAP2 SWAP1 POP JUMP JUMPDEST PUSH1 0x0 DUP2 SWAP1 POP SWAP2 SWAP1 POP JUMP JUMPDEST PUSH1 0x0 PUSH3 0x524 PUSH3 0x51E PUSH3 0x518 DUP5 PUSH3 0x4EF JUMP JUMPDEST PUSH3 0x4F9 JUMP JUMPDEST PUSH3 0x4EF JUMP JUMPDEST SWAP1 POP SWAP2 SWAP1 POP JUMP JUMPDEST PUSH1 0x0 DUP2 SWAP1 POP SWAP2 SWAP1 POP JUMP JUMPDEST PUSH3 0x540 DUP4 PUSH3 0x503 JUMP JUMPDEST PUSH3 0x558 PUSH3 0x54F DUP3 PUSH3 0x52B JUMP JUMPDEST DUP5 DUP5 SLOAD PUSH3 0x499 JUMP JUMPDEST DUP3 SSTORE POP POP POP POP JUMP JUMPDEST PUSH1 0x0 SWAP1 JUMP JUMPDEST PUSH3 0x56F PUSH3 0x560 JUMP JUMPDEST PUSH3 0x57C DUP2 DUP5 DUP5 PUSH3 0x535 JUMP JUMPDEST POP POP POP JUMP JUMPDEST JUMPDEST DUP2 DUP2 LT ISZERO PUSH3 0x5A4 JUMPI PUSH3 0x598 PUSH1 0x0 DUP3 PUSH3 0x565 JUMP JUMPDEST PUSH1 0x1 DUP2 ADD SWAP1 POP PUSH3 0x582 JUMP JUMPDEST POP POP JUMP JUMPDEST PUSH1 0x1F DUP3 GT ISZERO PUSH3 0x5F3 JUMPI PUSH3 0x5BD DUP2 PUSH3 0x467 JUMP JUMPDEST PUSH3 0x5C8 DUP5 PUSH3 0x47C JUMP JUMPDEST DUP2 ADD PUSH1 0x20 DUP6 LT ISZERO PUSH3 0x5D8 JUMPI DUP2 SWAP1 POP JUMPDEST PUSH3 0x5F0 PUSH3 0x5E7 DUP6 PUSH3 0x47C JUMP JUMPDEST DUP4 ADD DUP3 PUSH3 0x581 JUMP JUMPDEST POP POP JUMPDEST POP POP POP JUMP JUMPDEST PUSH1 0x0 DUP3 DUP3 SHR SWAP1 POP SWAP3 SWAP2 POP POP JUMP JUMPDEST PUSH1 0x0 PUSH3 0x618 PUSH1 0x0 NOT DUP5 PUSH1 0x8 MUL PUSH3 0x5F8 JUMP JUMPDEST NOT DUP1 DUP4 AND SWAP2 POP POP SWAP3 SWAP2 POP POP JUMP JUMPDEST PUSH1 0x0 PUSH3 0x633 DUP4 DUP4 PUSH3 0x605 JUMP JUMPDEST SWAP2 POP DUP3 PUSH1 0x2 MUL DUP3 OR SWAP1 POP SWAP3 SWAP2 POP POP JUMP JUMPDEST PUSH3 0x64E DUP3 PUSH3 0x3C9 JUMP JUMPDEST PUSH8 0xFFFFFFFFFFFFFFFF DUP2 GT ISZERO PUSH3 0x66A JUMPI PUSH3 0x669 PUSH3 0x3D4 JUMP JUMPDEST JUMPDEST PUSH3 0x676 DUP3 SLOAD PUSH3 0x432 JUMP JUMPDEST PUSH3 0x683 DUP3 DUP3 DUP6 PUSH3 0x5A8 JUMP JUMPDEST PUSH1 0x0 PUSH1 0x20 SWAP1 POP PUSH1 0x1F DUP4 GT PUSH1 0x1 DUP2 EQ PUSH3 0x6BB JUMPI PUSH1 0x0 DUP5 ISZERO PUSH3 0x6A6 JUMPI DUP3 DUP8 ADD MLOAD SWAP1 POP JUMPDEST PUSH3 0x6B2 DUP6 DUP3 PUSH3 0x625 JUMP JUMPDEST DUP7 SSTORE POP PUSH3 0x722 JUMP JUMPDEST PUSH1 0x1F NOT DUP5 AND PUSH3 0x6CB DUP7 PUSH3 0x467 JUMP JUMPDEST PUSH1 0x0 JUMPDEST DUP3 DUP2 LT ISZERO PUSH3 0x6F5 JUMPI DUP5 DUP10 ADD MLOAD DUP3 SSTORE PUSH1 0x1 DUP3 ADD SWAP2 POP PUSH1 0x20 DUP6 ADD SWAP5 POP PUSH1 0x20 DUP2 ADD SWAP1 POP PUSH3 0x6CE JUMP JUMPDEST DUP7 DUP4 LT ISZERO PUSH3 0x715 JUMPI DUP5 DUP10 ADD MLOAD PUSH3 0x711 PUSH1 0x1F DUP10 AND DUP3 PUSH3 0x605 JUMP JUMPDEST DUP4 SSTORE POP JUMPDEST PUSH1 0x1 PUSH1 0x2 DUP9 MUL ADD DUP9 SSTORE POP POP POP JUMPDEST POP POP POP POP POP POP JUMP JUMPDEST PUSH2 0x3075 DUP1 PUSH3 0x73A PUSH1 0x0 CODECOPY PUSH1 0x0 RETURN INVALID PUSH1 0x80 PUSH1 0x40 MSTORE PUSH1 0x4 CALLDATASIZE LT PUSH2 0x1CD JUMPI PUSH1 0x0 CALLDATALOAD PUSH1 0xE0 SHR DUP1 PUSH4 0x8DA5CB5B GT PUSH2 0xF7 JUMPI DUP1 PUSH4 0xCB13CDDB GT PUSH2 0x95 JUMPI DUP1 PUSH4 0xDAA3EA75 GT PUSH2 0x64 JUMPI DUP1 PUSH4 0xDAA3EA75 EQ PUSH2 0x65A JUMPI DUP1 PUSH4 0xE392AF3F EQ PUSH2 0x664 JUMPI DUP1 PUSH4 0xF2FDE38B EQ PUSH2 0x6A1 JUMPI DUP1 PUSH4 0xFB8E7835 EQ PUSH2 0x6CA JUMPI PUSH2 0x1CD JUMP JUMPDEST DUP1 PUSH4 0xCB13CDDB EQ PUSH2 0x5BE JUMPI DUP1 PUSH4 0xD0E30DB0 EQ PUSH2 0x5FC JUMPI DUP1 PUSH4 0xD279C191 EQ PUSH2 0x606 JUMPI DUP1 PUSH4 0xD76A0533 EQ PUSH2 0x62F JUMPI PUSH2 0x1CD JUMP JUMPDEST DUP1 PUSH4 0x98807D84 GT PUSH2 0xD1 JUMPI DUP1 PUSH4 0x98807D84 EQ PUSH2 0x4EE JUMPI DUP1 PUSH4 0xA04C82FB EQ PUSH2 0x52C JUMPI DUP1 PUSH4 0xA694FC3A EQ PUSH2 0x557 JUMPI DUP1 PUSH4 0xB8F59C80 EQ PUSH2 0x580 JUMPI PUSH2 0x1CD JUMP JUMPDEST DUP1 PUSH4 0x8DA5CB5B EQ PUSH2 0x46F JUMPI DUP1 PUSH4 0x92586C34 EQ PUSH2 0x49A JUMPI DUP1 PUSH4 0x930EFB71 EQ PUSH2 0x4C3 JUMPI PUSH2 0x1CD JUMP JUMPDEST DUP1 PUSH4 0x6C916E43 GT PUSH2 0x16F JUMPI DUP1 PUSH4 0x7DF124A1 GT PUSH2 0x13E JUMPI DUP1 PUSH4 0x7DF124A1 EQ PUSH2 0x3C7 JUMPI DUP1 PUSH4 0x8456CB59 EQ PUSH2 0x404 JUMPI DUP1 PUSH4 0x88D742C2 EQ PUSH2 0x41B JUMPI DUP1 PUSH4 0x8A62F1CA EQ PUSH2 0x444 JUMPI PUSH2 0x1CD JUMP JUMPDEST DUP1 PUSH4 0x6C916E43 EQ PUSH2 0x31C JUMPI DUP1 PUSH4 0x6EE5A061 EQ PUSH2 0x348 JUMPI DUP1 PUSH4 0x715018A6 EQ PUSH2 0x385 JUMPI DUP1 PUSH4 0x7ACF4892 EQ PUSH2 0x39C JUMPI PUSH2 0x1CD JUMP JUMPDEST DUP1 PUSH4 0x2E1A7D4D GT PUSH2 0x1AB JUMPI DUP1 PUSH4 0x2E1A7D4D EQ PUSH2 0x24F JUMPI DUP1 PUSH4 0x47734892 EQ PUSH2 0x278 JUMPI DUP1 PUSH4 0x56144AB5 EQ PUSH2 0x2B6 JUMPI DUP1 PUSH4 0x6227C207 EQ PUSH2 0x2DF JUMPI PUSH2 0x1CD JUMP JUMPDEST DUP1 PUSH4 0x12CE31EF EQ PUSH2 0x1D2 JUMPI DUP1 PUSH4 0x153B0D1E EQ PUSH2 0x1FD JUMPI DUP1 PUSH4 0x2E17DE78 EQ PUSH2 0x226 JUMPI JUMPDEST PUSH1 0x0 DUP1 REVERT JUMPDEST CALLVALUE DUP1 ISZERO PUSH2 0x1DE JUMPI PUSH1 0x0 DUP1 REVERT JUMPDEST POP PUSH2 0x1E7 PUSH2 0x707 JUMP JUMPDEST PUSH1 0x40 MLOAD PUSH2 0x1F4 SWAP2 SWAP1 PUSH2 0x21C9 JUMP JUMPDEST PUSH1 0x40 MLOAD DUP1 SWAP2 SUB SWAP1 RETURN JUMPDEST CALLVALUE DUP1 ISZERO PUSH2 0x209 JUMPI PUSH1 0x0 DUP1 REVERT JUMPDEST POP PUSH2 0x224 PUSH1 0x4 DUP1 CALLDATASIZE SUB DUP2 ADD SWAP1 PUSH2 0x21F SWAP2 SWAP1 PUSH2 0x227F JUMP JUMPDEST PUSH2 0x70D JUMP JUMPDEST STOP JUMPDEST CALLVALUE DUP1 ISZERO PUSH2 0x232 JUMPI PUSH1 0x0 DUP1 REVERT JUMPDEST POP PUSH2 0x24D PUSH1 0x4 DUP1 CALLDATASIZE SUB DUP2 ADD SWAP1 PUSH2 0x248 SWAP2 SWAP1 PUSH2 0x22EB JUMP JUMPDEST PUSH2 0x770 JUMP JUMPDEST STOP JUMPDEST CALLVALUE DUP1 ISZERO PUSH2 0x25B JUMPI PUSH1 0x0 DUP1 REVERT JUMPDEST POP PUSH2 0x276 PUSH1 0x4 DUP1 CALLDATASIZE SUB DUP2 ADD SWAP1 PUSH2 0x271 SWAP2 SWAP1 PUSH2 0x22EB JUMP JUMPDEST PUSH2 0x91E JUMP JUMPDEST STOP JUMPDEST CALLVALUE DUP1 ISZERO PUSH2 0x284 JUMPI PUSH1 0x0 DUP1 REVERT JUMPDEST POP PUSH2 0x29F PUSH1 0x4 DUP1 CALLDATASIZE SUB DUP2 ADD SWAP1 PUSH2 0x29A SWAP2 SWAP1 PUSH2 0x2318 JUMP JUMPDEST PUSH2 0xADD JUMP JUMPDEST PUSH1 0x40 MLOAD PUSH2 0x2AD SWAP3 SWAP2 SWAP1 PUSH2 0x2345 JUMP JUMPDEST PUSH1 0x40 MLOAD DUP1 SWAP2 SUB SWAP1 RETURN JUMPDEST CALLVALUE DUP1 ISZERO PUSH2 0x2C2 JUMPI PUSH1 0x0 DUP1 REVERT JUMPDEST POP PUSH2 0x2DD PUSH1 0x4 DUP1 CALLDATASIZE SUB DUP2 ADD SWAP1 PUSH2 0x2D8 SWAP2 SWAP1 PUSH2 0x22EB JUMP JUMPDEST PUSH2 0xB6F JUMP JUMPDEST STOP JUMPDEST CALLVALUE DUP1 ISZERO PUSH2 0x2EB JUMPI PUSH1 0x0 DUP1 REVERT JUMPDEST POP PUSH2 0x306 PUSH1 0x4 DUP1 CALLDATASIZE SUB DUP2 ADD SWAP1 PUSH2 0x301 SWAP2 SWAP1 PUSH2 0x22EB JUMP JUMPDEST PUSH2 0xBD6 JUMP JUMPDEST PUSH1 0x40 MLOAD PUSH2 0x313 SWAP2 SWAP1 PUSH2 0x23FE JUMP JUMPDEST PUSH1 0x40 MLOAD DUP1 SWAP2 SUB SWAP1 RETURN JUMPDEST CALLVALUE DUP1 ISZERO PUSH2 0x328 JUMPI PUSH1 0x0 DUP1 REVERT JUMPDEST POP PUSH2 0x331 PUSH2 0xC82 JUMP JUMPDEST PUSH1 0x40 MLOAD PUSH2 0x33F SWAP3 SWAP2 SWAP1 PUSH2 0x259C JUMP JUMPDEST PUSH1 0x40 MLOAD DUP1 SWAP2 SUB SWAP1 RETURN JUMPDEST CALLVALUE DUP1 ISZERO PUSH2 0x354 JUMPI PUSH1 0x0 DUP1 REVERT JUMPDEST POP PUSH2 0x36F PUSH1 0x4 DUP1 CALLDATASIZE SUB DUP2 ADD SWAP1 PUSH2 0x36A SWAP2 SWAP1 PUSH2 0x25D3 JUMP JUMPDEST PUSH2 0xFFF JUMP JUMPDEST PUSH1 0x40 MLOAD PUSH2 0x37C SWAP2 SWAP1 PUSH2 0x2622 JUMP JUMPDEST PUSH1 0x40 MLOAD DUP1 SWAP2 SUB SWAP1 RETURN JUMPDEST CALLVALUE DUP1 ISZERO PUSH2 0x391 JUMPI PUSH1 0x0 DUP1 REVERT JUMPDEST POP PUSH2 0x39A PUSH2 0x1097 JUMP JUMPDEST STOP JUMPDEST CALLVALUE DUP1 ISZERO PUSH2 0x3A8 JUMPI PUSH1 0x0 DUP1 REVERT JUMPDEST POP PUSH2 0x3B1 PUSH2 0x10AB JUMP JUMPDEST PUSH1 0x40 MLOAD PUSH2 0x3BE SWAP2 SWAP1 PUSH2 0x2622 JUMP JUMPDEST PUSH1 0x40 MLOAD DUP1 SWAP2 SUB SWAP1 RETURN JUMPDEST CALLVALUE DUP1 ISZERO PUSH2 0x3D3 JUMPI PUSH1 0x0 DUP1 REVERT JUMPDEST POP PUSH2 0x3EE PUSH1 0x4 DUP1 CALLDATASIZE SUB DUP2 ADD SWAP1 PUSH2 0x3E9 SWAP2 SWAP1 PUSH2 0x2318 JUMP JUMPDEST PUSH2 0x1109 JUMP JUMPDEST PUSH1 0x40 MLOAD PUSH2 0x3FB SWAP2 SWAP1 PUSH2 0x2622 JUMP JUMPDEST PUSH1 0x40 MLOAD DUP1 SWAP2 SUB SWAP1 RETURN JUMPDEST CALLVALUE DUP1 ISZERO PUSH2 0x410 JUMPI PUSH1 0x0 DUP1 REVERT JUMPDEST POP PUSH2 0x419 PUSH2 0x1129 JUMP JUMPDEST STOP JUMPDEST CALLVALUE DUP1 ISZERO PUSH2 0x427 JUMPI PUSH1 0x0 DUP1 REVERT JUMPDEST POP PUSH2 0x442 PUSH1 0x4 DUP1 CALLDATASIZE SUB DUP2 ADD SWAP1 PUSH2 0x43D SWAP2 SWAP1 PUSH2 0x2318 JUMP JUMPDEST PUSH2 0x115D JUMP JUMPDEST STOP JUMPDEST CALLVALUE DUP1 ISZERO PUSH2 0x450 JUMPI PUSH1 0x0 DUP1 REVERT JUMPDEST POP PUSH2 0x459 PUSH2 0x12CB JUMP JUMPDEST PUSH1 0x40 MLOAD PUSH2 0x466 SWAP2 SWAP1 PUSH2 0x21C9 JUMP JUMPDEST PUSH1 0x40 MLOAD DUP1 SWAP2 SUB SWAP1 RETURN JUMPDEST CALLVALUE DUP1 ISZERO PUSH2 0x47B JUMPI PUSH1 0x0 DUP1 REVERT JUMPDEST POP PUSH2 0x484 PUSH2 0x12D8 JUMP JUMPDEST PUSH1 0x40 MLOAD PUSH2 0x491 SWAP2 SWAP1 PUSH2 0x264C JUMP JUMPDEST PUSH1 0x40 MLOAD DUP1 SWAP2 SUB SWAP1 RETURN JUMPDEST CALLVALUE DUP1 ISZERO PUSH2 0x4A6 JUMPI PUSH1 0x0 DUP1 REVERT JUMPDEST POP PUSH2 0x4C1 PUSH1 0x4 DUP1 CALLDATASIZE SUB DUP2 ADD SWAP1 PUSH2 0x4BC SWAP2 SWAP1 PUSH2 0x22EB JUMP JUMPDEST PUSH2 0x1301 JUMP JUMPDEST STOP JUMPDEST CALLVALUE DUP1 ISZERO PUSH2 0x4CF JUMPI PUSH1 0x0 DUP1 REVERT JUMPDEST POP PUSH2 0x4D8 PUSH2 0x1319 JUMP JUMPDEST PUSH1 0x40 MLOAD PUSH2 0x4E5 SWAP2 SWAP1 PUSH2 0x21C9 JUMP JUMPDEST PUSH1 0x40 MLOAD DUP1 SWAP2 SUB SWAP1 RETURN JUMPDEST CALLVALUE DUP1 ISZERO PUSH2 0x4FA JUMPI PUSH1 0x0 DUP1 REVERT JUMPDEST POP PUSH2 0x515 PUSH1 0x4 DUP1 CALLDATASIZE SUB DUP2 ADD SWAP1 PUSH2 0x510 SWAP2 SWAP1 PUSH2 0x2318 JUMP JUMPDEST PUSH2 0x131F JUMP JUMPDEST PUSH1 0x40 MLOAD PUSH2 0x523 SWAP3 SWAP2 SWAP1 PUSH2 0x2345 JUMP JUMPDEST PUSH1 0x40 MLOAD DUP1 SWAP2 SUB SWAP1 RETURN JUMPDEST CALLVALUE DUP1 ISZERO PUSH2 0x538 JUMPI PUSH1 0x0 DUP1 REVERT JUMPDEST POP PUSH2 0x541 PUSH2 0x1343 JUMP JUMPDEST PUSH1 0x40 MLOAD PUSH2 0x54E SWAP2 SWAP1 PUSH2 0x21C9 JUMP JUMPDEST PUSH1 0x40 MLOAD DUP1 SWAP2 SUB SWAP1 RETURN JUMPDEST CALLVALUE DUP1 ISZERO PUSH2 0x563 JUMPI PUSH1 0x0 DUP1 REVERT JUMPDEST POP PUSH2 0x57E PUSH1 0x4 DUP1 CALLDATASIZE SUB DUP2 ADD SWAP1 PUSH2 0x579 SWAP2 SWAP1 PUSH2 0x22EB JUMP JUMPDEST PUSH2 0x1349 JUMP JUMPDEST STOP JUMPDEST CALLVALUE DUP1 ISZERO PUSH2 0x58C JUMPI PUSH1 0x0 DUP1 REVERT JUMPDEST POP PUSH2 0x5A7 PUSH1 0x4 DUP1 CALLDATASIZE SUB DUP2 ADD SWAP1 PUSH2 0x5A2 SWAP2 SWAP1 PUSH2 0x22EB JUMP JUMPDEST PUSH2 0x14F6 JUMP JUMPDEST PUSH1 0x40 MLOAD PUSH2 0x5B5 SWAP3 SWAP2 SWAP1 PUSH2 0x2667 JUMP JUMPDEST PUSH1 0x40 MLOAD DUP1 SWAP2 SUB SWAP1 RETURN JUMPDEST CALLVALUE DUP1 ISZERO PUSH2 0x5CA JUMPI PUSH1 0x0 DUP1 REVERT JUMPDEST POP PUSH2 0x5E5 PUSH1 0x4 DUP1 CALLDATASIZE SUB DUP2 ADD SWAP1 PUSH2 0x5E0 SWAP2 SWAP1 PUSH2 0x2318 JUMP JUMPDEST PUSH2 0x16CE JUMP JUMPDEST PUSH1 0x40 MLOAD PUSH2 0x5F3 SWAP3 SWAP2 SWAP1 PUSH2 0x2345 JUMP JUMPDEST PUSH1 0x40 MLOAD DUP1 SWAP2 SUB SWAP1 RETURN JUMPDEST PUSH2 0x604 PUSH2 0x16F2 JUMP JUMPDEST STOP JUMPDEST CALLVALUE DUP1 ISZERO PUSH2 0x612 JUMPI PUSH1 0x0 DUP1 REVERT JUMPDEST POP PUSH2 0x62D PUSH1 0x4 DUP1 CALLDATASIZE SUB DUP2 ADD SWAP1 PUSH2 0x628 SWAP2 SWAP1 PUSH2 0x2318 JUMP JUMPDEST PUSH2 0x1AEC JUMP JUMPDEST STOP JUMPDEST CALLVALUE DUP1 ISZERO PUSH2 0x63B JUMPI PUSH1 0x0 DUP1 REVERT JUMPDEST POP PUSH2 0x644 PUSH2 0x1CF8 JUMP JUMPDEST PUSH1 0x40 MLOAD PUSH2 0x651 SWAP2 SWAP1 PUSH2 0x21C9 JUMP JUMPDEST PUSH1 0x40 MLOAD DUP1 SWAP2 SUB SWAP1 RETURN JUMPDEST PUSH2 0x662 PUSH2 0x1CFE JUMP JUMPDEST STOP JUMPDEST CALLVALUE DUP1 ISZERO PUSH2 0x670 JUMPI PUSH1 0x0 DUP1 REVERT JUMPDEST POP PUSH2 0x68B PUSH1 0x4 DUP1 CALLDATASIZE SUB DUP2 ADD SWAP1 PUSH2 0x686 SWAP2 SWAP1 PUSH2 0x2318 JUMP JUMPDEST PUSH2 0x1D19 JUMP JUMPDEST PUSH1 0x40 MLOAD PUSH2 0x698 SWAP2 SWAP1 PUSH2 0x2622 JUMP JUMPDEST PUSH1 0x40 MLOAD DUP1 SWAP2 SUB SWAP1 RETURN JUMPDEST CALLVALUE DUP1 ISZERO PUSH2 0x6AD JUMPI PUSH1 0x0 DUP1 REVERT JUMPDEST POP PUSH2 0x6C8 PUSH1 0x4 DUP1 CALLDATASIZE SUB DUP2 ADD SWAP1 PUSH2 0x6C3 SWAP2 SWAP1 PUSH2 0x2318 JUMP JUMPDEST PUSH2 0x1D39 JUMP JUMPDEST STOP JUMPDEST CALLVALUE DUP1 ISZERO PUSH2 0x6D6 JUMPI PUSH1 0x0 DUP1 REVERT JUMPDEST POP PUSH2 0x6F1 PUSH1 0x4 DUP1 CALLDATASIZE SUB DUP2 ADD SWAP1 PUSH2 0x6EC SWAP2 SWAP1 PUSH2 0x22EB JUMP JUMPDEST PUSH2 0x1DBC JUMP JUMPDEST PUSH1 0x40 MLOAD PUSH2 0x6FE SWAP2 SWAP1 PUSH2 0x21C9 JUMP JUMPDEST PUSH1 0x40 MLOAD DUP1 SWAP2 SUB SWAP1 RETURN JUMPDEST PUSH1 0xF SLOAD DUP2 JUMP JUMPDEST PUSH2 0x715 PUSH2 0x1EC4 JUMP JUMPDEST DUP1 PUSH1 0xA PUSH1 0x0 DUP5 PUSH20 0xFFFFFFFFFFFFFFFFFFFFFFFFFFFFFFFFFFFFFFFF AND PUSH20 0xFFFFFFFFFFFFFFFFFFFFFFFFFFFFFFFFFFFFFFFF AND DUP2 MSTORE PUSH1 0x20 ADD SWAP1 DUP2 MSTORE PUSH1 0x20 ADD PUSH1 0x0 KECCAK256 PUSH1 0x0 PUSH2 0x100 EXP DUP2 SLOAD DUP2 PUSH1 0xFF MUL NOT AND SWAP1 DUP4 ISZERO ISZERO MUL OR SWAP1 SSTORE POP POP POP JUMP JUMPDEST PUSH2 0x778 PUSH2 0x10AB JUMP JUMPDEST ISZERO PUSH2 0x91B JUMPI TIMESTAMP PUSH3 0x15180 PUSH1 0x7 PUSH1 0x0 CALLER PUSH20 0xFFFFFFFFFFFFFFFFFFFFFFFFFFFFFFFFFFFFFFFF AND PUSH20 0xFFFFFFFFFFFFFFFFFFFFFFFFFFFFFFFFFFFFFFFF AND DUP2 MSTORE PUSH1 0x20 ADD SWAP1 DUP2 MSTORE PUSH1 0x20 ADD PUSH1 0x0 KECCAK256 PUSH1 0x1 ADD SLOAD PUSH2 0x7CF SWAP2 SWAP1 PUSH2 0x26CD JUMP JUMPDEST LT PUSH2 0x80F JUMPI PUSH1 0x40 MLOAD PUSH32 0x8C379A000000000000000000000000000000000000000000000000000000000 DUP2 MSTORE PUSH1 0x4 ADD PUSH2 0x806 SWAP1 PUSH2 0x2773 JUMP JUMPDEST PUSH1 0x40 MLOAD DUP1 SWAP2 SUB SWAP1 REVERT JUMPDEST PUSH2 0x818 CALLER PUSH2 0x1AEC JUMP JUMPDEST DUP1 PUSH1 0x4 PUSH1 0x0 CALLER PUSH20 0xFFFFFFFFFFFFFFFFFFFFFFFFFFFFFFFFFFFFFFFF AND PUSH20 0xFFFFFFFFFFFFFFFFFFFFFFFFFFFFFFFFFFFFFFFF AND DUP2 MSTORE PUSH1 0x20 ADD SWAP1 DUP2 MSTORE PUSH1 0x20 ADD PUSH1 0x0 KECCAK256 PUSH1 0x0 ADD PUSH1 0x0 DUP3 DUP3 SLOAD PUSH2 0x86A SWAP2 SWAP1 PUSH2 0x26CD JUMP JUMPDEST SWAP3 POP POP DUP2 SWAP1 SSTORE POP DUP1 PUSH1 0x7 PUSH1 0x0 CALLER PUSH20 0xFFFFFFFFFFFFFFFFFFFFFFFFFFFFFFFFFFFFFFFF AND PUSH20 0xFFFFFFFFFFFFFFFFFFFFFFFFFFFFFFFFFFFFFFFF AND DUP2 MSTORE PUSH1 0x20 ADD SWAP1 DUP2 MSTORE PUSH1 0x20 ADD PUSH1 0x0 KECCAK256 PUSH1 0x0 ADD PUSH1 0x0 DUP3 DUP3 SLOAD PUSH2 0x8C3 SWAP2 SWAP1 PUSH2 0x2793 JUMP JUMPDEST SWAP3 POP POP DUP2 SWAP1 SSTORE POP CALLER PUSH20 0xFFFFFFFFFFFFFFFFFFFFFFFFFFFFFFFFFFFFFFFF AND PUSH32 0xF960DBF9E5D0682F7A298ED974E33A28B4464914B7A2BFAC12AE419A9AFEB280 DUP3 TIMESTAMP PUSH1 0x40 MLOAD PUSH2 0x912 SWAP3 SWAP2 SWAP1 PUSH2 0x2345 JUMP JUMPDEST PUSH1 0x40 MLOAD DUP1 SWAP2 SUB SWAP1 LOG2 JUMPDEST POP JUMP JUMPDEST PUSH2 0x926 PUSH2 0x10AB JUMP JUMPDEST DUP1 ISZERO PUSH2 0x982 JUMPI POP PUSH1 0x0 ISZERO ISZERO PUSH1 0xA PUSH1 0x0 CALLER PUSH20 0xFFFFFFFFFFFFFFFFFFFFFFFFFFFFFFFFFFFFFFFF AND PUSH20 0xFFFFFFFFFFFFFFFFFFFFFFFFFFFFFFFFFFFFFFFF AND DUP2 MSTORE PUSH1 0x20 ADD SWAP1 DUP2 MSTORE PUSH1 0x20 ADD PUSH1 0x0 KECCAK256 PUSH1 0x0 SWAP1 SLOAD SWAP1 PUSH2 0x100 EXP SWAP1 DIV PUSH1 0xFF AND ISZERO ISZERO EQ JUMPDEST DUP1 ISZERO PUSH2 0x98F JUMPI POP PUSH1 0xD SLOAD TIMESTAMP GT JUMPDEST ISZERO PUSH2 0xADA JUMPI PUSH2 0x99D CALLER PUSH2 0x115D JUMP JUMPDEST DUP1 PUSH1 0x4 PUSH1 0x0 CALLER PUSH20 0xFFFFFFFFFFFFFFFFFFFFFFFFFFFFFFFFFFFFFFFF AND PUSH20 0xFFFFFFFFFFFFFFFFFFFFFFFFFFFFFFFFFFFFFFFF AND DUP2 MSTORE PUSH1 0x20 ADD SWAP1 DUP2 MSTORE PUSH1 0x20 ADD PUSH1 0x0 KECCAK256 PUSH1 0x0 ADD PUSH1 0x0 DUP3 DUP3 SLOAD PUSH2 0x9EF SWAP2 SWAP1 PUSH2 0x2793 JUMP JUMPDEST SWAP3 POP POP DUP2 SWAP1 SSTORE POP CALLER PUSH20 0xFFFFFFFFFFFFFFFFFFFFFFFFFFFFFFFFFFFFFFFF AND PUSH32 0xF279E6A1F5E320CCA91135676D9CB6E44CA8A08C0B88342BCDB1144F6511B568 DUP3 TIMESTAMP PUSH1 0x40 MLOAD PUSH2 0xA3E SWAP3 SWAP2 SWAP1 PUSH2 0x2345 JUMP JUMPDEST PUSH1 0x40 MLOAD DUP1 SWAP2 SUB SWAP1 LOG2 PUSH1 0x0 PUSH1 0x4 PUSH1 0x0 CALLER PUSH20 0xFFFFFFFFFFFFFFFFFFFFFFFFFFFFFFFFFFFFFFFF AND PUSH20 0xFFFFFFFFFFFFFFFFFFFFFFFFFFFFFFFFFFFFFFFF AND DUP2 MSTORE PUSH1 0x20 ADD SWAP1 DUP2 MSTORE PUSH1 0x20 ADD PUSH1 0x0 KECCAK256 PUSH1 0x0 ADD SLOAD SUB PUSH2 0xAD9 JUMPI PUSH1 0x0 PUSH1 0x4 PUSH1 0x0 CALLER PUSH20 0xFFFFFFFFFFFFFFFFFFFFFFFFFFFFFFFFFFFFFFFF AND PUSH20 0xFFFFFFFFFFFFFFFFFFFFFFFFFFFFFFFFFFFFFFFF AND DUP2 MSTORE PUSH1 0x20 ADD SWAP1 DUP2 MSTORE PUSH1 0x20 ADD PUSH1 0x0 KECCAK256 PUSH1 0x1 ADD DUP2 SWAP1 SSTORE POP JUMPDEST JUMPDEST POP JUMP JUMPDEST PUSH1 0x0 DUP1 PUSH1 0x4 PUSH1 0x0 DUP5 PUSH20 0xFFFFFFFFFFFFFFFFFFFFFFFFFFFFFFFFFFFFFFFF AND PUSH20 0xFFFFFFFFFFFFFFFFFFFFFFFFFFFFFFFFFFFFFFFF AND DUP2 MSTORE PUSH1 0x20 ADD SWAP1 DUP2 MSTORE PUSH1 0x20 ADD PUSH1 0x0 KECCAK256 PUSH1 0x0 ADD SLOAD SWAP2 POP PUSH1 0x7 PUSH1 0x0 DUP5 PUSH20 0xFFFFFFFFFFFFFFFFFFFFFFFFFFFFFFFFFFFFFFFF AND PUSH20 0xFFFFFFFFFFFFFFFFFFFFFFFFFFFFFFFFFFFFFFFF AND DUP2 MSTORE PUSH1 0x20 ADD SWAP1 DUP2 MSTORE PUSH1 0x20 ADD PUSH1 0x0 KECCAK256 PUSH1 0x0 ADD SLOAD SWAP1 POP SWAP2 POP SWAP2 JUMP JUMPDEST PUSH2 0xB77 PUSH2 0x1EC4 JUMP JUMPDEST PUSH1 0x0 PUSH2 0x2A30 SWAP1 POP DUP1 DUP3 LT PUSH2 0xBC0 JUMPI PUSH1 0x40 MLOAD PUSH32 0x8C379A000000000000000000000000000000000000000000000000000000000 DUP2 MSTORE PUSH1 0x4 ADD PUSH2 0xBB7 SWAP1 PUSH2 0x2839 JUMP JUMPDEST PUSH1 0x40 MLOAD DUP1 SWAP2 SUB SWAP1 REVERT JUMPDEST DUP2 TIMESTAMP PUSH2 0xBCC SWAP2 SWAP1 PUSH2 0x26CD JUMP JUMPDEST PUSH1 0xD DUP2 SWAP1 SSTORE POP POP POP JUMP JUMPDEST PUSH1 0xE DUP2 DUP2 SLOAD DUP2 LT PUSH2 0xBE6 JUMPI PUSH1 0x0 DUP1 REVERT JUMPDEST SWAP1 PUSH1 0x0 MSTORE PUSH1 0x20 PUSH1 0x0 KECCAK256 ADD PUSH1 0x0 SWAP2 POP SWAP1 POP DUP1 SLOAD PUSH2 0xC01 SWAP1 PUSH2 0x2888 JUMP JUMPDEST DUP1 PUSH1 0x1F ADD PUSH1 0x20 DUP1 SWAP2 DIV MUL PUSH1 0x20 ADD PUSH1 0x40 MLOAD SWAP1 DUP2 ADD PUSH1 0x40 MSTORE DUP1 SWAP3 SWAP2 SWAP1 DUP2 DUP2 MSTORE PUSH1 0x20 ADD DUP3 DUP1 SLOAD PUSH2 0xC2D SWAP1 PUSH2 0x2888 JUMP JUMPDEST DUP1 ISZERO PUSH2 0xC7A JUMPI DUP1 PUSH1 0x1F LT PUSH2 0xC4F JUMPI PUSH2 0x100 DUP1 DUP4 SLOAD DIV MUL DUP4 MSTORE SWAP2 PUSH1 0x20 ADD SWAP2 PUSH2 0xC7A JUMP JUMPDEST DUP3 ADD SWAP2 SWAP1 PUSH1 0x0 MSTORE PUSH1 0x20 PUSH1 0x0 KECCAK256 SWAP1 JUMPDEST DUP2 SLOAD DUP2 MSTORE SWAP1 PUSH1 0x1 ADD SWAP1 PUSH1 0x20 ADD DUP1 DUP4 GT PUSH2 0xC5D JUMPI DUP3 SWAP1 SUB PUSH1 0x1F AND DUP3 ADD SWAP2 JUMPDEST POP POP POP POP POP DUP2 JUMP JUMPDEST PUSH1 0x60 DUP1 PUSH1 0x5 DUP1 SLOAD DUP1 PUSH1 0x20 MUL PUSH1 0x20 ADD PUSH1 0x40 MLOAD SWAP1 DUP2 ADD PUSH1 0x40 MSTORE DUP1 SWAP3 SWAP2 SWAP1 DUP2 DUP2 MSTORE PUSH1 0x20 ADD DUP3 DUP1 SLOAD DUP1 ISZERO PUSH2 0xD07 JUMPI PUSH1 0x20 MUL DUP3 ADD SWAP2 SWAP1 PUSH1 0x0 MSTORE PUSH1 0x20 PUSH1 0x0 KECCAK256 SWAP1 JUMPDEST DUP2 PUSH1 0x0 SWAP1 SLOAD SWAP1 PUSH2 0x100 EXP SWAP1 DIV PUSH20 0xFFFFFFFFFFFFFFFFFFFFFFFFFFFFFFFFFFFFFFFF AND PUSH20 0xFFFFFFFFFFFFFFFFFFFFFFFFFFFFFFFFFFFFFFFF AND DUP2 MSTORE PUSH1 0x20 ADD SWAP1 PUSH1 0x1 ADD SWAP1 DUP1 DUP4 GT PUSH2 0xCBD JUMPI JUMPDEST POP POP POP POP POP SWAP1 POP DUP1 MLOAD PUSH8 0xFFFFFFFFFFFFFFFF DUP2 GT ISZERO PUSH2 0xD29 JUMPI PUSH2 0xD28 PUSH2 0x28B9 JUMP JUMPDEST JUMPDEST PUSH1 0x40 MLOAD SWAP1 DUP1 DUP3 MSTORE DUP1 PUSH1 0x20 MUL PUSH1 0x20 ADD DUP3 ADD PUSH1 0x40 MSTORE DUP1 ISZERO PUSH2 0xD57 JUMPI DUP2 PUSH1 0x20 ADD PUSH1 0x20 DUP3 MUL DUP1 CALLDATASIZE DUP4 CALLDATACOPY DUP1 DUP3 ADD SWAP2 POP POP SWAP1 POP JUMPDEST POP SWAP2 POP PUSH1 0x0 JUMPDEST DUP2 MLOAD DUP2 LT ISZERO PUSH2 0xDFB JUMPI PUSH1 0x0 DUP3 DUP3 DUP2 MLOAD DUP2 LT PUSH2 0xD7B JUMPI PUSH2 0xD7A PUSH2 0x28E8 JUMP JUMPDEST JUMPDEST PUSH1 0x20 MUL PUSH1 0x20 ADD ADD MLOAD SWAP1 POP PUSH1 0x4 PUSH1 0x0 DUP3 PUSH20 0xFFFFFFFFFFFFFFFFFFFFFFFFFFFFFFFFFFFFFFFF AND PUSH20 0xFFFFFFFFFFFFFFFFFFFFFFFFFFFFFFFFFFFFFFFF AND DUP2 MSTORE PUSH1 0x20 ADD SWAP1 DUP2 MSTORE PUSH1 0x20 ADD PUSH1 0x0 KECCAK256 PUSH1 0x0 ADD SLOAD DUP5 DUP4 DUP2 MLOAD DUP2 LT PUSH2 0xDDB JUMPI PUSH2 0xDDA PUSH2 0x28E8 JUMP JUMPDEST JUMPDEST PUSH1 0x20 MUL PUSH1 0x20 ADD ADD DUP2 DUP2 MSTORE POP POP POP DUP1 DUP1 PUSH2 0xDF3 SWAP1 PUSH2 0x2917 JUMP JUMPDEST SWAP2 POP POP PUSH2 0xD5D JUMP JUMPDEST POP PUSH1 0x0 DUP3 MLOAD SWAP1 POP PUSH1 0x0 PUSH1 0x1 SWAP1 POP JUMPDEST DUP2 DUP2 LT ISZERO PUSH2 0xFF9 JUMPI PUSH1 0x0 DUP5 DUP3 DUP2 MLOAD DUP2 LT PUSH2 0xE26 JUMPI PUSH2 0xE25 PUSH2 0x28E8 JUMP JUMPDEST JUMPDEST PUSH1 0x20 MUL PUSH1 0x20 ADD ADD MLOAD SWAP1 POP PUSH1 0x0 PUSH1 0x1 DUP4 PUSH2 0xE3F SWAP2 SWAP1 PUSH2 0x2969 JUMP JUMPDEST SWAP1 POP JUMPDEST PUSH1 0x0 DUP2 SLT ISZERO DUP1 ISZERO PUSH2 0xE6C JUMPI POP DUP2 DUP7 DUP3 DUP2 MLOAD DUP2 LT PUSH2 0xE62 JUMPI PUSH2 0xE61 PUSH2 0x28E8 JUMP JUMPDEST JUMPDEST PUSH1 0x20 MUL PUSH1 0x20 ADD ADD MLOAD LT JUMPDEST ISZERO PUSH2 0xFB8 JUMPI DUP6 DUP2 DUP2 MLOAD DUP2 LT PUSH2 0xE84 JUMPI PUSH2 0xE83 PUSH2 0x28E8 JUMP JUMPDEST JUMPDEST PUSH1 0x20 MUL PUSH1 0x20 ADD ADD MLOAD DUP7 PUSH1 0x1 DUP4 PUSH2 0xE9A SWAP2 SWAP1 PUSH2 0x29AC JUMP JUMPDEST DUP2 MLOAD DUP2 LT PUSH2 0xEAB JUMPI PUSH2 0xEAA PUSH2 0x28E8 JUMP JUMPDEST JUMPDEST PUSH1 0x20 MUL PUSH1 0x20 ADD ADD DUP2 DUP2 MSTORE POP POP PUSH1 0x0 DUP6 PUSH1 0x1 DUP4 PUSH2 0xEC7 SWAP2 SWAP1 PUSH2 0x29AC JUMP JUMPDEST DUP2 MLOAD DUP2 LT PUSH2 0xED8 JUMPI PUSH2 0xED7 PUSH2 0x28E8 JUMP JUMPDEST JUMPDEST PUSH1 0x20 MUL PUSH1 0x20 ADD ADD MLOAD SWAP1 POP DUP6 DUP3 DUP2 MLOAD DUP2 LT PUSH2 0xEF5 JUMPI PUSH2 0xEF4 PUSH2 0x28E8 JUMP JUMPDEST JUMPDEST PUSH1 0x20 MUL PUSH1 0x20 ADD ADD MLOAD DUP7 PUSH1 0x1 DUP5 PUSH2 0xF0B SWAP2 SWAP1 PUSH2 0x29AC JUMP JUMPDEST DUP2 MLOAD DUP2 LT PUSH2 0xF1C JUMPI PUSH2 0xF1B PUSH2 0x28E8 JUMP JUMPDEST JUMPDEST PUSH1 0x20 MUL PUSH1 0x20 ADD ADD SWAP1 PUSH20 0xFFFFFFFFFFFFFFFFFFFFFFFFFFFFFFFFFFFFFFFF AND SWAP1 DUP2 PUSH20 0xFFFFFFFFFFFFFFFFFFFFFFFFFFFFFFFFFFFFFFFF AND DUP2 MSTORE POP POP DUP1 DUP7 DUP4 DUP2 MLOAD DUP2 LT PUSH2 0xF6A JUMPI PUSH2 0xF69 PUSH2 0x28E8 JUMP JUMPDEST JUMPDEST PUSH1 0x20 MUL PUSH1 0x20 ADD ADD SWAP1 PUSH20 0xFFFFFFFFFFFFFFFFFFFFFFFFFFFFFFFFFFFFFFFF AND SWAP1 DUP2 PUSH20 0xFFFFFFFFFFFFFFFFFFFFFFFFFFFFFFFFFFFFFFFF AND DUP2 MSTORE POP POP DUP2 DUP1 PUSH2 0xFAF SWAP1 PUSH2 0x29F0 JUMP JUMPDEST SWAP3 POP POP POP PUSH2 0xE42 JUMP JUMPDEST DUP2 DUP7 PUSH1 0x1 DUP4 PUSH2 0xFC7 SWAP2 SWAP1 PUSH2 0x29AC JUMP JUMPDEST DUP2 MLOAD DUP2 LT PUSH2 0xFD8 JUMPI PUSH2 0xFD7 PUSH2 0x28E8 JUMP JUMPDEST JUMPDEST PUSH1 0x20 MUL PUSH1 0x20 ADD ADD DUP2 DUP2 MSTORE POP POP POP POP DUP1 DUP1 PUSH2 0xFF1 SWAP1 PUSH2 0x2917 JUMP JUMPDEST SWAP2 POP POP PUSH2 0xE09 JUMP JUMPDEST POP POP SWAP1 SWAP2 JUMP JUMPDEST PUSH1 0x0 PUSH1 0x60 DUP1 PUSH2 0x100C PUSH2 0xC82 JUMP JUMPDEST DUP1 SWAP3 POP DUP2 SWAP4 POP POP POP DUP2 PUSH1 0x1 DUP6 PUSH2 0x1022 SWAP2 SWAP1 PUSH2 0x2793 JUMP JUMPDEST DUP2 MLOAD DUP2 LT PUSH2 0x1033 JUMPI PUSH2 0x1032 PUSH2 0x28E8 JUMP JUMPDEST JUMPDEST PUSH1 0x20 MUL PUSH1 0x20 ADD ADD MLOAD PUSH1 0x4 PUSH1 0x0 DUP8 PUSH20 0xFFFFFFFFFFFFFFFFFFFFFFFFFFFFFFFFFFFFFFFF AND PUSH20 0xFFFFFFFFFFFFFFFFFFFFFFFFFFFFFFFFFFFFFFFF AND DUP2 MSTORE PUSH1 0x20 ADD SWAP1 DUP2 MSTORE PUSH1 0x20 ADD PUSH1 0x0 KECCAK256 PUSH1 0x0 ADD SLOAD LT PUSH2 0x108E JUMPI PUSH1 0x1 SWAP3 POP POP POP PUSH2 0x1091 JUMP JUMPDEST POP POP JUMPDEST SWAP3 SWAP2 POP POP JUMP JUMPDEST PUSH2 0x109F PUSH2 0x1EC4 JUMP JUMPDEST PUSH2 0x10A9 PUSH1 0x0 PUSH2 0x1F42 JUMP JUMPDEST JUMP JUMPDEST PUSH1 0x0 DUP1 ISZERO ISZERO PUSH1 0x2 PUSH1 0x14 SWAP1 SLOAD SWAP1 PUSH2 0x100 EXP SWAP1 DIV PUSH1 0xFF AND ISZERO ISZERO EQ PUSH2 0x1102 JUMPI PUSH1 0x40 MLOAD PUSH32 0x8C379A000000000000000000000000000000000000000000000000000000000 DUP2 MSTORE PUSH1 0x4 ADD PUSH2 0x10F9 SWAP1 PUSH2 0x2A84 JUMP JUMPDEST PUSH1 0x40 MLOAD DUP1 SWAP2 SUB SWAP1 REVERT JUMPDEST PUSH1 0x1 SWAP1 POP SWAP1 JUMP JUMPDEST PUSH1 0xB PUSH1 0x20 MSTORE DUP1 PUSH1 0x0 MSTORE PUSH1 0x40 PUSH1 0x0 KECCAK256 PUSH1 0x0 SWAP2 POP SLOAD SWAP1 PUSH2 0x100 EXP SWAP1 DIV PUSH1 0xFF AND DUP2 JUMP JUMPDEST PUSH2 0x1131 PUSH2 0x1EC4 JUMP JUMPDEST PUSH1 0x2 PUSH1 0x14 SWAP1 SLOAD SWAP1 PUSH2 0x100 EXP SWAP1 DIV PUSH1 0xFF AND ISZERO PUSH1 0x2 PUSH1 0x14 PUSH2 0x100 EXP DUP2 SLOAD DUP2 PUSH1 0xFF MUL NOT AND SWAP1 DUP4 ISZERO ISZERO MUL OR SWAP1 SSTORE POP JUMP JUMPDEST PUSH2 0x1165 PUSH2 0x10AB JUMP JUMPDEST DUP1 ISZERO PUSH2 0x1172 JUMPI POP PUSH1 0xD SLOAD TIMESTAMP GT JUMPDEST ISZERO PUSH2 0x12C8 JUMPI PUSH1 0x0 PUSH2 0x11C4 PUSH1 0x4 PUSH1 0x0 DUP5 PUSH20 0xFFFFFFFFFFFFFFFFFFFFFFFFFFFFFFFFFFFFFFFF AND PUSH20 0xFFFFFFFFFFFFFFFFFFFFFFFFFFFFFFFFFFFFFFFF AND DUP2 MSTORE PUSH1 0x20 ADD SWAP1 DUP2 MSTORE PUSH1 0x20 ADD PUSH1 0x0 KECCAK256 PUSH1 0x0 ADD SLOAD PUSH2 0x1DBC JUMP JUMPDEST SWAP1 POP PUSH1 0x0 PUSH1 0x4 PUSH1 0x0 DUP5 PUSH20 0xFFFFFFFFFFFFFFFFFFFFFFFFFFFFFFFFFFFFFFFF AND PUSH20 0xFFFFFFFFFFFFFFFFFFFFFFFFFFFFFFFFFFFFFFFF AND DUP2 MSTORE PUSH1 0x20 ADD SWAP1 DUP2 MSTORE PUSH1 0x20 ADD PUSH1 0x0 KECCAK256 PUSH1 0x1 ADD SLOAD TIMESTAMP PUSH2 0x1216 SWAP2 SWAP1 PUSH2 0x2793 JUMP JUMPDEST DUP3 PUSH2 0x1221 SWAP2 SWAP1 PUSH2 0x2AA4 JUMP JUMPDEST SWAP1 POP PUSH2 0x1262 PUSH1 0x40 MLOAD DUP1 PUSH1 0x40 ADD PUSH1 0x40 MSTORE DUP1 PUSH1 0x15 DUP2 MSTORE PUSH1 0x20 ADD PUSH32 0x746F74616C496E746572657374416D6F756E743A200000000000000000000000 DUP2 MSTORE POP DUP3 PUSH2 0x2006 JUMP JUMPDEST PUSH1 0x0 PUSH2 0x1270 DUP5 DUP4 PUSH1 0x1 PUSH2 0x20A2 JUMP JUMPDEST SWAP1 POP DUP4 PUSH20 0xFFFFFFFFFFFFFFFFFFFFFFFFFFFFFFFFFFFFFFFF AND PUSH32 0x55F6A1DCC1B009EC2C3EE9331F0A3E0C3FCBC553CA0BA1C706192FA8F5B34628 DUP4 DUP4 TIMESTAMP PUSH1 0x40 MLOAD PUSH2 0x12BC SWAP4 SWAP3 SWAP2 SWAP1 PUSH2 0x2AE6 JUMP JUMPDEST PUSH1 0x40 MLOAD DUP1 SWAP2 SUB SWAP1 LOG2 POP POP POP JUMPDEST POP JUMP JUMPDEST PUSH1 0x0 PUSH1 0x5 DUP1 SLOAD SWAP1 POP SWAP1 POP SWAP1 JUMP JUMPDEST PUSH1 0x0 DUP1 PUSH1 0x0 SWAP1 SLOAD SWAP1 PUSH2 0x100 EXP SWAP1 DIV PUSH20 0xFFFFFFFFFFFFFFFFFFFFFFFFFFFFFFFFFFFFFFFF AND SWAP1 POP SWAP1 JUMP JUMPDEST PUSH2 0x1309 PUSH2 0x1EC4 JUMP JUMPDEST PUSH2 0x1315 CALLER DUP3 PUSH1 0x0 PUSH2 0x20A2 JUMP JUMPDEST POP POP JUMP JUMPDEST PUSH1 0xC SLOAD DUP2 JUMP JUMPDEST PUSH1 0x7 PUSH1 0x20 MSTORE DUP1 PUSH1 0x0 MSTORE PUSH1 0x40 PUSH1 0x0 KECCAK256 PUSH1 0x0 SWAP2 POP SWAP1 POP DUP1 PUSH1 0x0 ADD SLOAD SWAP1 DUP1 PUSH1 0x1 ADD SLOAD SWAP1 POP DUP3 JUMP JUMPDEST PUSH1 0x3 SLOAD DUP2 JUMP JUMPDEST PUSH2 0x1351 PUSH2 0x10AB JUMP JUMPDEST ISZERO PUSH2 0x14F3 JUMPI PUSH7 0x2386F26FC10000 DUP2 LT ISZERO PUSH2 0x13A0 JUMPI PUSH1 0x40 MLOAD PUSH32 0x8C379A000000000000000000000000000000000000000000000000000000000 DUP2 MSTORE PUSH1 0x4 ADD PUSH2 0x1397 SWAP1 PUSH2 0x2B69 JUMP JUMPDEST PUSH1 0x40 MLOAD DUP1 SWAP2 SUB SWAP1 REVERT JUMPDEST PUSH2 0x13A9 CALLER PUSH2 0x1AEC JUMP JUMPDEST TIMESTAMP PUSH1 0x7 PUSH1 0x0 CALLER PUSH20 0xFFFFFFFFFFFFFFFFFFFFFFFFFFFFFFFFFFFFFFFF AND PUSH20 0xFFFFFFFFFFFFFFFFFFFFFFFFFFFFFFFFFFFFFFFF AND DUP2 MSTORE PUSH1 0x20 ADD SWAP1 DUP2 MSTORE PUSH1 0x20 ADD PUSH1 0x0 KECCAK256 PUSH1 0x1 ADD DUP2 SWAP1 SSTORE POP DUP1 PUSH1 0x4 PUSH1 0x0 CALLER PUSH20 0xFFFFFFFFFFFFFFFFFFFFFFFFFFFFFFFFFFFFFFFF AND PUSH20 0xFFFFFFFFFFFFFFFFFFFFFFFFFFFFFFFFFFFFFFFF AND DUP2 MSTORE PUSH1 0x20 ADD SWAP1 DUP2 MSTORE PUSH1 0x20 ADD PUSH1 0x0 KECCAK256 PUSH1 0x0 ADD PUSH1 0x0 DUP3 DUP3 SLOAD PUSH2 0x1442 SWAP2 SWAP1 PUSH2 0x2793 JUMP JUMPDEST SWAP3 POP POP DUP2 SWAP1 SSTORE POP DUP1 PUSH1 0x7 PUSH1 0x0 CALLER PUSH20 0xFFFFFFFFFFFFFFFFFFFFFFFFFFFFFFFFFFFFFFFF AND PUSH20 0xFFFFFFFFFFFFFFFFFFFFFFFFFFFFFFFFFFFFFFFF AND DUP2 MSTORE PUSH1 0x20 ADD SWAP1 DUP2 MSTORE PUSH1 0x20 ADD PUSH1 0x0 KECCAK256 PUSH1 0x0 ADD PUSH1 0x0 DUP3 DUP3 SLOAD PUSH2 0x149B SWAP2 SWAP1 PUSH2 0x26CD JUMP JUMPDEST SWAP3 POP POP DUP2 SWAP1 SSTORE POP CALLER PUSH20 0xFFFFFFFFFFFFFFFFFFFFFFFFFFFFFFFFFFFFFFFF AND PUSH32 0x5AF417134F72A9D41143ACE85B0A26DCE6F550F894F2CBC1EEEE8810603D91B6 DUP3 TIMESTAMP PUSH1 0x40 MLOAD PUSH2 0x14EA SWAP3 SWAP2 SWAP1 PUSH2 0x2345 JUMP JUMPDEST PUSH1 0x40 MLOAD DUP1 SWAP2 SUB SWAP1 LOG2 JUMPDEST POP JUMP JUMPDEST PUSH1 0x60 DUP1 PUSH2 0x1501 PUSH2 0x12CB JUMP JUMPDEST DUP4 GT ISZERO PUSH2 0x1543 JUMPI PUSH1 0x40 MLOAD PUSH32 0x8C379A000000000000000000000000000000000000000000000000000000000 DUP2 MSTORE PUSH1 0x4 ADD PUSH2 0x153A SWAP1 PUSH2 0x2BD5 JUMP JUMPDEST PUSH1 0x40 MLOAD DUP1 SWAP2 SUB SWAP1 REVERT JUMPDEST PUSH1 0x60 DUP1 PUSH2 0x154E PUSH2 0xC82 JUMP JUMPDEST DUP1 SWAP4 POP DUP2 SWAP3 POP POP POP PUSH2 0x155E PUSH2 0x12CB JUMP JUMPDEST DUP6 SUB PUSH2 0x156F JUMPI DUP2 SWAP4 POP DUP1 SWAP3 POP PUSH2 0x16C7 JUMP JUMPDEST DUP5 PUSH8 0xFFFFFFFFFFFFFFFF DUP2 GT ISZERO PUSH2 0x1589 JUMPI PUSH2 0x1588 PUSH2 0x28B9 JUMP JUMPDEST JUMPDEST PUSH1 0x40 MLOAD SWAP1 DUP1 DUP3 MSTORE DUP1 PUSH1 0x20 MUL PUSH1 0x20 ADD DUP3 ADD PUSH1 0x40 MSTORE DUP1 ISZERO PUSH2 0x15B7 JUMPI DUP2 PUSH1 0x20 ADD PUSH1 0x20 DUP3 MUL DUP1 CALLDATASIZE DUP4 CALLDATACOPY DUP1 DUP3 ADD SWAP2 POP POP SWAP1 POP JUMPDEST POP SWAP4 POP DUP5 PUSH8 0xFFFFFFFFFFFFFFFF DUP2 GT ISZERO PUSH2 0x15D4 JUMPI PUSH2 0x15D3 PUSH2 0x28B9 JUMP JUMPDEST JUMPDEST PUSH1 0x40 MLOAD SWAP1 DUP1 DUP3 MSTORE DUP1 PUSH1 0x20 MUL PUSH1 0x20 ADD DUP3 ADD PUSH1 0x40 MSTORE DUP1 ISZERO PUSH2 0x1602 JUMPI DUP2 PUSH1 0x20 ADD PUSH1 0x20 DUP3 MUL DUP1 CALLDATASIZE DUP4 CALLDATACOPY DUP1 DUP3 ADD SWAP2 POP POP SWAP1 POP JUMPDEST POP SWAP3 POP PUSH1 0x0 JUMPDEST DUP6 DUP2 LT ISZERO PUSH2 0x16C5 JUMPI DUP3 DUP2 DUP2 MLOAD DUP2 LT PUSH2 0x1623 JUMPI PUSH2 0x1622 PUSH2 0x28E8 JUMP JUMPDEST JUMPDEST PUSH1 0x20 MUL PUSH1 0x20 ADD ADD MLOAD DUP6 DUP3 DUP2 MLOAD DUP2 LT PUSH2 0x163E JUMPI PUSH2 0x163D PUSH2 0x28E8 JUMP JUMPDEST JUMPDEST PUSH1 0x20 MUL PUSH1 0x20 ADD ADD SWAP1 PUSH20 0xFFFFFFFFFFFFFFFFFFFFFFFFFFFFFFFFFFFFFFFF AND SWAP1 DUP2 PUSH20 0xFFFFFFFFFFFFFFFFFFFFFFFFFFFFFFFFFFFFFFFF AND DUP2 MSTORE POP POP DUP2 DUP2 DUP2 MLOAD DUP2 LT PUSH2 0x168B JUMPI PUSH2 0x168A PUSH2 0x28E8 JUMP JUMPDEST JUMPDEST PUSH1 0x20 MUL PUSH1 0x20 ADD ADD MLOAD DUP5 DUP3 DUP2 MLOAD DUP2 LT PUSH2 0x16A6 JUMPI PUSH2 0x16A5 PUSH2 0x28E8 JUMP JUMPDEST JUMPDEST PUSH1 0x20 MUL PUSH1 0x20 ADD ADD DUP2 DUP2 MSTORE POP POP DUP1 DUP1 PUSH2 0x16BD SWAP1 PUSH2 0x2917 JUMP JUMPDEST SWAP2 POP POP PUSH2 0x1608 JUMP JUMPDEST POP JUMPDEST POP POP SWAP2 POP SWAP2 JUMP JUMPDEST PUSH1 0x4 PUSH1 0x20 MSTORE DUP1 PUSH1 0x0 MSTORE PUSH1 0x40 PUSH1 0x0 KECCAK256 PUSH1 0x0 SWAP2 POP SWAP1 POP DUP1 PUSH1 0x0 ADD SLOAD SWAP1 DUP1 PUSH1 0x1 ADD SLOAD SWAP1 POP DUP3 JUMP JUMPDEST PUSH2 0x16FA PUSH2 0x10AB JUMP JUMPDEST DUP1 ISZERO PUSH2 0x1707 JUMPI POP PUSH1 0xD SLOAD TIMESTAMP GT JUMPDEST ISZERO PUSH2 0x1AEA JUMPI PUSH1 0x6 PUSH1 0x0 CALLER PUSH20 0xFFFFFFFFFFFFFFFFFFFFFFFFFFFFFFFFFFFFFFFF AND PUSH20 0xFFFFFFFFFFFFFFFFFFFFFFFFFFFFFFFFFFFFFFFF AND DUP2 MSTORE PUSH1 0x20 ADD SWAP1 DUP2 MSTORE PUSH1 0x20 ADD PUSH1 0x0 KECCAK256 PUSH1 0x0 SWAP1 SLOAD SWAP1 PUSH2 0x100 EXP SWAP1 DIV PUSH1 0xFF AND PUSH2 0x1819 JUMPI PUSH1 0x1 PUSH1 0x6 PUSH1 0x0 CALLER PUSH20 0xFFFFFFFFFFFFFFFFFFFFFFFFFFFFFFFFFFFFFFFF AND PUSH20 0xFFFFFFFFFFFFFFFFFFFFFFFFFFFFFFFFFFFFFFFF AND DUP2 MSTORE PUSH1 0x20 ADD SWAP1 DUP2 MSTORE PUSH1 0x20 ADD PUSH1 0x0 KECCAK256 PUSH1 0x0 PUSH2 0x100 EXP DUP2 SLOAD DUP2 PUSH1 0xFF MUL NOT AND SWAP1 DUP4 ISZERO ISZERO MUL OR SWAP1 SSTORE POP PUSH1 0x5 CALLER SWAP1 DUP1 PUSH1 0x1 DUP2 SLOAD ADD DUP1 DUP3 SSTORE DUP1 SWAP2 POP POP PUSH1 0x1 SWAP1 SUB SWAP1 PUSH1 0x0 MSTORE PUSH1 0x20 PUSH1 0x0 KECCAK256 ADD PUSH1 0x0 SWAP1 SWAP2 SWAP1 SWAP2 SWAP1 SWAP2 PUSH2 0x100 EXP DUP2 SLOAD DUP2 PUSH20 0xFFFFFFFFFFFFFFFFFFFFFFFFFFFFFFFFFFFFFFFF MUL NOT AND SWAP1 DUP4 PUSH20 0xFFFFFFFFFFFFFFFFFFFFFFFFFFFFFFFFFFFFFFFF AND MUL OR SWAP1 SSTORE POP JUMPDEST PUSH2 0x1822 CALLER PUSH2 0x115D JUMP JUMPDEST CALLVALUE PUSH1 0x4 PUSH1 0x0 CALLER PUSH20 0xFFFFFFFFFFFFFFFFFFFFFFFFFFFFFFFFFFFFFFFF AND PUSH20 0xFFFFFFFFFFFFFFFFFFFFFFFFFFFFFFFFFFFFFFFF AND DUP2 MSTORE PUSH1 0x20 ADD SWAP1 DUP2 MSTORE PUSH1 0x20 ADD PUSH1 0x0 KECCAK256 PUSH1 0x0 ADD PUSH1 0x0 DUP3 DUP3 SLOAD PUSH2 0x1874 SWAP2 SWAP1 PUSH2 0x26CD JUMP JUMPDEST SWAP3 POP POP DUP2 SWAP1 SSTORE POP TIMESTAMP PUSH1 0x4 PUSH1 0x0 CALLER PUSH20 0xFFFFFFFFFFFFFFFFFFFFFFFFFFFFFFFFFFFFFFFF AND PUSH20 0xFFFFFFFFFFFFFFFFFFFFFFFFFFFFFFFFFFFFFFFF AND DUP2 MSTORE PUSH1 0x20 ADD SWAP1 DUP2 MSTORE PUSH1 0x20 ADD PUSH1 0x0 KECCAK256 PUSH1 0x1 ADD DUP2 SWAP1 SSTORE POP CALLER PUSH20 0xFFFFFFFFFFFFFFFFFFFFFFFFFFFFFFFFFFFFFFFF AND PUSH32 0x90890809C654F11D6E72A28FA60149770A0D11EC6C92319D6CEB2BB0A4EA1A15 CALLVALUE TIMESTAMP PUSH1 0x40 MLOAD PUSH2 0x190A SWAP3 SWAP2 SWAP1 PUSH2 0x2345 JUMP JUMPDEST PUSH1 0x40 MLOAD DUP1 SWAP2 SUB SWAP1 LOG2 PUSH1 0xA PUSH1 0x5 DUP1 SLOAD SWAP1 POP LT PUSH2 0x1AE9 JUMPI PUSH1 0x60 PUSH2 0x1929 PUSH2 0xC82 JUMP JUMPDEST SWAP1 POP DUP1 SWAP2 POP POP PUSH1 0x0 DUP2 PUSH1 0x0 DUP2 MLOAD DUP2 LT PUSH2 0x1945 JUMPI PUSH2 0x1944 PUSH2 0x28E8 JUMP JUMPDEST JUMPDEST PUSH1 0x20 MUL PUSH1 0x20 ADD ADD MLOAD SWAP1 POP PUSH1 0xB PUSH1 0x0 DUP3 PUSH20 0xFFFFFFFFFFFFFFFFFFFFFFFFFFFFFFFFFFFFFFFF AND PUSH20 0xFFFFFFFFFFFFFFFFFFFFFFFFFFFFFFFFFFFFFFFF AND DUP2 MSTORE PUSH1 0x20 ADD SWAP1 DUP2 MSTORE PUSH1 0x20 ADD PUSH1 0x0 KECCAK256 PUSH1 0x0 SWAP1 SLOAD SWAP1 PUSH2 0x100 EXP SWAP1 DIV PUSH1 0xFF AND PUSH2 0x1AE6 JUMPI PUSH1 0x2 PUSH1 0x0 SWAP1 SLOAD SWAP1 PUSH2 0x100 EXP SWAP1 DIV PUSH20 0xFFFFFFFFFFFFFFFFFFFFFFFFFFFFFFFFFFFFFFFF AND PUSH20 0xFFFFFFFFFFFFFFFFFFFFFFFFFFFFFFFFFFFFFFFF AND PUSH4 0xD0DEF521 CALLER PUSH1 0xE PUSH1 0xF SLOAD DUP2 SLOAD DUP2 LT PUSH2 0x19F5 JUMPI PUSH2 0x19F4 PUSH2 0x28E8 JUMP JUMPDEST JUMPDEST SWAP1 PUSH1 0x0 MSTORE PUSH1 0x20 PUSH1 0x0 KECCAK256 ADD PUSH1 0x40 MLOAD DUP4 PUSH4 0xFFFFFFFF AND PUSH1 0xE0 SHL DUP2 MSTORE PUSH1 0x4 ADD PUSH2 0x1A1C SWAP3 SWAP2 SWAP1 PUSH2 0x2C8E JUMP JUMPDEST PUSH1 0x20 PUSH1 0x40 MLOAD DUP1 DUP4 SUB DUP2 PUSH1 0x0 DUP8 GAS CALL ISZERO DUP1 ISZERO PUSH2 0x1A3B JUMPI RETURNDATASIZE PUSH1 0x0 DUP1 RETURNDATACOPY RETURNDATASIZE PUSH1 0x0 REVERT JUMPDEST POP POP POP POP PUSH1 0x40 MLOAD RETURNDATASIZE PUSH1 0x1F NOT PUSH1 0x1F DUP3 ADD AND DUP3 ADD DUP1 PUSH1 0x40 MSTORE POP DUP2 ADD SWAP1 PUSH2 0x1A5F SWAP2 SWAP1 PUSH2 0x2CD3 JUMP JUMPDEST POP PUSH1 0x1 PUSH1 0xB PUSH1 0x0 DUP4 PUSH20 0xFFFFFFFFFFFFFFFFFFFFFFFFFFFFFFFFFFFFFFFF AND PUSH20 0xFFFFFFFFFFFFFFFFFFFFFFFFFFFFFFFFFFFFFFFF AND DUP2 MSTORE PUSH1 0x20 ADD SWAP1 DUP2 MSTORE PUSH1 0x20 ADD PUSH1 0x0 KECCAK256 PUSH1 0x0 PUSH2 0x100 EXP DUP2 SLOAD DUP2 PUSH1 0xFF MUL NOT AND SWAP1 DUP4 ISZERO ISZERO MUL OR SWAP1 SSTORE POP PUSH1 0xF PUSH1 0x0 DUP2 SLOAD DUP1 SWAP3 SWAP2 SWAP1 PUSH2 0x1ACB SWAP1 PUSH2 0x2917 JUMP JUMPDEST SWAP2 SWAP1 POP SSTORE POP PUSH1 0x3 PUSH1 0xF SLOAD PUSH2 0x1ADF SWAP2 SWAP1 PUSH2 0x2D2F JUMP JUMPDEST PUSH1 0xF DUP2 SWAP1 SSTORE POP JUMPDEST POP POP JUMPDEST JUMPDEST JUMP JUMPDEST PUSH1 0x0 PUSH1 0x7 PUSH1 0x0 DUP4 PUSH20 0xFFFFFFFFFFFFFFFFFFFFFFFFFFFFFFFFFFFFFFFF AND PUSH20 0xFFFFFFFFFFFFFFFFFFFFFFFFFFFFFFFFFFFFFFFF AND DUP2 MSTORE PUSH1 0x20 ADD SWAP1 DUP2 MSTORE PUSH1 0x20 ADD PUSH1 0x0 KECCAK256 PUSH1 0x0 ADD SLOAD SWAP1 POP PUSH1 0x0 PUSH5 0xE8D4A51000 DUP3 PUSH1 0x2 PUSH2 0x1B48 SWAP2 SWAP1 PUSH2 0x2AA4 JUMP JUMPDEST PUSH2 0x1B52 SWAP2 SWAP1 PUSH2 0x2D60 JUMP JUMPDEST SWAP1 POP PUSH1 0x0 PUSH4 0x1E13380 DUP3 PUSH2 0x1B66 SWAP2 SWAP1 PUSH2 0x2D60 JUMP JUMPDEST SWAP1 POP PUSH1 0x0 PUSH1 0x7 PUSH1 0x0 DUP7 PUSH20 0xFFFFFFFFFFFFFFFFFFFFFFFFFFFFFFFFFFFFFFFF AND PUSH20 0xFFFFFFFFFFFFFFFFFFFFFFFFFFFFFFFFFFFFFFFF AND DUP2 MSTORE PUSH1 0x20 ADD SWAP1 DUP2 MSTORE PUSH1 0x20 ADD PUSH1 0x0 KECCAK256 PUSH1 0x1 ADD SLOAD TIMESTAMP PUSH2 0x1BB8 SWAP2 SWAP1 PUSH2 0x2793 JUMP JUMPDEST DUP3 PUSH2 0x1BC3 SWAP2 SWAP1 PUSH2 0x2AA4 JUMP JUMPDEST SWAP1 POP PUSH2 0x1C04 PUSH1 0x40 MLOAD DUP1 PUSH1 0x40 ADD PUSH1 0x40 MSTORE DUP1 PUSH1 0x15 DUP2 MSTORE PUSH1 0x20 ADD PUSH32 0x746F74616C496E746572657374416D6F756E743A200000000000000000000000 DUP2 MSTORE POP DUP3 PUSH2 0x2006 JUMP JUMPDEST PUSH2 0x1C0C PUSH2 0x10AB JUMP JUMPDEST ISZERO PUSH2 0x1CF1 JUMPI PUSH1 0x1 PUSH1 0x0 SWAP1 SLOAD SWAP1 PUSH2 0x100 EXP SWAP1 DIV PUSH20 0xFFFFFFFFFFFFFFFFFFFFFFFFFFFFFFFFFFFFFFFF AND PUSH20 0xFFFFFFFFFFFFFFFFFFFFFFFFFFFFFFFFFFFFFFFF AND PUSH4 0x40C10F19 DUP7 DUP4 PUSH1 0x40 MLOAD DUP4 PUSH4 0xFFFFFFFF AND PUSH1 0xE0 SHL DUP2 MSTORE PUSH1 0x4 ADD PUSH2 0x1C6E SWAP3 SWAP2 SWAP1 PUSH2 0x2D91 JUMP JUMPDEST PUSH1 0x0 PUSH1 0x40 MLOAD DUP1 DUP4 SUB DUP2 PUSH1 0x0 DUP8 DUP1 EXTCODESIZE ISZERO DUP1 ISZERO PUSH2 0x1C88 JUMPI PUSH1 0x0 DUP1 REVERT JUMPDEST POP GAS CALL ISZERO DUP1 ISZERO PUSH2 0x1C9C JUMPI RETURNDATASIZE PUSH1 0x0 DUP1 RETURNDATACOPY RETURNDATASIZE PUSH1 0x0 REVERT JUMPDEST POP POP POP POP DUP5 PUSH20 0xFFFFFFFFFFFFFFFFFFFFFFFFFFFFFFFFFFFFFFFF AND PUSH32 0xE74E5C9D4AC1FC33412485F18C159A0A391EFE287AB3FD271123F30E6BACF4E3 DUP3 TIMESTAMP PUSH1 0x40 MLOAD PUSH2 0x1CE8 SWAP3 SWAP2 SWAP1 PUSH2 0x2345 JUMP JUMPDEST PUSH1 0x40 MLOAD DUP1 SWAP2 SUB SWAP1 LOG2 JUMPDEST POP POP POP POP POP JUMP JUMPDEST PUSH1 0xD SLOAD DUP2 JUMP JUMPDEST CALLVALUE PUSH1 0x3 PUSH1 0x0 DUP3 DUP3 SLOAD PUSH2 0x1D10 SWAP2 SWAP1 PUSH2 0x26CD JUMP JUMPDEST SWAP3 POP POP DUP2 SWAP1 SSTORE POP JUMP JUMPDEST PUSH1 0xA PUSH1 0x20 MSTORE DUP1 PUSH1 0x0 MSTORE PUSH1 0x40 PUSH1 0x0 KECCAK256 PUSH1 0x0 SWAP2 POP SLOAD SWAP1 PUSH2 0x100 EXP SWAP1 DIV PUSH1 0xFF AND DUP2 JUMP JUMPDEST PUSH2 0x1D41 PUSH2 0x1EC4 JUMP JUMPDEST PUSH1 0x0 PUSH20 0xFFFFFFFFFFFFFFFFFFFFFFFFFFFFFFFFFFFFFFFF AND DUP2 PUSH20 0xFFFFFFFFFFFFFFFFFFFFFFFFFFFFFFFFFFFFFFFF AND SUB PUSH2 0x1DB0 JUMPI PUSH1 0x40 MLOAD PUSH32 0x8C379A000000000000000000000000000000000000000000000000000000000 DUP2 MSTORE PUSH1 0x4 ADD PUSH2 0x1DA7 SWAP1 PUSH2 0x2E2C JUMP JUMPDEST PUSH1 0x40 MLOAD DUP1 SWAP2 SUB SWAP1 REVERT JUMPDEST PUSH2 0x1DB9 DUP2 PUSH2 0x1F42 JUMP JUMPDEST POP JUMP JUMPDEST PUSH1 0x0 DUP1 PUSH9 0x56BC75E2D63100000 DUP4 LT ISZERO PUSH2 0x1E46 JUMPI PUSH1 0x0 PUSH9 0x56BC75E2D63100000 PUSH32 0xFFFFFFFFFFFFFFFFFFFFFFFFFFFFFFFFFFFFFFFFFFFFFFFFFFFFFFFFFFFFFFCE PUSH2 0x1E07 SWAP2 SWAP1 PUSH2 0x2E4C JUMP JUMPDEST SWAP1 POP PUSH1 0x0 PUSH1 0x64 DUP6 DUP4 PUSH2 0x1E19 SWAP2 SWAP1 PUSH2 0x2EB6 JUMP JUMPDEST PUSH2 0x1E23 SWAP2 SWAP1 PUSH2 0x29AC JUMP JUMPDEST SWAP1 POP PUSH1 0x64 DUP2 DUP7 PUSH2 0x1E33 SWAP2 SWAP1 PUSH2 0x2AA4 JUMP JUMPDEST PUSH2 0x1E3D SWAP2 SWAP1 PUSH2 0x2D60 JUMP JUMPDEST SWAP3 POP POP POP PUSH2 0x1E67 JUMP JUMPDEST PUSH9 0x56BC75E2D63100000 DUP4 LT PUSH2 0x1E66 JUMPI PUSH1 0x2 DUP4 PUSH2 0x1E63 SWAP2 SWAP1 PUSH2 0x2D60 JUMP JUMPDEST SWAP1 POP JUMPDEST JUMPDEST PUSH1 0x0 PUSH4 0x1E13380 DUP3 PUSH2 0x1E79 SWAP2 SWAP1 PUSH2 0x2D60 JUMP JUMPDEST SWAP1 POP PUSH2 0x1EBA PUSH1 0x40 MLOAD DUP1 PUSH1 0x40 ADD PUSH1 0x40 MSTORE DUP1 PUSH1 0x16 DUP2 MSTORE PUSH1 0x20 ADD PUSH32 0x696E746572657374416D6F756E745065725365633A2000000000000000000000 DUP2 MSTORE POP DUP3 PUSH2 0x2006 JUMP JUMPDEST DUP1 SWAP3 POP POP POP SWAP2 SWAP1 POP JUMP JUMPDEST PUSH2 0x1ECC PUSH2 0x2158 JUMP JUMPDEST PUSH20 0xFFFFFFFFFFFFFFFFFFFFFFFFFFFFFFFFFFFFFFFF AND PUSH2 0x1EEA PUSH2 0x12D8 JUMP JUMPDEST PUSH20 0xFFFFFFFFFFFFFFFFFFFFFFFFFFFFFFFFFFFFFFFF AND EQ PUSH2 0x1F40 JUMPI PUSH1 0x40 MLOAD PUSH32 0x8C379A000000000000000000000000000000000000000000000000000000000 DUP2 MSTORE PUSH1 0x4 ADD PUSH2 0x1F37 SWAP1 PUSH2 0x2F7A JUMP JUMPDEST PUSH1 0x40 MLOAD DUP1 SWAP2 SUB SWAP1 REVERT JUMPDEST JUMP JUMPDEST PUSH1 0x0 DUP1 PUSH1 0x0 SWAP1 SLOAD SWAP1 PUSH2 0x100 EXP SWAP1 DIV PUSH20 0xFFFFFFFFFFFFFFFFFFFFFFFFFFFFFFFFFFFFFFFF AND SWAP1 POP DUP2 PUSH1 0x0 DUP1 PUSH2 0x100 EXP DUP2 SLOAD DUP2 PUSH20 0xFFFFFFFFFFFFFFFFFFFFFFFFFFFFFFFFFFFFFFFF MUL NOT AND SWAP1 DUP4 PUSH20 0xFFFFFFFFFFFFFFFFFFFFFFFFFFFFFFFFFFFFFFFF AND MUL OR SWAP1 SSTORE POP DUP2 PUSH20 0xFFFFFFFFFFFFFFFFFFFFFFFFFFFFFFFFFFFFFFFF AND DUP2 PUSH20 0xFFFFFFFFFFFFFFFFFFFFFFFFFFFFFFFFFFFFFFFF AND PUSH32 0x8BE0079C531659141344CD1FD0A4F28419497F9722A3DAAFE3B4186F6B6457E0 PUSH1 0x40 MLOAD PUSH1 0x40 MLOAD DUP1 SWAP2 SUB SWAP1 LOG3 POP POP JUMP JUMPDEST PUSH2 0x209E DUP3 DUP3 PUSH1 0x40 MLOAD PUSH1 0x24 ADD PUSH2 0x201C SWAP3 SWAP2 SWAP1 PUSH2 0x2F9A JUMP JUMPDEST PUSH1 0x40 MLOAD PUSH1 0x20 DUP2 DUP4 SUB SUB DUP2 MSTORE SWAP1 PUSH1 0x40 MSTORE PUSH32 0xB60E72CC00000000000000000000000000000000000000000000000000000000 PUSH28 0xFFFFFFFFFFFFFFFFFFFFFFFFFFFFFFFFFFFFFFFFFFFFFFFFFFFFFFFF NOT AND PUSH1 0x20 DUP3 ADD DUP1 MLOAD PUSH28 0xFFFFFFFFFFFFFFFFFFFFFFFFFFFFFFFFFFFFFFFFFFFFFFFFFFFFFFFF DUP4 DUP2 DUP4 AND OR DUP4 MSTORE POP POP POP POP PUSH2 0x2160 JUMP JUMPDEST POP POP JUMP JUMPDEST PUSH1 0x0 DUP2 ISZERO PUSH2 0x20D4 JUMPI DUP3 PUSH1 0x3 SLOAD LT ISZERO PUSH2 0x20BA JUMPI PUSH1 0x3 SLOAD SWAP3 POP JUMPDEST DUP3 PUSH1 0x3 PUSH1 0x0 DUP3 DUP3 SLOAD PUSH2 0x20CC SWAP2 SWAP1 PUSH2 0x2793 JUMP JUMPDEST SWAP3 POP POP DUP2 SWAP1 SSTORE POP JUMPDEST PUSH1 0x0 DUP5 PUSH20 0xFFFFFFFFFFFFFFFFFFFFFFFFFFFFFFFFFFFFFFFF AND DUP5 PUSH1 0x40 MLOAD PUSH2 0x20FA SWAP1 PUSH2 0x2FFB JUMP JUMPDEST PUSH1 0x0 PUSH1 0x40 MLOAD DUP1 DUP4 SUB DUP2 DUP6 DUP8 GAS CALL SWAP3 POP POP POP RETURNDATASIZE DUP1 PUSH1 0x0 DUP2 EQ PUSH2 0x2137 JUMPI PUSH1 0x40 MLOAD SWAP2 POP PUSH1 0x1F NOT PUSH1 0x3F RETURNDATASIZE ADD AND DUP3 ADD PUSH1 0x40 MSTORE RETURNDATASIZE DUP3 MSTORE RETURNDATASIZE PUSH1 0x0 PUSH1 0x20 DUP5 ADD RETURNDATACOPY PUSH2 0x213C JUMP JUMPDEST PUSH1 0x60 SWAP2 POP JUMPDEST POP POP SWAP1 POP DUP1 ISZERO PUSH2 0x214F JUMPI DUP4 SWAP2 POP POP PUSH2 0x2151 JUMP JUMPDEST POP JUMPDEST SWAP4 SWAP3 POP POP POP JUMP JUMPDEST PUSH1 0x0 CALLER SWAP1 POP SWAP1 JUMP JUMPDEST PUSH2 0x2177 DUP2 PUSH2 0x216F PUSH2 0x217A PUSH2 0x219B JUMP JUMPDEST PUSH4 0xFFFFFFFF AND JUMP JUMPDEST POP JUMP JUMPDEST PUSH1 0x0 PUSH11 0x636F6E736F6C652E6C6F67 SWAP1 POP PUSH1 0x0 DUP1 DUP4 MLOAD PUSH1 0x20 DUP6 ADD DUP5 GAS STATICCALL POP POP POP JUMP JUMPDEST PUSH2 0x21A6 DUP2 SWAP1 POP SWAP2 SWAP1 POP JUMP JUMPDEST PUSH2 0x21AE PUSH2 0x3010 JUMP JUMPDEST JUMP JUMPDEST PUSH1 0x0 DUP2 SWAP1 POP SWAP2 SWAP1 POP JUMP JUMPDEST PUSH2 0x21C3 DUP2 PUSH2 0x21B0 JUMP JUMPDEST DUP3 MSTORE POP POP JUMP JUMPDEST PUSH1 0x0 PUSH1 0x20 DUP3 ADD SWAP1 POP PUSH2 0x21DE PUSH1 0x0 DUP4 ADD DUP5 PUSH2 0x21BA JUMP JUMPDEST SWAP3 SWAP2 POP POP JUMP JUMPDEST PUSH1 0x0 DUP1 REVERT JUMPDEST PUSH1 0x0 PUSH20 0xFFFFFFFFFFFFFFFFFFFFFFFFFFFFFFFFFFFFFFFF DUP3 AND SWAP1 POP SWAP2 SWAP1 POP JUMP JUMPDEST PUSH1 0x0 PUSH2 0x2214 DUP3 PUSH2 0x21E9 JUMP JUMPDEST SWAP1 POP SWAP2 SWAP1 POP JUMP JUMPDEST PUSH2 0x2224 DUP2 PUSH2 0x2209 JUMP JUMPDEST DUP2 EQ PUSH2 0x222F JUMPI PUSH1 0x0 DUP1 REVERT JUMPDEST POP JUMP JUMPDEST PUSH1 0x0 DUP2 CALLDATALOAD SWAP1 POP PUSH2 0x2241 DUP2 PUSH2 0x221B JUMP JUMPDEST SWAP3 SWAP2 POP POP JUMP JUMPDEST PUSH1 0x0 DUP2 ISZERO ISZERO SWAP1 POP SWAP2 SWAP1 POP JUMP JUMPDEST PUSH2 0x225C DUP2 PUSH2 0x2247 JUMP JUMPDEST DUP2 EQ PUSH2 0x2267 JUMPI PUSH1 0x0 DUP1 REVERT JUMPDEST POP JUMP JUMPDEST PUSH1 0x0 DUP2 CALLDATALOAD SWAP1 POP PUSH2 0x2279 DUP2 PUSH2 0x2253 JUMP JUMPDEST SWAP3 SWAP2 POP POP JUMP JUMPDEST PUSH1 0x0 DUP1 PUSH1 0x40 DUP4 DUP6 SUB SLT ISZERO PUSH2 0x2296 JUMPI PUSH2 0x2295 PUSH2 0x21E4 JUMP JUMPDEST JUMPDEST PUSH1 0x0 PUSH2 0x22A4 DUP6 DUP3 DUP7 ADD PUSH2 0x2232 JUMP JUMPDEST SWAP3 POP POP PUSH1 0x20 PUSH2 0x22B5 DUP6 DUP3 DUP7 ADD PUSH2 0x226A JUMP JUMPDEST SWAP2 POP POP SWAP3 POP SWAP3 SWAP1 POP JUMP JUMPDEST PUSH2 0x22C8 DUP2 PUSH2 0x21B0 JUMP JUMPDEST DUP2 EQ PUSH2 0x22D3 JUMPI PUSH1 0x0 DUP1 REVERT JUMPDEST POP JUMP JUMPDEST PUSH1 0x0 DUP2 CALLDATALOAD SWAP1 POP PUSH2 0x22E5 DUP2 PUSH2 0x22BF JUMP JUMPDEST SWAP3 SWAP2 POP POP JUMP JUMPDEST PUSH1 0x0 PUSH1 0x20 DUP3 DUP5 SUB SLT ISZERO PUSH2 0x2301 JUMPI PUSH2 0x2300 PUSH2 0x21E4 JUMP JUMPDEST JUMPDEST PUSH1 0x0 PUSH2 0x230F DUP5 DUP3 DUP6 ADD PUSH2 0x22D6 JUMP JUMPDEST SWAP2 POP POP SWAP3 SWAP2 POP POP JUMP JUMPDEST PUSH1 0x0 PUSH1 0x20 DUP3 DUP5 SUB SLT ISZERO PUSH2 0x232E JUMPI PUSH2 0x232D PUSH2 0x21E4 JUMP JUMPDEST JUMPDEST PUSH1 0x0 PUSH2 0x233C DUP5 DUP3 DUP6 ADD PUSH2 0x2232 JUMP JUMPDEST SWAP2 POP POP SWAP3 SWAP2 POP POP JUMP JUMPDEST PUSH1 0x0 PUSH1 0x40 DUP3 ADD SWAP1 POP PUSH2 0x235A PUSH1 0x0 DUP4 ADD DUP6 PUSH2 0x21BA JUMP JUMPDEST PUSH2 0x2367 PUSH1 0x20 DUP4 ADD DUP5 PUSH2 0x21BA JUMP JUMPDEST SWAP4 SWAP3 POP POP POP JUMP JUMPDEST PUSH1 0x0 DUP2 MLOAD SWAP1 POP SWAP2 SWAP1 POP JUMP JUMPDEST PUSH1 0x0 DUP3 DUP3 MSTORE PUSH1 0x20 DUP3 ADD SWAP1 POP SWAP3 SWAP2 POP POP JUMP JUMPDEST PUSH1 0x0 JUMPDEST DUP4 DUP2 LT ISZERO PUSH2 0x23A8 JUMPI DUP1 DUP3 ADD MLOAD DUP2 DUP5 ADD MSTORE PUSH1 0x20 DUP2 ADD SWAP1 POP PUSH2 0x238D JUMP JUMPDEST PUSH1 0x0 DUP5 DUP5 ADD MSTORE POP POP POP POP JUMP JUMPDEST PUSH1 0x0 PUSH1 0x1F NOT PUSH1 0x1F DUP4 ADD AND SWAP1 POP SWAP2 SWAP1 POP JUMP JUMPDEST PUSH1 0x0 PUSH2 0x23D0 DUP3 PUSH2 0x236E JUMP JUMPDEST PUSH2 0x23DA DUP2 DUP6 PUSH2 0x2379 JUMP JUMPDEST SWAP4 POP PUSH2 0x23EA DUP2 DUP6 PUSH1 0x20 DUP7 ADD PUSH2 0x238A JUMP JUMPDEST PUSH2 0x23F3 DUP2 PUSH2 0x23B4 JUMP JUMPDEST DUP5 ADD SWAP2 POP POP SWAP3 SWAP2 POP POP JUMP JUMPDEST PUSH1 0x0 PUSH1 0x20 DUP3 ADD SWAP1 POP DUP2 DUP2 SUB PUSH1 0x0 DUP4 ADD MSTORE PUSH2 0x2418 DUP2 DUP5 PUSH2 0x23C5 JUMP JUMPDEST SWAP1 POP SWAP3 SWAP2 POP POP JUMP JUMPDEST PUSH1 0x0 DUP2 MLOAD SWAP1 POP SWAP2 SWAP1 POP JUMP JUMPDEST PUSH1 0x0 DUP3 DUP3 MSTORE PUSH1 0x20 DUP3 ADD SWAP1 POP SWAP3 SWAP2 POP POP JUMP JUMPDEST PUSH1 0x0 DUP2 SWAP1 POP PUSH1 0x20 DUP3 ADD SWAP1 POP SWAP2 SWAP1 POP JUMP JUMPDEST PUSH2 0x2455 DUP2 PUSH2 0x21B0 JUMP JUMPDEST DUP3 MSTORE POP POP JUMP JUMPDEST PUSH1 0x0 PUSH2 0x2467 DUP4 DUP4 PUSH2 0x244C JUMP JUMPDEST PUSH1 0x20 DUP4 ADD SWAP1 POP SWAP3 SWAP2 POP POP JUMP JUMPDEST PUSH1 0x0 PUSH1 0x20 DUP3 ADD SWAP1 POP SWAP2 SWAP1 POP JUMP JUMPDEST PUSH1 0x0 PUSH2 0x248B DUP3 PUSH2 0x2420 JUMP JUMPDEST PUSH2 0x2495 DUP2 DUP6 PUSH2 0x242B JUMP JUMPDEST SWAP4 POP PUSH2 0x24A0 DUP4 PUSH2 0x243C JUMP JUMPDEST DUP1 PUSH1 0x0 JUMPDEST DUP4 DUP2 LT ISZERO PUSH2 0x24D1 JUMPI DUP2 MLOAD PUSH2 0x24B8 DUP9 DUP3 PUSH2 0x245B JUMP JUMPDEST SWAP8 POP PUSH2 0x24C3 DUP4 PUSH2 0x2473 JUMP JUMPDEST SWAP3 POP POP PUSH1 0x1 DUP2 ADD SWAP1 POP PUSH2 0x24A4 JUMP JUMPDEST POP DUP6 SWAP4 POP POP POP POP SWAP3 SWAP2 POP POP JUMP JUMPDEST PUSH1 0x0 DUP2 MLOAD SWAP1 POP SWAP2 SWAP1 POP JUMP JUMPDEST PUSH1 0x0 DUP3 DUP3 MSTORE PUSH1 0x20 DUP3 ADD SWAP1 POP SWAP3 SWAP2 POP POP JUMP JUMPDEST PUSH1 0x0 DUP2 SWAP1 POP PUSH1 0x20 DUP3 ADD SWAP1 POP SWAP2 SWAP1 POP JUMP JUMPDEST PUSH2 0x2513 DUP2 PUSH2 0x2209 JUMP JUMPDEST DUP3 MSTORE POP POP JUMP JUMPDEST PUSH1 0x0 PUSH2 0x2525 DUP4 DUP4 PUSH2 0x250A JUMP JUMPDEST PUSH1 0x20 DUP4 ADD SWAP1 POP SWAP3 SWAP2 POP POP JUMP JUMPDEST PUSH1 0x0 PUSH1 0x20 DUP3 ADD SWAP1 POP SWAP2 SWAP1 POP JUMP JUMPDEST PUSH1 0x0 PUSH2 0x2549 DUP3 PUSH2 0x24DE JUMP JUMPDEST PUSH2 0x2553 DUP2 DUP6 PUSH2 0x24E9 JUMP JUMPDEST SWAP4 POP PUSH2 0x255E DUP4 PUSH2 0x24FA JUMP JUMPDEST DUP1 PUSH1 0x0 JUMPDEST DUP4 DUP2 LT ISZERO PUSH2 0x258F JUMPI DUP2 MLOAD PUSH2 0x2576 DUP9 DUP3 PUSH2 0x2519 JUMP JUMPDEST SWAP8 POP PUSH2 0x2581 DUP4 PUSH2 0x2531 JUMP JUMPDEST SWAP3 POP POP PUSH1 0x1 DUP2 ADD SWAP1 POP PUSH2 0x2562 JUMP JUMPDEST POP DUP6 SWAP4 POP POP POP POP SWAP3 SWAP2 POP POP JUMP JUMPDEST PUSH1 0x0 PUSH1 0x40 DUP3 ADD SWAP1 POP DUP2 DUP2 SUB PUSH1 0x0 DUP4 ADD MSTORE PUSH2 0x25B6 DUP2 DUP6 PUSH2 0x2480 JUMP JUMPDEST SWAP1 POP DUP2 DUP2 SUB PUSH1 0x20 DUP4 ADD MSTORE PUSH2 0x25CA DUP2 DUP5 PUSH2 0x253E JUMP JUMPDEST SWAP1 POP SWAP4 SWAP3 POP POP POP JUMP JUMPDEST PUSH1 0x0 DUP1 PUSH1 0x40 DUP4 DUP6 SUB SLT ISZERO PUSH2 0x25EA JUMPI PUSH2 0x25E9 PUSH2 0x21E4 JUMP JUMPDEST JUMPDEST PUSH1 0x0 PUSH2 0x25F8 DUP6 DUP3 DUP7 ADD PUSH2 0x2232 JUMP JUMPDEST SWAP3 POP POP PUSH1 0x20 PUSH2 0x2609 DUP6 DUP3 DUP7 ADD PUSH2 0x22D6 JUMP JUMPDEST SWAP2 POP POP SWAP3 POP SWAP3 SWAP1 POP JUMP JUMPDEST PUSH2 0x261C DUP2 PUSH2 0x2247 JUMP JUMPDEST DUP3 MSTORE POP POP JUMP JUMPDEST PUSH1 0x0 PUSH1 0x20 DUP3 ADD SWAP1 POP PUSH2 0x2637 PUSH1 0x0 DUP4 ADD DUP5 PUSH2 0x2613 JUMP JUMPDEST SWAP3 SWAP2 POP POP JUMP JUMPDEST PUSH2 0x2646 DUP2 PUSH2 0x2209 JUMP JUMPDEST DUP3 MSTORE POP POP JUMP JUMPDEST PUSH1 0x0 PUSH1 0x20 DUP3 ADD SWAP1 POP PUSH2 0x2661 PUSH1 0x0 DUP4 ADD DUP5 PUSH2 0x263D JUMP JUMPDEST SWAP3 SWAP2 POP POP JUMP JUMPDEST PUSH1 0x0 PUSH1 0x40 DUP3 ADD SWAP1 POP DUP2 DUP2 SUB PUSH1 0x0 DUP4 ADD MSTORE PUSH2 0x2681 DUP2 DUP6 PUSH2 0x253E JUMP JUMPDEST SWAP1 POP DUP2 DUP2 SUB PUSH1 0x20 DUP4 ADD MSTORE PUSH2 0x2695 DUP2 DUP5 PUSH2 0x2480 JUMP JUMPDEST SWAP1 POP SWAP4 SWAP3 POP POP POP JUMP JUMPDEST PUSH32 0x4E487B7100000000000000000000000000000000000000000000000000000000 PUSH1 0x0 MSTORE PUSH1 0x11 PUSH1 0x4 MSTORE PUSH1 0x24 PUSH1 0x0 REVERT JUMPDEST PUSH1 0x0 PUSH2 0x26D8 DUP3 PUSH2 0x21B0 JUMP JUMPDEST SWAP2 POP PUSH2 0x26E3 DUP4 PUSH2 0x21B0 JUMP JUMPDEST SWAP3 POP DUP3 DUP3 ADD SWAP1 POP DUP1 DUP3 GT ISZERO PUSH2 0x26FB JUMPI PUSH2 0x26FA PUSH2 0x269E JUMP JUMPDEST JUMPDEST SWAP3 SWAP2 POP POP JUMP JUMPDEST PUSH32 0x796F752063616E277420756E7374616B652077697468696E2031646179206166 PUSH1 0x0 DUP3 ADD MSTORE PUSH32 0x74657220796F75206561726E2061207265776172640000000000000000000000 PUSH1 0x20 DUP3 ADD MSTORE POP JUMP JUMPDEST PUSH1 0x0 PUSH2 0x275D PUSH1 0x35 DUP4 PUSH2 0x2379 JUMP JUMPDEST SWAP2 POP PUSH2 0x2768 DUP3 PUSH2 0x2701 JUMP JUMPDEST PUSH1 0x40 DUP3 ADD SWAP1 POP SWAP2 SWAP1 POP JUMP JUMPDEST PUSH1 0x0 PUSH1 0x20 DUP3 ADD SWAP1 POP DUP2 DUP2 SUB PUSH1 0x0 DUP4 ADD MSTORE PUSH2 0x278C DUP2 PUSH2 0x2750 JUMP JUMPDEST SWAP1 POP SWAP2 SWAP1 POP JUMP JUMPDEST PUSH1 0x0 PUSH2 0x279E DUP3 PUSH2 0x21B0 JUMP JUMPDEST SWAP2 POP PUSH2 0x27A9 DUP4 PUSH2 0x21B0 JUMP JUMPDEST SWAP3 POP DUP3 DUP3 SUB SWAP1 POP DUP2 DUP2 GT ISZERO PUSH2 0x27C1 JUMPI PUSH2 0x27C0 PUSH2 0x269E JUMP JUMPDEST JUMPDEST SWAP3 SWAP2 POP POP JUMP JUMPDEST PUSH32 0x796F75206E65656420746F2073657420736563732077697468696E2033686F75 PUSH1 0x0 DUP3 ADD MSTORE PUSH32 0x7273000000000000000000000000000000000000000000000000000000000000 PUSH1 0x20 DUP3 ADD MSTORE POP JUMP JUMPDEST PUSH1 0x0 PUSH2 0x2823 PUSH1 0x22 DUP4 PUSH2 0x2379 JUMP JUMPDEST SWAP2 POP PUSH2 0x282E DUP3 PUSH2 0x27C7 JUMP JUMPDEST PUSH1 0x40 DUP3 ADD SWAP1 POP SWAP2 SWAP1 POP JUMP JUMPDEST PUSH1 0x0 PUSH1 0x20 DUP3 ADD SWAP1 POP DUP2 DUP2 SUB PUSH1 0x0 DUP4 ADD MSTORE PUSH2 0x2852 DUP2 PUSH2 0x2816 JUMP JUMPDEST SWAP1 POP SWAP2 SWAP1 POP JUMP JUMPDEST PUSH32 0x4E487B7100000000000000000000000000000000000000000000000000000000 PUSH1 0x0 MSTORE PUSH1 0x22 PUSH1 0x4 MSTORE PUSH1 0x24 PUSH1 0x0 REVERT JUMPDEST PUSH1 0x0 PUSH1 0x2 DUP3 DIV SWAP1 POP PUSH1 0x1 DUP3 AND DUP1 PUSH2 0x28A0 JUMPI PUSH1 0x7F DUP3 AND SWAP2 POP JUMPDEST PUSH1 0x20 DUP3 LT DUP2 SUB PUSH2 0x28B3 JUMPI PUSH2 0x28B2 PUSH2 0x2859 JUMP JUMPDEST JUMPDEST POP SWAP2 SWAP1 POP JUMP JUMPDEST PUSH32 0x4E487B7100000000000000000000000000000000000000000000000000000000 PUSH1 0x0 MSTORE PUSH1 0x41 PUSH1 0x4 MSTORE PUSH1 0x24 PUSH1 0x0 REVERT JUMPDEST PUSH32 0x4E487B7100000000000000000000000000000000000000000000000000000000 PUSH1 0x0 MSTORE PUSH1 0x32 PUSH1 0x4 MSTORE PUSH1 0x24 PUSH1 0x0 REVERT JUMPDEST PUSH1 0x0 PUSH2 0x2922 DUP3 PUSH2 0x21B0 JUMP JUMPDEST SWAP2 POP PUSH32 0xFFFFFFFFFFFFFFFFFFFFFFFFFFFFFFFFFFFFFFFFFFFFFFFFFFFFFFFFFFFFFFFF DUP3 SUB PUSH2 0x2954 JUMPI PUSH2 0x2953 PUSH2 0x269E JUMP JUMPDEST JUMPDEST PUSH1 0x1 DUP3 ADD SWAP1 POP SWAP2 SWAP1 POP JUMP JUMPDEST PUSH1 0x0 DUP2 SWAP1 POP SWAP2 SWAP1 POP JUMP JUMPDEST PUSH1 0x0 PUSH2 0x2974 DUP3 PUSH2 0x295F JUMP JUMPDEST SWAP2 POP PUSH2 0x297F DUP4 PUSH2 0x295F JUMP JUMPDEST SWAP3 POP DUP3 DUP3 SUB SWAP1 POP DUP2 DUP2 SLT PUSH1 0x0 DUP5 SLT AND DUP3 DUP3 SGT PUSH1 0x0 DUP6 SLT ISZERO AND OR ISZERO PUSH2 0x29A6 JUMPI PUSH2 0x29A5 PUSH2 0x269E JUMP JUMPDEST JUMPDEST SWAP3 SWAP2 POP POP JUMP JUMPDEST PUSH1 0x0 PUSH2 0x29B7 DUP3 PUSH2 0x295F JUMP JUMPDEST SWAP2 POP PUSH2 0x29C2 DUP4 PUSH2 0x295F JUMP JUMPDEST SWAP3 POP DUP3 DUP3 ADD SWAP1 POP DUP3 DUP2 SLT ISZERO PUSH1 0x0 DUP4 SLT AND DUP4 DUP3 SLT PUSH1 0x0 DUP5 SLT ISZERO AND OR ISZERO PUSH2 0x29EA JUMPI PUSH2 0x29E9 PUSH2 0x269E JUMP JUMPDEST JUMPDEST SWAP3 SWAP2 POP POP JUMP JUMPDEST PUSH1 0x0 PUSH2 0x29FB DUP3 PUSH2 0x295F JUMP JUMPDEST SWAP2 POP PUSH32 0x8000000000000000000000000000000000000000000000000000000000000000 DUP3 SUB PUSH2 0x2A2D JUMPI PUSH2 0x2A2C PUSH2 0x269E JUMP JUMPDEST JUMPDEST PUSH1 0x1 DUP3 SUB SWAP1 POP SWAP2 SWAP1 POP JUMP JUMPDEST PUSH32 0x6974277320706175736564000000000000000000000000000000000000000000 PUSH1 0x0 DUP3 ADD MSTORE POP JUMP JUMPDEST PUSH1 0x0 PUSH2 0x2A6E PUSH1 0xB DUP4 PUSH2 0x2379 JUMP JUMPDEST SWAP2 POP PUSH2 0x2A79 DUP3 PUSH2 0x2A38 JUMP JUMPDEST PUSH1 0x20 DUP3 ADD SWAP1 POP SWAP2 SWAP1 POP JUMP JUMPDEST PUSH1 0x0 PUSH1 0x20 DUP3 ADD SWAP1 POP DUP2 DUP2 SUB PUSH1 0x0 DUP4 ADD MSTORE PUSH2 0x2A9D DUP2 PUSH2 0x2A61 JUMP JUMPDEST SWAP1 POP SWAP2 SWAP1 POP JUMP JUMPDEST PUSH1 0x0 PUSH2 0x2AAF DUP3 PUSH2 0x21B0 JUMP JUMPDEST SWAP2 POP PUSH2 0x2ABA DUP4 PUSH2 0x21B0 JUMP JUMPDEST SWAP3 POP DUP3 DUP3 MUL PUSH2 0x2AC8 DUP2 PUSH2 0x21B0 JUMP JUMPDEST SWAP2 POP DUP3 DUP3 DIV DUP5 EQ DUP4 ISZERO OR PUSH2 0x2ADF JUMPI PUSH2 0x2ADE PUSH2 0x269E JUMP JUMPDEST JUMPDEST POP SWAP3 SWAP2 POP POP JUMP JUMPDEST PUSH1 0x0 PUSH1 0x60 DUP3 ADD SWAP1 POP PUSH2 0x2AFB PUSH1 0x0 DUP4 ADD DUP7 PUSH2 0x21BA JUMP JUMPDEST PUSH2 0x2B08 PUSH1 0x20 DUP4 ADD DUP6 PUSH2 0x21BA JUMP JUMPDEST PUSH2 0x2B15 PUSH1 0x40 DUP4 ADD DUP5 PUSH2 0x21BA JUMP JUMPDEST SWAP5 SWAP4 POP POP POP POP JUMP JUMPDEST PUSH32 0x696E73756666696369656E7420616D6F756E7400000000000000000000000000 PUSH1 0x0 DUP3 ADD MSTORE POP JUMP JUMPDEST PUSH1 0x0 PUSH2 0x2B53 PUSH1 0x13 DUP4 PUSH2 0x2379 JUMP JUMPDEST SWAP2 POP PUSH2 0x2B5E DUP3 PUSH2 0x2B1D JUMP JUMPDEST PUSH1 0x20 DUP3 ADD SWAP1 POP SWAP2 SWAP1 POP JUMP JUMPDEST PUSH1 0x0 PUSH1 0x20 DUP3 ADD SWAP1 POP DUP2 DUP2 SUB PUSH1 0x0 DUP4 ADD MSTORE PUSH2 0x2B82 DUP2 PUSH2 0x2B46 JUMP JUMPDEST SWAP1 POP SWAP2 SWAP1 POP JUMP JUMPDEST PUSH32 0x6F7574206F662072616E67650000000000000000000000000000000000000000 PUSH1 0x0 DUP3 ADD MSTORE POP JUMP JUMPDEST PUSH1 0x0 PUSH2 0x2BBF PUSH1 0xC DUP4 PUSH2 0x2379 JUMP JUMPDEST SWAP2 POP PUSH2 0x2BCA DUP3 PUSH2 0x2B89 JUMP JUMPDEST PUSH1 0x20 DUP3 ADD SWAP1 POP SWAP2 SWAP1 POP JUMP JUMPDEST PUSH1 0x0 PUSH1 0x20 DUP3 ADD SWAP1 POP DUP2 DUP2 SUB PUSH1 0x0 DUP4 ADD MSTORE PUSH2 0x2BEE DUP2 PUSH2 0x2BB2 JUMP JUMPDEST SWAP1 POP SWAP2 SWAP1 POP JUMP JUMPDEST PUSH1 0x0 DUP2 SWAP1 POP DUP2 PUSH1 0x0 MSTORE PUSH1 0x20 PUSH1 0x0 KECCAK256 SWAP1 POP SWAP2 SWAP1 POP JUMP JUMPDEST PUSH1 0x0 DUP2 SLOAD PUSH2 0x2C17 DUP2 PUSH2 0x2888 JUMP JUMPDEST PUSH2 0x2C21 DUP2 DUP7 PUSH2 0x2379 JUMP JUMPDEST SWAP5 POP PUSH1 0x1 DUP3 AND PUSH1 0x0 DUP2 EQ PUSH2 0x2C3C JUMPI PUSH1 0x1 DUP2 EQ PUSH2 0x2C52 JUMPI PUSH2 0x2C85 JUMP JUMPDEST PUSH1 0xFF NOT DUP4 AND DUP7 MSTORE DUP2 ISZERO ISZERO PUSH1 0x20 MUL DUP7 ADD SWAP4 POP PUSH2 0x2C85 JUMP JUMPDEST PUSH2 0x2C5B DUP6 PUSH2 0x2BF5 JUMP JUMPDEST PUSH1 0x0 JUMPDEST DUP4 DUP2 LT ISZERO PUSH2 0x2C7D JUMPI DUP2 SLOAD DUP2 DUP10 ADD MSTORE PUSH1 0x1 DUP3 ADD SWAP2 POP PUSH1 0x20 DUP2 ADD SWAP1 POP PUSH2 0x2C5E JUMP JUMPDEST DUP1 DUP9 ADD SWAP6 POP POP POP JUMPDEST POP POP POP SWAP3 SWAP2 POP POP JUMP JUMPDEST PUSH1 0x0 PUSH1 0x40 DUP3 ADD SWAP1 POP PUSH2 0x2CA3 PUSH1 0x0 DUP4 ADD DUP6 PUSH2 0x263D JUMP JUMPDEST DUP2 DUP2 SUB PUSH1 0x20 DUP4 ADD MSTORE PUSH2 0x2CB5 DUP2 DUP5 PUSH2 0x2C0A JUMP JUMPDEST SWAP1 POP SWAP4 SWAP3 POP POP POP JUMP JUMPDEST PUSH1 0x0 DUP2 MLOAD SWAP1 POP PUSH2 0x2CCD DUP2 PUSH2 0x22BF JUMP JUMPDEST SWAP3 SWAP2 POP POP JUMP JUMPDEST PUSH1 0x0 PUSH1 0x20 DUP3 DUP5 SUB SLT ISZERO PUSH2 0x2CE9 JUMPI PUSH2 0x2CE8 PUSH2 0x21E4 JUMP JUMPDEST JUMPDEST PUSH1 0x0 PUSH2 0x2CF7 DUP5 DUP3 DUP6 ADD PUSH2 0x2CBE JUMP JUMPDEST SWAP2 POP POP SWAP3 SWAP2 POP POP JUMP JUMPDEST PUSH32 0x4E487B7100000000000000000000000000000000000000000000000000000000 PUSH1 0x0 MSTORE PUSH1 0x12 PUSH1 0x4 MSTORE PUSH1 0x24 PUSH1 0x0 REVERT JUMPDEST PUSH1 0x0 PUSH2 0x2D3A DUP3 PUSH2 0x21B0 JUMP JUMPDEST SWAP2 POP PUSH2 0x2D45 DUP4 PUSH2 0x21B0 JUMP JUMPDEST SWAP3 POP DUP3 PUSH2 0x2D55 JUMPI PUSH2 0x2D54 PUSH2 0x2D00 JUMP JUMPDEST JUMPDEST DUP3 DUP3 MOD SWAP1 POP SWAP3 SWAP2 POP POP JUMP JUMPDEST PUSH1 0x0 PUSH2 0x2D6B DUP3 PUSH2 0x21B0 JUMP JUMPDEST SWAP2 POP PUSH2 0x2D76 DUP4 PUSH2 0x21B0 JUMP JUMPDEST SWAP3 POP DUP3 PUSH2 0x2D86 JUMPI PUSH2 0x2D85 PUSH2 0x2D00 JUMP JUMPDEST JUMPDEST DUP3 DUP3 DIV SWAP1 POP SWAP3 SWAP2 POP POP JUMP JUMPDEST PUSH1 0x0 PUSH1 0x40 DUP3 ADD SWAP1 POP PUSH2 0x2DA6 PUSH1 0x0 DUP4 ADD DUP6 PUSH2 0x263D JUMP JUMPDEST PUSH2 0x2DB3 PUSH1 0x20 DUP4 ADD DUP5 PUSH2 0x21BA JUMP JUMPDEST SWAP4 SWAP3 POP POP POP JUMP JUMPDEST PUSH32 0x4F776E61626C653A206E6577206F776E657220697320746865207A65726F2061 PUSH1 0x0 DUP3 ADD MSTORE PUSH32 0x6464726573730000000000000000000000000000000000000000000000000000 PUSH1 0x20 DUP3 ADD MSTORE POP JUMP JUMPDEST PUSH1 0x0 PUSH2 0x2E16 PUSH1 0x26 DUP4 PUSH2 0x2379 JUMP JUMPDEST SWAP2 POP PUSH2 0x2E21 DUP3 PUSH2 0x2DBA JUMP JUMPDEST PUSH1 0x40 DUP3 ADD SWAP1 POP SWAP2 SWAP1 POP JUMP JUMPDEST PUSH1 0x0 PUSH1 0x20 DUP3 ADD SWAP1 POP DUP2 DUP2 SUB PUSH1 0x0 DUP4 ADD MSTORE PUSH2 0x2E45 DUP2 PUSH2 0x2E09 JUMP JUMPDEST SWAP1 POP SWAP2 SWAP1 POP JUMP JUMPDEST PUSH1 0x0 PUSH2 0x2E57 DUP3 PUSH2 0x295F JUMP JUMPDEST SWAP2 POP PUSH2 0x2E62 DUP4 PUSH2 0x295F JUMP JUMPDEST SWAP3 POP DUP3 PUSH2 0x2E72 JUMPI PUSH2 0x2E71 PUSH2 0x2D00 JUMP JUMPDEST JUMPDEST PUSH1 0x1 PUSH1 0x0 SUB DUP4 EQ PUSH32 0x8000000000000000000000000000000000000000000000000000000000000000 DUP4 EQ AND ISZERO PUSH2 0x2EAB JUMPI PUSH2 0x2EAA PUSH2 0x269E JUMP JUMPDEST JUMPDEST DUP3 DUP3 SDIV SWAP1 POP SWAP3 SWAP2 POP POP JUMP JUMPDEST PUSH1 0x0 PUSH2 0x2EC1 DUP3 PUSH2 0x295F JUMP JUMPDEST SWAP2 POP PUSH2 0x2ECC DUP4 PUSH2 0x295F JUMP JUMPDEST SWAP3 POP DUP3 DUP3 MUL PUSH2 0x2EDA DUP2 PUSH2 0x295F JUMP JUMPDEST SWAP2 POP PUSH32 0x8000000000000000000000000000000000000000000000000000000000000000 DUP5 EQ PUSH1 0x0 DUP5 SLT AND ISZERO PUSH2 0x2F12 JUMPI PUSH2 0x2F11 PUSH2 0x269E JUMP JUMPDEST JUMPDEST DUP3 DUP3 SDIV DUP5 EQ DUP4 ISZERO OR PUSH2 0x2F27 JUMPI PUSH2 0x2F26 PUSH2 0x269E JUMP JUMPDEST JUMPDEST POP SWAP3 SWAP2 POP POP JUMP JUMPDEST PUSH32 0x4F776E61626C653A2063616C6C6572206973206E6F7420746865206F776E6572 PUSH1 0x0 DUP3 ADD MSTORE POP JUMP JUMPDEST PUSH1 0x0 PUSH2 0x2F64 PUSH1 0x20 DUP4 PUSH2 0x2379 JUMP JUMPDEST SWAP2 POP PUSH2 0x2F6F DUP3 PUSH2 0x2F2E JUMP JUMPDEST PUSH1 0x20 DUP3 ADD SWAP1 POP SWAP2 SWAP1 POP JUMP JUMPDEST PUSH1 0x0 PUSH1 0x20 DUP3 ADD SWAP1 POP DUP2 DUP2 SUB PUSH1 0x0 DUP4 ADD MSTORE PUSH2 0x2F93 DUP2 PUSH2 0x2F57 JUMP JUMPDEST SWAP1 POP SWAP2 SWAP1 POP JUMP JUMPDEST PUSH1 0x0 PUSH1 0x40 DUP3 ADD SWAP1 POP DUP2 DUP2 SUB PUSH1 0x0 DUP4 ADD MSTORE PUSH2 0x2FB4 DUP2 DUP6 PUSH2 0x23C5 JUMP JUMPDEST SWAP1 POP PUSH2 0x2FC3 PUSH1 0x20 DUP4 ADD DUP5 PUSH2 0x21BA JUMP JUMPDEST SWAP4 SWAP3 POP POP POP JUMP JUMPDEST PUSH1 0x0 DUP2 SWAP1 POP SWAP3 SWAP2 POP POP JUMP JUMPDEST POP JUMP JUMPDEST PUSH1 0x0 PUSH2 0x2FE5 PUSH1 0x0 DUP4 PUSH2 0x2FCA JUMP JUMPDEST SWAP2 POP PUSH2 0x2FF0 DUP3 PUSH2 0x2FD5 JUMP JUMPDEST PUSH1 0x0 DUP3 ADD SWAP1 POP SWAP2 SWAP1 POP JUMP JUMPDEST PUSH1 0x0 PUSH2 0x3006 DUP3 PUSH2 0x2FD8 JUMP JUMPDEST SWAP2 POP DUP2 SWAP1 POP SWAP2 SWAP1 POP JUMP JUMPDEST PUSH32 0x4E487B7100000000000000000000000000000000000000000000000000000000 PUSH1 0x0 MSTORE PUSH1 0x51 PUSH1 0x4 MSTORE PUSH1 0x24 PUSH1 0x0 REVERT INVALID LOG2 PUSH5 0x6970667358 0x22 SLT KECCAK256 ADDMOD 0xE6 0xAF PUSH8 0x62E52FC305CC1207 CALLDATASIZE 0xEC DELEGATECALL DUP14 CREATE 0xBB PUSH32 0x35BC120A5857DABE33D8C133FA64736F6C63430008120033697066733A2F2F73 PUSH9 0x613235366861736856 PUSH2 0x6C75 PUSH6 0x2F73616D706C PUSH6 0x312E6A736F6E PUSH10 0x7066733A2F2F73686132 CALLDATALOAD CALLDATASIZE PUSH9 0x61736856616C75652F PUSH20 0x616D706C65332E6A736F6E697066733A2F2F7368 PUSH2 0x3235 CALLDATASIZE PUSH9 0x61736856616C75652F PUSH20 0x616D706C65322E6A736F6E000000000000000000 "
		},
		"gasEstimates": {
			"creation": {
				"codeDepositCost": "2481000",
				"executionCost": "infinite",
				"totalCost": "infinite"
			},
			"external": {
				"DepositUserNum()": "2556",
				"blackLists(address)": "2911",
				"calcInterestPerSecond(uint256)": "infinite",
				"checkLeaderRankIn(address,uint256)": "infinite",
				"claimInterest(address)": "infinite",
				"claimReward(address)": "infinite",
				"deposit()": "infinite",
				"depositPotMoney()": "infinite",
				"deposited(address)": "infinite",
				"getUserBalance(address)": "infinite",
				"indexCountForNftMint()": "2476",
				"invokeSidecar(uint256)": "infinite",
				"isNotPaused()": "2769",
				"leadersCount()": "2519",
				"nftHolders(address)": "2890",
				"nftTokenURIBundle(uint256)": "infinite",
				"owner()": "2568",
				"pause()": "28981",
				"potMoney()": "2496",
				"renounceOwnership()": "30488",
				"setBlacklist(address,bool)": "27324",
				"showLeaders(uint256)": "infinite",
				"sortDescending()": "infinite",
				"stake(uint256)": "infinite",
				"staked(address)": "infinite",
				"transferOwnership(address)": "30832",
				"unstake(uint256)": "infinite",
				"untilSidecar()": "2540",
				"withdraw(uint256)": "infinite",
				"withdrawPotMoney(uint256)": "infinite"
			},
			"internal": {
				"ethTransfer(address payable,uint256,bool)": "infinite"
			}
		},
		"methodIdentifiers": {
			"DepositUserNum()": "8a62f1ca",
			"blackLists(address)": "e392af3f",
			"calcInterestPerSecond(uint256)": "fb8e7835",
			"checkLeaderRankIn(address,uint256)": "6ee5a061",
			"claimInterest(address)": "88d742c2",
			"claimReward(address)": "d279c191",
			"deposit()": "d0e30db0",
			"depositPotMoney()": "daa3ea75",
			"deposited(address)": "cb13cddb",
			"getUserBalance(address)": "47734892",
			"indexCountForNftMint()": "12ce31ef",
			"invokeSidecar(uint256)": "56144ab5",
			"isNotPaused()": "7acf4892",
			"leadersCount()": "930efb71",
			"nftHolders(address)": "7df124a1",
			"nftTokenURIBundle(uint256)": "6227c207",
			"owner()": "8da5cb5b",
			"pause()": "8456cb59",
			"potMoney()": "a04c82fb",
			"renounceOwnership()": "715018a6",
			"setBlacklist(address,bool)": "153b0d1e",
			"showLeaders(uint256)": "b8f59c80",
			"sortDescending()": "6c916e43",
			"stake(uint256)": "a694fc3a",
			"staked(address)": "98807d84",
			"transferOwnership(address)": "f2fde38b",
			"unstake(uint256)": "2e17de78",
			"untilSidecar()": "d76a0533",
			"withdraw(uint256)": "2e1a7d4d",
			"withdrawPotMoney(uint256)": "92586c34"
		}
	},
	"abi": [
		{
			"inputs": [
				{
					"internalType": "address",
					"name": "rewardToken_",
					"type": "address"
				},
				{
					"internalType": "address",
					"name": "rewardNft_",
					"type": "address"
				}
			],
			"stateMutability": "nonpayable",
			"type": "constructor"
		},
		{
			"anonymous": false,
			"inputs": [
				{
					"indexed": true,
					"internalType": "address",
					"name": "user",
					"type": "address"
				},
				{
					"indexed": false,
					"internalType": "uint256",
					"name": "reward",
					"type": "uint256"
				},
				{
					"indexed": false,
					"internalType": "uint256",
					"name": "canSend",
					"type": "uint256"
				},
				{
					"indexed": false,
					"internalType": "uint256",
					"name": "epoch",
					"type": "uint256"
				}
			],
			"name": "ClaimInterest",
			"type": "event"
		},
		{
			"anonymous": false,
			"inputs": [
				{
					"indexed": true,
					"internalType": "address",
					"name": "user",
					"type": "address"
				},
				{
					"indexed": false,
					"internalType": "uint256",
					"name": "reward",
					"type": "uint256"
				},
				{
					"indexed": false,
					"internalType": "uint256",
					"name": "epoch",
					"type": "uint256"
				}
			],
			"name": "ClaimReward",
			"type": "event"
		},
		{
			"anonymous": false,
			"inputs": [
				{
					"indexed": true,
					"internalType": "address",
					"name": "user",
					"type": "address"
				},
				{
					"indexed": false,
					"internalType": "uint256",
					"name": "amount",
					"type": "uint256"
				},
				{
					"indexed": false,
					"internalType": "uint256",
					"name": "epoch",
					"type": "uint256"
				}
			],
			"name": "Deposit",
			"type": "event"
		},
		{
			"anonymous": false,
			"inputs": [
				{
					"indexed": true,
					"internalType": "address",
					"name": "previousOwner",
					"type": "address"
				},
				{
					"indexed": true,
					"internalType": "address",
					"name": "newOwner",
					"type": "address"
				}
			],
			"name": "OwnershipTransferred",
			"type": "event"
		},
		{
			"anonymous": false,
			"inputs": [
				{
					"indexed": true,
					"internalType": "address",
					"name": "user",
					"type": "address"
				},
				{
					"indexed": false,
					"internalType": "uint256",
					"name": "amount",
					"type": "uint256"
				},
				{
					"indexed": false,
					"internalType": "uint256",
					"name": "epoch",
					"type": "uint256"
				}
			],
			"name": "Stake",
			"type": "event"
		},
		{
			"anonymous": false,
			"inputs": [
				{
					"indexed": true,
					"internalType": "address",
					"name": "user",
					"type": "address"
				},
				{
					"indexed": false,
					"internalType": "uint256",
					"name": "amount",
					"type": "uint256"
				},
				{
					"indexed": false,
					"internalType": "uint256",
					"name": "epoch",
					"type": "uint256"
				}
			],
			"name": "Unstake",
			"type": "event"
		},
		{
			"anonymous": false,
			"inputs": [
				{
					"indexed": true,
					"internalType": "address",
					"name": "user",
					"type": "address"
				},
				{
					"indexed": false,
					"internalType": "uint256",
					"name": "amount",
					"type": "uint256"
				},
				{
					"indexed": false,
					"internalType": "uint256",
					"name": "epoch",
					"type": "uint256"
				}
			],
			"name": "Withdraw",
			"type": "event"
		},
		{
			"inputs": [],
			"name": "DepositUserNum",
			"outputs": [
				{
					"internalType": "uint256",
					"name": "",
					"type": "uint256"
				}
			],
			"stateMutability": "view",
			"type": "function"
		},
		{
			"inputs": [
				{
					"internalType": "address",
					"name": "",
					"type": "address"
				}
			],
			"name": "blackLists",
			"outputs": [
				{
					"internalType": "bool",
					"name": "",
					"type": "bool"
				}
			],
			"stateMutability": "view",
			"type": "function"
		},
		{
			"inputs": [
				{
					"internalType": "uint256",
					"name": "amount",
					"type": "uint256"
				}
			],
			"name": "calcInterestPerSecond",
			"outputs": [
				{
					"internalType": "uint256",
					"name": "",
					"type": "uint256"
				}
			],
			"stateMutability": "pure",
			"type": "function"
		},
		{
			"inputs": [
				{
					"internalType": "address",
					"name": "user",
					"type": "address"
				},
				{
					"internalType": "uint256",
					"name": "bottom",
					"type": "uint256"
				}
			],
			"name": "checkLeaderRankIn",
			"outputs": [
				{
					"internalType": "bool",
					"name": "",
					"type": "bool"
				}
			],
			"stateMutability": "view",
			"type": "function"
		},
		{
			"inputs": [
				{
					"internalType": "address",
					"name": "user",
					"type": "address"
				}
			],
			"name": "claimInterest",
			"outputs": [],
			"stateMutability": "nonpayable",
			"type": "function"
		},
		{
			"inputs": [
				{
					"internalType": "address",
					"name": "user",
					"type": "address"
				}
			],
			"name": "claimReward",
			"outputs": [],
			"stateMutability": "nonpayable",
			"type": "function"
		},
		{
			"inputs": [],
			"name": "deposit",
			"outputs": [],
			"stateMutability": "payable",
			"type": "function"
		},
		{
			"inputs": [],
			"name": "depositPotMoney",
			"outputs": [],
			"stateMutability": "payable",
			"type": "function"
		},
		{
			"inputs": [
				{
					"internalType": "address",
					"name": "",
					"type": "address"
				}
			],
			"name": "deposited",
			"outputs": [
				{
					"internalType": "uint256",
					"name": "balance",
					"type": "uint256"
				},
				{
					"internalType": "uint256",
					"name": "claimedAt",
					"type": "uint256"
				}
			],
			"stateMutability": "view",
			"type": "function"
		},
		{
			"inputs": [
				{
					"internalType": "address",
					"name": "user",
					"type": "address"
				}
			],
			"name": "getUserBalance",
			"outputs": [
				{
					"internalType": "uint256",
					"name": "depositBalance",
					"type": "uint256"
				},
				{
					"internalType": "uint256",
					"name": "stakeBalance",
					"type": "uint256"
				}
			],
			"stateMutability": "view",
			"type": "function"
		},
		{
			"inputs": [],
			"name": "indexCountForNftMint",
			"outputs": [
				{
					"internalType": "uint256",
					"name": "",
					"type": "uint256"
				}
			],
			"stateMutability": "view",
			"type": "function"
		},
		{
			"inputs": [
				{
					"internalType": "uint256",
					"name": "secs",
					"type": "uint256"
				}
			],
			"name": "invokeSidecar",
			"outputs": [],
			"stateMutability": "nonpayable",
			"type": "function"
		},
		{
			"inputs": [],
			"name": "isNotPaused",
			"outputs": [
				{
					"internalType": "bool",
					"name": "",
					"type": "bool"
				}
			],
			"stateMutability": "view",
			"type": "function"
		},
		{
			"inputs": [],
			"name": "leadersCount",
			"outputs": [
				{
					"internalType": "uint256",
					"name": "",
					"type": "uint256"
				}
			],
			"stateMutability": "view",
			"type": "function"
		},
		{
			"inputs": [
				{
					"internalType": "address",
					"name": "",
					"type": "address"
				}
			],
			"name": "nftHolders",
			"outputs": [
				{
					"internalType": "bool",
					"name": "",
					"type": "bool"
				}
			],
			"stateMutability": "view",
			"type": "function"
		},
		{
			"inputs": [
				{
					"internalType": "uint256",
					"name": "",
					"type": "uint256"
				}
			],
			"name": "nftTokenURIBundle",
			"outputs": [
				{
					"internalType": "string",
					"name": "",
					"type": "string"
				}
			],
			"stateMutability": "view",
			"type": "function"
		},
		{
			"inputs": [],
			"name": "owner",
			"outputs": [
				{
					"internalType": "address",
					"name": "",
					"type": "address"
				}
			],
			"stateMutability": "view",
			"type": "function"
		},
		{
			"inputs": [],
			"name": "pause",
			"outputs": [],
			"stateMutability": "nonpayable",
			"type": "function"
		},
		{
			"inputs": [],
			"name": "potMoney",
			"outputs": [
				{
					"internalType": "uint256",
					"name": "",
					"type": "uint256"
				}
			],
			"stateMutability": "view",
			"type": "function"
		},
		{
			"inputs": [],
			"name": "renounceOwnership",
			"outputs": [],
			"stateMutability": "nonpayable",
			"type": "function"
		},
		{
			"inputs": [
				{
					"internalType": "address",
					"name": "user",
					"type": "address"
				},
				{
					"internalType": "bool",
					"name": "status",
					"type": "bool"
				}
			],
			"name": "setBlacklist",
			"outputs": [],
			"stateMutability": "nonpayable",
			"type": "function"
		},
		{
			"inputs": [
				{
					"internalType": "uint256",
					"name": "topN",
					"type": "uint256"
				}
			],
			"name": "showLeaders",
			"outputs": [
				{
					"internalType": "address[]",
					"name": "users_",
					"type": "address[]"
				},
				{
					"internalType": "uint256[]",
					"name": "amounts_",
					"type": "uint256[]"
				}
			],
			"stateMutability": "view",
			"type": "function"
		},
		{
			"inputs": [],
			"name": "sortDescending",
			"outputs": [
				{
					"internalType": "uint256[]",
					"name": "depositedBalancesArr",
					"type": "uint256[]"
				},
				{
					"internalType": "address[]",
					"name": "depositedUsersArr",
					"type": "address[]"
				}
			],
			"stateMutability": "view",
			"type": "function"
		},
		{
			"inputs": [
				{
					"internalType": "uint256",
					"name": "amount",
					"type": "uint256"
				}
			],
			"name": "stake",
			"outputs": [],
			"stateMutability": "nonpayable",
			"type": "function"
		},
		{
			"inputs": [
				{
					"internalType": "address",
					"name": "",
					"type": "address"
				}
			],
			"name": "staked",
			"outputs": [
				{
					"internalType": "uint256",
					"name": "balance",
					"type": "uint256"
				},
				{
					"internalType": "uint256",
					"name": "claimedAt",
					"type": "uint256"
				}
			],
			"stateMutability": "view",
			"type": "function"
		},
		{
			"inputs": [
				{
					"internalType": "address",
					"name": "newOwner",
					"type": "address"
				}
			],
			"name": "transferOwnership",
			"outputs": [],
			"stateMutability": "nonpayable",
			"type": "function"
		},
		{
			"inputs": [
				{
					"internalType": "uint256",
					"name": "amount",
					"type": "uint256"
				}
			],
			"name": "unstake",
			"outputs": [],
			"stateMutability": "nonpayable",
			"type": "function"
		},
		{
			"inputs": [],
			"name": "untilSidecar",
			"outputs": [
				{
					"internalType": "uint256",
					"name": "",
					"type": "uint256"
				}
			],
			"stateMutability": "view",
			"type": "function"
		},
		{
			"inputs": [
				{
					"internalType": "uint256",
					"name": "amount",
					"type": "uint256"
				}
			],
			"name": "withdraw",
			"outputs": [],
			"stateMutability": "nonpayable",
			"type": "function"
		},
		{
			"inputs": [
				{
					"internalType": "uint256",
					"name": "amount",
					"type": "uint256"
				}
			],
			"name": "withdrawPotMoney",
			"outputs": [],
			"stateMutability": "nonpayable",
			"type": "function"
		}
	]
}