{
  "_format": "hh-sol-artifact-1",
  "contractName": "Bank",
  "sourceName": "contracts/Bank.sol",
  "abi": [
    {
      "inputs": [
        {
          "internalType": "address",
          "name": "rewardToken_",
          "type": "address"
        },
        {
          "internalType": "address",
          "name": "rewardNft_",
          "type": "address"
        }
      ],
      "stateMutability": "nonpayable",
      "type": "constructor"
    },
    {
      "anonymous": false,
      "inputs": [
        {
          "indexed": true,
          "internalType": "address",
          "name": "user",
          "type": "address"
        },
        {
          "indexed": false,
          "internalType": "uint256",
          "name": "reward",
          "type": "uint256"
        },
        {
          "indexed": false,
          "internalType": "uint256",
          "name": "canSend",
          "type": "uint256"
        },
        {
          "indexed": false,
          "internalType": "uint256",
          "name": "epoch",
          "type": "uint256"
        }
      ],
      "name": "ClaimInterest",
      "type": "event"
    },
    {
      "anonymous": false,
      "inputs": [
        {
          "indexed": true,
          "internalType": "address",
          "name": "user",
          "type": "address"
        },
        {
          "indexed": false,
          "internalType": "uint256",
          "name": "reward",
          "type": "uint256"
        },
        {
          "indexed": false,
          "internalType": "uint256",
          "name": "epoch",
          "type": "uint256"
        }
      ],
      "name": "ClaimReward",
      "type": "event"
    },
    {
      "anonymous": false,
      "inputs": [
        {
          "indexed": true,
          "internalType": "address",
          "name": "user",
          "type": "address"
        },
        {
          "indexed": false,
          "internalType": "uint256",
          "name": "amount",
          "type": "uint256"
        },
        {
          "indexed": false,
          "internalType": "uint256",
          "name": "epoch",
          "type": "uint256"
        }
      ],
      "name": "Deposit",
      "type": "event"
    },
    {
      "anonymous": false,
      "inputs": [
        {
          "indexed": true,
          "internalType": "address",
          "name": "previousOwner",
          "type": "address"
        },
        {
          "indexed": true,
          "internalType": "address",
          "name": "newOwner",
          "type": "address"
        }
      ],
      "name": "OwnershipTransferred",
      "type": "event"
    },
    {
      "anonymous": false,
      "inputs": [
        {
          "indexed": true,
          "internalType": "address",
          "name": "user",
          "type": "address"
        },
        {
          "indexed": false,
          "internalType": "uint256",
          "name": "amount",
          "type": "uint256"
        },
        {
          "indexed": false,
          "internalType": "uint256",
          "name": "epoch",
          "type": "uint256"
        }
      ],
      "name": "Stake",
      "type": "event"
    },
    {
      "anonymous": false,
      "inputs": [
        {
          "indexed": true,
          "internalType": "address",
          "name": "user",
          "type": "address"
        },
        {
          "indexed": false,
          "internalType": "uint256",
          "name": "amount",
          "type": "uint256"
        },
        {
          "indexed": false,
          "internalType": "uint256",
          "name": "epoch",
          "type": "uint256"
        }
      ],
      "name": "Unstake",
      "type": "event"
    },
    {
      "anonymous": false,
      "inputs": [
        {
          "indexed": true,
          "internalType": "address",
          "name": "user",
          "type": "address"
        },
        {
          "indexed": false,
          "internalType": "uint256",
          "name": "amount",
          "type": "uint256"
        },
        {
          "indexed": false,
          "internalType": "uint256",
          "name": "epoch",
          "type": "uint256"
        }
      ],
      "name": "Withdraw",
      "type": "event"
    },
    {
      "inputs": [],
      "name": "DepositUserNum",
      "outputs": [
        {
          "internalType": "uint256",
          "name": "",
          "type": "uint256"
        }
      ],
      "stateMutability": "view",
      "type": "function"
    },
    {
      "inputs": [
        {
          "internalType": "address",
          "name": "",
          "type": "address"
        }
      ],
      "name": "blackLists",
      "outputs": [
        {
          "internalType": "bool",
          "name": "",
          "type": "bool"
        }
      ],
      "stateMutability": "view",
      "type": "function"
    },
    {
      "inputs": [
        {
          "internalType": "uint256",
          "name": "amount",
          "type": "uint256"
        }
      ],
      "name": "calcInterestPerSecond",
      "outputs": [
        {
          "internalType": "uint256",
          "name": "",
          "type": "uint256"
        }
      ],
      "stateMutability": "pure",
      "type": "function"
    },
    {
      "inputs": [
        {
          "internalType": "address",
          "name": "user",
          "type": "address"
        },
        {
          "internalType": "uint256",
          "name": "bottom",
          "type": "uint256"
        }
      ],
      "name": "checkLeaderRankIn",
      "outputs": [
        {
          "internalType": "bool",
          "name": "",
          "type": "bool"
        }
      ],
      "stateMutability": "view",
      "type": "function"
    },
    {
      "inputs": [
        {
          "internalType": "address",
          "name": "user",
          "type": "address"
        }
      ],
      "name": "claimInterest",
      "outputs": [],
      "stateMutability": "nonpayable",
      "type": "function"
    },
    {
      "inputs": [
        {
          "internalType": "address",
          "name": "user",
          "type": "address"
        }
      ],
      "name": "claimReward",
      "outputs": [],
      "stateMutability": "nonpayable",
      "type": "function"
    },
    {
      "inputs": [],
      "name": "deposit",
      "outputs": [],
      "stateMutability": "payable",
      "type": "function"
    },
    {
      "inputs": [],
      "name": "depositPotMoney",
      "outputs": [],
      "stateMutability": "payable",
      "type": "function"
    },
    {
      "inputs": [
        {
          "internalType": "address",
          "name": "",
          "type": "address"
        }
      ],
      "name": "deposited",
      "outputs": [
        {
          "internalType": "uint256",
          "name": "balance",
          "type": "uint256"
        },
        {
          "internalType": "uint256",
          "name": "claimedAt",
          "type": "uint256"
        }
      ],
      "stateMutability": "view",
      "type": "function"
    },
    {
      "inputs": [
        {
          "internalType": "address",
          "name": "user",
          "type": "address"
        }
      ],
      "name": "getUserBalance",
      "outputs": [
        {
          "internalType": "uint256",
          "name": "depositBalance",
          "type": "uint256"
        },
        {
          "internalType": "uint256",
          "name": "stakeBalance",
          "type": "uint256"
        }
      ],
      "stateMutability": "view",
      "type": "function"
    },
    {
      "inputs": [],
      "name": "indexCountForNftMint",
      "outputs": [
        {
          "internalType": "uint256",
          "name": "",
          "type": "uint256"
        }
      ],
      "stateMutability": "view",
      "type": "function"
    },
    {
      "inputs": [
        {
          "internalType": "uint256",
          "name": "secs",
          "type": "uint256"
        }
      ],
      "name": "invokeSidecar",
      "outputs": [],
      "stateMutability": "nonpayable",
      "type": "function"
    },
    {
      "inputs": [],
      "name": "isNotPaused",
      "outputs": [
        {
          "internalType": "bool",
          "name": "",
          "type": "bool"
        }
      ],
      "stateMutability": "view",
      "type": "function"
    },
    {
      "inputs": [],
      "name": "leadersCount",
      "outputs": [
        {
          "internalType": "uint256",
          "name": "",
          "type": "uint256"
        }
      ],
      "stateMutability": "view",
      "type": "function"
    },
    {
      "inputs": [
        {
          "internalType": "address",
          "name": "",
          "type": "address"
        }
      ],
      "name": "nftHolders",
      "outputs": [
        {
          "internalType": "bool",
          "name": "",
          "type": "bool"
        }
      ],
      "stateMutability": "view",
      "type": "function"
    },
    {
      "inputs": [
        {
          "internalType": "uint256",
          "name": "",
          "type": "uint256"
        }
      ],
      "name": "nftTokenURIBundle",
      "outputs": [
        {
          "internalType": "string",
          "name": "",
          "type": "string"
        }
      ],
      "stateMutability": "view",
      "type": "function"
    },
    {
      "inputs": [],
      "name": "owner",
      "outputs": [
        {
          "internalType": "address",
          "name": "",
          "type": "address"
        }
      ],
      "stateMutability": "view",
      "type": "function"
    },
    {
      "inputs": [],
      "name": "pause",
      "outputs": [],
      "stateMutability": "nonpayable",
      "type": "function"
    },
    {
      "inputs": [],
      "name": "potMoney",
      "outputs": [
        {
          "internalType": "uint256",
          "name": "",
          "type": "uint256"
        }
      ],
      "stateMutability": "view",
      "type": "function"
    },
    {
      "inputs": [],
      "name": "renounceOwnership",
      "outputs": [],
      "stateMutability": "nonpayable",
      "type": "function"
    },
    {
      "inputs": [
        {
          "internalType": "address",
          "name": "user",
          "type": "address"
        },
        {
          "internalType": "bool",
          "name": "status",
          "type": "bool"
        }
      ],
      "name": "setBlacklist",
      "outputs": [],
      "stateMutability": "nonpayable",
      "type": "function"
    },
    {
      "inputs": [
        {
          "internalType": "uint256",
          "name": "topN",
          "type": "uint256"
        }
      ],
      "name": "showLeaders",
      "outputs": [
        {
          "internalType": "address[]",
          "name": "users_",
          "type": "address[]"
        },
        {
          "internalType": "uint256[]",
          "name": "amounts_",
          "type": "uint256[]"
        }
      ],
      "stateMutability": "view",
      "type": "function"
    },
    {
      "inputs": [],
      "name": "sortDescending",
      "outputs": [
        {
          "internalType": "uint256[]",
          "name": "depositedBalancesArr",
          "type": "uint256[]"
        },
        {
          "internalType": "address[]",
          "name": "depositedUsersArr",
          "type": "address[]"
        }
      ],
      "stateMutability": "view",
      "type": "function"
    },
    {
      "inputs": [
        {
          "internalType": "uint256",
          "name": "amount",
          "type": "uint256"
        }
      ],
      "name": "stake",
      "outputs": [],
      "stateMutability": "nonpayable",
      "type": "function"
    },
    {
      "inputs": [
        {
          "internalType": "address",
          "name": "",
          "type": "address"
        }
      ],
      "name": "staked",
      "outputs": [
        {
          "internalType": "uint256",
          "name": "balance",
          "type": "uint256"
        },
        {
          "internalType": "uint256",
          "name": "claimedAt",
          "type": "uint256"
        }
      ],
      "stateMutability": "view",
      "type": "function"
    },
    {
      "inputs": [
        {
          "internalType": "address",
          "name": "newOwner",
          "type": "address"
        }
      ],
      "name": "transferOwnership",
      "outputs": [],
      "stateMutability": "nonpayable",
      "type": "function"
    },
    {
      "inputs": [
        {
          "internalType": "uint256",
          "name": "amount",
          "type": "uint256"
        }
      ],
      "name": "unstake",
      "outputs": [],
      "stateMutability": "nonpayable",
      "type": "function"
    },
    {
      "inputs": [],
      "name": "untilSidecar",
      "outputs": [
        {
          "internalType": "uint256",
          "name": "",
          "type": "uint256"
        }
      ],
      "stateMutability": "view",
      "type": "function"
    },
    {
      "inputs": [
        {
          "internalType": "uint256",
          "name": "amount",
          "type": "uint256"
        }
      ],
      "name": "withdraw",
      "outputs": [],
      "stateMutability": "nonpayable",
      "type": "function"
    },
    {
      "inputs": [
        {
          "internalType": "uint256",
          "name": "amount",
          "type": "uint256"
        }
      ],
      "name": "withdrawPotMoney",
      "outputs": [],
      "stateMutability": "nonpayable",
      "type": "function"
    }
  ],
  "bytecode": "0x60806040526040518060600160405280604051806060016040528060238152602001620035a7602391398152602001604051806060016040528060238152602001620035ed602391398152602001604051806060016040528060238152602001620035ca60239139815250600e9060036200007c9291906200022b565b506000600f553480156200008f57600080fd5b5060405162003610380380620036108339818101604052810190620000b5919062000382565b620000d5620000c96200015f60201b60201c565b6200016760201b60201c565b81600160006101000a81548173ffffffffffffffffffffffffffffffffffffffff021916908373ffffffffffffffffffffffffffffffffffffffff16021790555080600260006101000a81548173ffffffffffffffffffffffffffffffffffffffff021916908373ffffffffffffffffffffffffffffffffffffffff16021790555050506200072a565b600033905090565b60008060009054906101000a900473ffffffffffffffffffffffffffffffffffffffff169050816000806101000a81548173ffffffffffffffffffffffffffffffffffffffff021916908373ffffffffffffffffffffffffffffffffffffffff1602179055508173ffffffffffffffffffffffffffffffffffffffff168173ffffffffffffffffffffffffffffffffffffffff167f8be0079c531659141344cd1fd0a4f28419497f9722a3daafe3b4186f6b6457e060405160405180910390a35050565b82805482825590600052602060002090810192821562000278579160200282015b828111156200027757825182908162000266919062000643565b50916020019190600101906200024c565b5b5090506200028791906200028b565b5090565b5b80821115620002af5760008181620002a59190620002b3565b506001016200028c565b5090565b508054620002c19062000432565b6000825580601f10620002d55750620002f6565b601f016020900490600052602060002090810190620002f59190620002f9565b5b50565b5b8082111562000314576000816000905550600101620002fa565b5090565b600080fd5b600073ffffffffffffffffffffffffffffffffffffffff82169050919050565b60006200034a826200031d565b9050919050565b6200035c816200033d565b81146200036857600080fd5b50565b6000815190506200037c8162000351565b92915050565b600080604083850312156200039c576200039b62000318565b5b6000620003ac858286016200036b565b9250506020620003bf858286016200036b565b9150509250929050565b600081519050919050565b7f4e487b7100000000000000000000000000000000000000000000000000000000600052604160045260246000fd5b7f4e487b7100000000000000000000000000000000000000000000000000000000600052602260045260246000fd5b600060028204905060018216806200044b57607f821691505b60208210810362000461576200046062000403565b5b50919050565b60008190508160005260206000209050919050565b60006020601f8301049050919050565b600082821b905092915050565b600060088302620004cb7fffffffffffffffffffffffffffffffffffffffffffffffffffffffffffffffff826200048c565b620004d786836200048c565b95508019841693508086168417925050509392505050565b6000819050919050565b6000819050919050565b6000620005246200051e6200051884620004ef565b620004f9565b620004ef565b9050919050565b6000819050919050565b620005408362000503565b620005586200054f826200052b565b84845462000499565b825550505050565b600090565b6200056f62000560565b6200057c81848462000535565b505050565b5b81811015620005a4576200059860008262000565565b60018101905062000582565b5050565b601f821115620005f357620005bd8162000467565b620005c8846200047c565b81016020851015620005d8578190505b620005f0620005e7856200047c565b83018262000581565b50505b505050565b600082821c905092915050565b60006200061860001984600802620005f8565b1980831691505092915050565b600062000633838362000605565b9150826002028217905092915050565b6200064e82620003c9565b67ffffffffffffffff8111156200066a5762000669620003d4565b5b62000676825462000432565b62000683828285620005a8565b600060209050601f831160018114620006bb5760008415620006a6578287015190505b620006b2858262000625565b86555062000722565b601f198416620006cb8662000467565b60005b82811015620006f557848901518255600182019150602085019450602081019050620006ce565b8683101562000715578489015162000711601f89168262000605565b8355505b6001600288020188555050505b505050505050565b612e6d806200073a6000396000f3fe6080604052600436106101cd5760003560e01c80638da5cb5b116100f7578063cb13cddb11610095578063daa3ea7511610064578063daa3ea751461065a578063e392af3f14610664578063f2fde38b146106a1578063fb8e7835146106ca576101cd565b8063cb13cddb146105be578063d0e30db0146105fc578063d279c19114610606578063d76a05331461062f576101cd565b806398807d84116100d157806398807d84146104ee578063a04c82fb1461052c578063a694fc3a14610557578063b8f59c8014610580576101cd565b80638da5cb5b1461046f57806392586c341461049a578063930efb71146104c3576101cd565b80636c916e431161016f5780637df124a11161013e5780637df124a1146103c75780638456cb591461040457806388d742c21461041b5780638a62f1ca14610444576101cd565b80636c916e431461031c5780636ee5a06114610348578063715018a6146103855780637acf48921461039c576101cd565b80632e1a7d4d116101ab5780632e1a7d4d1461024f578063477348921461027857806356144ab5146102b65780636227c207146102df576101cd565b806312ce31ef146101d2578063153b0d1e146101fd5780632e17de7814610226575b600080fd5b3480156101de57600080fd5b506101e7610707565b6040516101f49190612020565b60405180910390f35b34801561020957600080fd5b50610224600480360381019061021f91906120d6565b61070d565b005b34801561023257600080fd5b5061024d60048036038101906102489190612142565b610770565b005b34801561025b57600080fd5b5061027660048036038101906102719190612142565b61091e565b005b34801561028457600080fd5b5061029f600480360381019061029a919061216f565b610add565b6040516102ad92919061219c565b60405180910390f35b3480156102c257600080fd5b506102dd60048036038101906102d89190612142565b610b6f565b005b3480156102eb57600080fd5b5061030660048036038101906103019190612142565b610bd6565b6040516103139190612255565b60405180910390f35b34801561032857600080fd5b50610331610c82565b60405161033f9291906123f3565b60405180910390f35b34801561035457600080fd5b5061036f600480360381019061036a919061242a565b610fff565b60405161037c9190612479565b60405180910390f35b34801561039157600080fd5b5061039a611097565b005b3480156103a857600080fd5b506103b16110ab565b6040516103be9190612479565b60405180910390f35b3480156103d357600080fd5b506103ee60048036038101906103e9919061216f565b611109565b6040516103fb9190612479565b60405180910390f35b34801561041057600080fd5b50610419611129565b005b34801561042757600080fd5b50610442600480360381019061043d919061216f565b61115d565b005b34801561045057600080fd5b5061045961128c565b6040516104669190612020565b60405180910390f35b34801561047b57600080fd5b50610484611299565b60405161049191906124a3565b60405180910390f35b3480156104a657600080fd5b506104c160048036038101906104bc9190612142565b6112c2565b005b3480156104cf57600080fd5b506104d86112da565b6040516104e59190612020565b60405180910390f35b3480156104fa57600080fd5b506105156004803603810190610510919061216f565b6112e0565b60405161052392919061219c565b60405180910390f35b34801561053857600080fd5b50610541611304565b60405161054e9190612020565b60405180910390f35b34801561056357600080fd5b5061057e60048036038101906105799190612142565b61130a565b005b34801561058c57600080fd5b506105a760048036038101906105a29190612142565b6114b7565b6040516105b59291906124be565b60405180910390f35b3480156105ca57600080fd5b506105e560048036038101906105e0919061216f565b61168f565b6040516105f392919061219c565b60405180910390f35b6106046116b3565b005b34801561061257600080fd5b5061062d6004803603810190610628919061216f565b611aad565b005b34801561063b57600080fd5b50610644611c7a565b6040516106519190612020565b60405180910390f35b610662611c80565b005b34801561067057600080fd5b5061068b6004803603810190610686919061216f565b611c9b565b6040516106989190612479565b60405180910390f35b3480156106ad57600080fd5b506106c860048036038101906106c3919061216f565b611cbb565b005b3480156106d657600080fd5b506106f160048036038101906106ec9190612142565b611d3e565b6040516106fe9190612020565b60405180910390f35b600f5481565b610715611e07565b80600a60008473ffffffffffffffffffffffffffffffffffffffff1673ffffffffffffffffffffffffffffffffffffffff16815260200190815260200160002060006101000a81548160ff0219169083151502179055505050565b6107786110ab565b1561091b574262015180600760003373ffffffffffffffffffffffffffffffffffffffff1673ffffffffffffffffffffffffffffffffffffffff168152602001908152602001600020600101546107cf9190612524565b1061080f576040517f08c379a0000000000000000000000000000000000000000000000000000000008152600401610806906125ca565b60405180910390fd5b61081833611aad565b80600460003373ffffffffffffffffffffffffffffffffffffffff1673ffffffffffffffffffffffffffffffffffffffff168152602001908152602001600020600001600082825461086a9190612524565b9250508190555080600760003373ffffffffffffffffffffffffffffffffffffffff1673ffffffffffffffffffffffffffffffffffffffff16815260200190815260200160002060000160008282546108c391906125ea565b925050819055503373ffffffffffffffffffffffffffffffffffffffff167ff960dbf9e5d0682f7a298ed974e33a28b4464914b7a2bfac12ae419a9afeb280824260405161091292919061219c565b60405180910390a25b50565b6109266110ab565b8015610982575060001515600a60003373ffffffffffffffffffffffffffffffffffffffff1673ffffffffffffffffffffffffffffffffffffffff16815260200190815260200160002060009054906101000a900460ff161515145b801561098f5750600d5442115b15610ada5761099d3361115d565b80600460003373ffffffffffffffffffffffffffffffffffffffff1673ffffffffffffffffffffffffffffffffffffffff16815260200190815260200160002060000160008282546109ef91906125ea565b925050819055503373ffffffffffffffffffffffffffffffffffffffff167ff279e6a1f5e320cca91135676d9cb6e44ca8a08c0b88342bcdb1144f6511b5688242604051610a3e92919061219c565b60405180910390a26000600460003373ffffffffffffffffffffffffffffffffffffffff1673ffffffffffffffffffffffffffffffffffffffff1681526020019081526020016000206000015403610ad9576000600460003373ffffffffffffffffffffffffffffffffffffffff1673ffffffffffffffffffffffffffffffffffffffff168152602001908152602001600020600101819055505b5b50565b600080600460008473ffffffffffffffffffffffffffffffffffffffff1673ffffffffffffffffffffffffffffffffffffffff168152602001908152602001600020600001549150600760008473ffffffffffffffffffffffffffffffffffffffff1673ffffffffffffffffffffffffffffffffffffffff168152602001908152602001600020600001549050915091565b610b77611e07565b6000612a309050808210610bc0576040517f08c379a0000000000000000000000000000000000000000000000000000000008152600401610bb790612690565b60405180910390fd5b8142610bcc9190612524565b600d819055505050565b600e8181548110610be657600080fd5b906000526020600020016000915090508054610c01906126df565b80601f0160208091040260200160405190810160405280929190818152602001828054610c2d906126df565b8015610c7a5780601f10610c4f57610100808354040283529160200191610c7a565b820191906000526020600020905b815481529060010190602001808311610c5d57829003601f168201915b505050505081565b6060806005805480602002602001604051908101604052809291908181526020018280548015610d0757602002820191906000526020600020905b8160009054906101000a900473ffffffffffffffffffffffffffffffffffffffff1673ffffffffffffffffffffffffffffffffffffffff1681526020019060010190808311610cbd575b50505050509050805167ffffffffffffffff811115610d2957610d28612710565b5b604051908082528060200260200182016040528015610d575781602001602082028036833780820191505090505b50915060005b8151811015610dfb576000828281518110610d7b57610d7a61273f565b5b60200260200101519050600460008273ffffffffffffffffffffffffffffffffffffffff1673ffffffffffffffffffffffffffffffffffffffff16815260200190815260200160002060000154848381518110610ddb57610dda61273f565b5b602002602001018181525050508080610df39061276e565b915050610d5d565b506000825190506000600190505b81811015610ff9576000848281518110610e2657610e2561273f565b5b602002602001015190506000600183610e3f91906127c0565b90505b60008112158015610e6c575081868281518110610e6257610e6161273f565b5b6020026020010151105b15610fb857858181518110610e8457610e8361273f565b5b602002602001015186600183610e9a9190612803565b81518110610eab57610eaa61273f565b5b602002602001018181525050600085600183610ec79190612803565b81518110610ed857610ed761273f565b5b60200260200101519050858281518110610ef557610ef461273f565b5b602002602001015186600184610f0b9190612803565b81518110610f1c57610f1b61273f565b5b602002602001019073ffffffffffffffffffffffffffffffffffffffff16908173ffffffffffffffffffffffffffffffffffffffff168152505080868381518110610f6a57610f6961273f565b5b602002602001019073ffffffffffffffffffffffffffffffffffffffff16908173ffffffffffffffffffffffffffffffffffffffff16815250508180610faf90612847565b92505050610e42565b8186600183610fc79190612803565b81518110610fd857610fd761273f565b5b60200260200101818152505050508080610ff19061276e565b915050610e09565b50509091565b600060608061100c610c82565b80925081935050508160018561102291906125ea565b815181106110335761103261273f565b5b6020026020010151600460008773ffffffffffffffffffffffffffffffffffffffff1673ffffffffffffffffffffffffffffffffffffffff168152602001908152602001600020600001541061108e57600192505050611091565b50505b92915050565b61109f611e07565b6110a96000611e85565b565b6000801515600260149054906101000a900460ff16151514611102576040517f08c379a00000000000000000000000000000000000000000000000000000000081526004016110f9906128db565b60405180910390fd5b6001905090565b600b6020528060005260406000206000915054906101000a900460ff1681565b611131611e07565b600260149054906101000a900460ff1615600260146101000a81548160ff021916908315150217905550565b6111656110ab565b80156111725750600d5442115b156112895760006111c4600460008473ffffffffffffffffffffffffffffffffffffffff1673ffffffffffffffffffffffffffffffffffffffff16815260200190815260200160002060000154611d3e565b90506000600460008473ffffffffffffffffffffffffffffffffffffffff1673ffffffffffffffffffffffffffffffffffffffff168152602001908152602001600020600101544261121691906125ea565b8261122191906128fb565b9050600061123184836001611f49565b90508373ffffffffffffffffffffffffffffffffffffffff167f55f6a1dcc1b009ec2c3ee9331f0a3e0c3fcbc553ca0ba1c706192fa8f5b3462883834260405161127d9392919061293d565b60405180910390a25050505b50565b6000600580549050905090565b60008060009054906101000a900473ffffffffffffffffffffffffffffffffffffffff16905090565b6112ca611e07565b6112d633826000611f49565b5050565b600c5481565b60076020528060005260406000206000915090508060000154908060010154905082565b60035481565b6113126110ab565b156114b457662386f26fc10000811015611361576040517f08c379a0000000000000000000000000000000000000000000000000000000008152600401611358906129c0565b60405180910390fd5b61136a33611aad565b42600760003373ffffffffffffffffffffffffffffffffffffffff1673ffffffffffffffffffffffffffffffffffffffff1681526020019081526020016000206001018190555080600460003373ffffffffffffffffffffffffffffffffffffffff1673ffffffffffffffffffffffffffffffffffffffff168152602001908152602001600020600001600082825461140391906125ea565b9250508190555080600760003373ffffffffffffffffffffffffffffffffffffffff1673ffffffffffffffffffffffffffffffffffffffff168152602001908152602001600020600001600082825461145c9190612524565b925050819055503373ffffffffffffffffffffffffffffffffffffffff167f5af417134f72a9d41143ace85b0a26dce6f550f894f2cbc1eeee8810603d91b682426040516114ab92919061219c565b60405180910390a25b50565b6060806114c261128c565b831115611504576040517f08c379a00000000000000000000000000000000000000000000000000000000081526004016114fb90612a2c565b60405180910390fd5b60608061150f610c82565b809350819250505061151f61128c565b850361153057819350809250611688565b8467ffffffffffffffff81111561154a57611549612710565b5b6040519080825280602002602001820160405280156115785781602001602082028036833780820191505090505b5093508467ffffffffffffffff81111561159557611594612710565b5b6040519080825280602002602001820160405280156115c35781602001602082028036833780820191505090505b50925060005b85811015611686578281815181106115e4576115e361273f565b5b60200260200101518582815181106115ff576115fe61273f565b5b602002602001019073ffffffffffffffffffffffffffffffffffffffff16908173ffffffffffffffffffffffffffffffffffffffff168152505081818151811061164c5761164b61273f565b5b60200260200101518482815181106116675761166661273f565b5b602002602001018181525050808061167e9061276e565b9150506115c9565b505b5050915091565b60046020528060005260406000206000915090508060000154908060010154905082565b6116bb6110ab565b80156116c85750600d5442115b15611aab57600660003373ffffffffffffffffffffffffffffffffffffffff1673ffffffffffffffffffffffffffffffffffffffff16815260200190815260200160002060009054906101000a900460ff166117da576001600660003373ffffffffffffffffffffffffffffffffffffffff1673ffffffffffffffffffffffffffffffffffffffff16815260200190815260200160002060006101000a81548160ff0219169083151502179055506005339080600181540180825580915050600190039060005260206000200160009091909190916101000a81548173ffffffffffffffffffffffffffffffffffffffff021916908373ffffffffffffffffffffffffffffffffffffffff1602179055505b6117e33361115d565b34600460003373ffffffffffffffffffffffffffffffffffffffff1673ffffffffffffffffffffffffffffffffffffffff16815260200190815260200160002060000160008282546118359190612524565b9250508190555042600460003373ffffffffffffffffffffffffffffffffffffffff1673ffffffffffffffffffffffffffffffffffffffff168152602001908152602001600020600101819055503373ffffffffffffffffffffffffffffffffffffffff167f90890809c654f11d6e72a28fa60149770a0d11ec6c92319d6ceb2bb0a4ea1a1534426040516118cb92919061219c565b60405180910390a2600a60058054905010611aaa5760606118ea610c82565b9050809150506000816000815181106119065761190561273f565b5b60200260200101519050600b60008273ffffffffffffffffffffffffffffffffffffffff1673ffffffffffffffffffffffffffffffffffffffff16815260200190815260200160002060009054906101000a900460ff16611aa757600260009054906101000a900473ffffffffffffffffffffffffffffffffffffffff1673ffffffffffffffffffffffffffffffffffffffff1663d0def52133600e600f54815481106119b6576119b561273f565b5b906000526020600020016040518363ffffffff1660e01b81526004016119dd929190612ae5565b6020604051808303816000875af11580156119fc573d6000803e3d6000fd5b505050506040513d601f19601f82011682018060405250810190611a209190612b2a565b506001600b60008373ffffffffffffffffffffffffffffffffffffffff1673ffffffffffffffffffffffffffffffffffffffff16815260200190815260200160002060006101000a81548160ff021916908315150217905550600f6000815480929190611a8c9061276e565b91905055506003600f54611aa09190612b86565b600f819055505b50505b5b565b6000600760008373ffffffffffffffffffffffffffffffffffffffff1673ffffffffffffffffffffffffffffffffffffffff168152602001908152602001600020600001549050600064e8d4a51000826002611b0991906128fb565b611b139190612bb7565b905060006301e1338082611b279190612bb7565b90506000600760008673ffffffffffffffffffffffffffffffffffffffff1673ffffffffffffffffffffffffffffffffffffffff1681526020019081526020016000206001015442611b7991906125ea565b82611b8491906128fb565b9050611b8e6110ab565b15611c7357600160009054906101000a900473ffffffffffffffffffffffffffffffffffffffff1673ffffffffffffffffffffffffffffffffffffffff166340c10f1986836040518363ffffffff1660e01b8152600401611bf0929190612be8565b600060405180830381600087803b158015611c0a57600080fd5b505af1158015611c1e573d6000803e3d6000fd5b505050508473ffffffffffffffffffffffffffffffffffffffff167fe74e5c9d4ac1fc33412485f18c159a0a391efe287ab3fd271123f30e6bacf4e38242604051611c6a92919061219c565b60405180910390a25b5050505050565b600d5481565b3460036000828254611c929190612524565b92505081905550565b600a6020528060005260406000206000915054906101000a900460ff1681565b611cc3611e07565b600073ffffffffffffffffffffffffffffffffffffffff168173ffffffffffffffffffffffffffffffffffffffff1603611d32576040517f08c379a0000000000000000000000000000000000000000000000000000000008152600401611d2990612c83565b60405180910390fd5b611d3b81611e85565b50565b60008068056bc75e2d63100000831015611dc857600068056bc75e2d631000007fffffffffffffffffffffffffffffffffffffffffffffffffffffffffffffffce611d899190612ca3565b9050600060648583611d9b9190612d0d565b611da59190612803565b905060648186611db591906128fb565b611dbf9190612bb7565b92505050611de9565b68056bc75e2d631000008310611de857600283611de59190612bb7565b90505b5b60006301e1338082611dfb9190612bb7565b90508092505050919050565b611e0f611fff565b73ffffffffffffffffffffffffffffffffffffffff16611e2d611299565b73ffffffffffffffffffffffffffffffffffffffff1614611e83576040517f08c379a0000000000000000000000000000000000000000000000000000000008152600401611e7a90612dd1565b60405180910390fd5b565b60008060009054906101000a900473ffffffffffffffffffffffffffffffffffffffff169050816000806101000a81548173ffffffffffffffffffffffffffffffffffffffff021916908373ffffffffffffffffffffffffffffffffffffffff1602179055508173ffffffffffffffffffffffffffffffffffffffff168173ffffffffffffffffffffffffffffffffffffffff167f8be0079c531659141344cd1fd0a4f28419497f9722a3daafe3b4186f6b6457e060405160405180910390a35050565b60008115611f7b57826003541015611f615760035492505b8260036000828254611f7391906125ea565b925050819055505b60008473ffffffffffffffffffffffffffffffffffffffff1684604051611fa190612e22565b60006040518083038185875af1925050503d8060008114611fde576040519150601f19603f3d011682016040523d82523d6000602084013e611fe3565b606091505b505090508015611ff65783915050611ff8565b505b9392505050565b600033905090565b6000819050919050565b61201a81612007565b82525050565b60006020820190506120356000830184612011565b92915050565b600080fd5b600073ffffffffffffffffffffffffffffffffffffffff82169050919050565b600061206b82612040565b9050919050565b61207b81612060565b811461208657600080fd5b50565b60008135905061209881612072565b92915050565b60008115159050919050565b6120b38161209e565b81146120be57600080fd5b50565b6000813590506120d0816120aa565b92915050565b600080604083850312156120ed576120ec61203b565b5b60006120fb85828601612089565b925050602061210c858286016120c1565b9150509250929050565b61211f81612007565b811461212a57600080fd5b50565b60008135905061213c81612116565b92915050565b6000602082840312156121585761215761203b565b5b60006121668482850161212d565b91505092915050565b6000602082840312156121855761218461203b565b5b600061219384828501612089565b91505092915050565b60006040820190506121b16000830185612011565b6121be6020830184612011565b9392505050565b600081519050919050565b600082825260208201905092915050565b60005b838110156121ff5780820151818401526020810190506121e4565b60008484015250505050565b6000601f19601f8301169050919050565b6000612227826121c5565b61223181856121d0565b93506122418185602086016121e1565b61224a8161220b565b840191505092915050565b6000602082019050818103600083015261226f818461221c565b905092915050565b600081519050919050565b600082825260208201905092915050565b6000819050602082019050919050565b6122ac81612007565b82525050565b60006122be83836122a3565b60208301905092915050565b6000602082019050919050565b60006122e282612277565b6122ec8185612282565b93506122f783612293565b8060005b8381101561232857815161230f88826122b2565b975061231a836122ca565b9250506001810190506122fb565b5085935050505092915050565b600081519050919050565b600082825260208201905092915050565b6000819050602082019050919050565b61236a81612060565b82525050565b600061237c8383612361565b60208301905092915050565b6000602082019050919050565b60006123a082612335565b6123aa8185612340565b93506123b583612351565b8060005b838110156123e65781516123cd8882612370565b97506123d883612388565b9250506001810190506123b9565b5085935050505092915050565b6000604082019050818103600083015261240d81856122d7565b905081810360208301526124218184612395565b90509392505050565b600080604083850312156124415761244061203b565b5b600061244f85828601612089565b92505060206124608582860161212d565b9150509250929050565b6124738161209e565b82525050565b600060208201905061248e600083018461246a565b92915050565b61249d81612060565b82525050565b60006020820190506124b86000830184612494565b92915050565b600060408201905081810360008301526124d88185612395565b905081810360208301526124ec81846122d7565b90509392505050565b7f4e487b7100000000000000000000000000000000000000000000000000000000600052601160045260246000fd5b600061252f82612007565b915061253a83612007565b9250828201905080821115612552576125516124f5565b5b92915050565b7f796f752063616e277420756e7374616b652077697468696e203164617920616660008201527f74657220796f75206561726e2061207265776172640000000000000000000000602082015250565b60006125b46035836121d0565b91506125bf82612558565b604082019050919050565b600060208201905081810360008301526125e3816125a7565b9050919050565b60006125f582612007565b915061260083612007565b9250828203905081811115612618576126176124f5565b5b92915050565b7f796f75206e65656420746f2073657420736563732077697468696e2033686f7560008201527f7273000000000000000000000000000000000000000000000000000000000000602082015250565b600061267a6022836121d0565b91506126858261261e565b604082019050919050565b600060208201905081810360008301526126a98161266d565b9050919050565b7f4e487b7100000000000000000000000000000000000000000000000000000000600052602260045260246000fd5b600060028204905060018216806126f757607f821691505b60208210810361270a576127096126b0565b5b50919050565b7f4e487b7100000000000000000000000000000000000000000000000000000000600052604160045260246000fd5b7f4e487b7100000000000000000000000000000000000000000000000000000000600052603260045260246000fd5b600061277982612007565b91507fffffffffffffffffffffffffffffffffffffffffffffffffffffffffffffffff82036127ab576127aa6124f5565b5b600182019050919050565b6000819050919050565b60006127cb826127b6565b91506127d6836127b6565b92508282039050818112600084121682821360008512151617156127fd576127fc6124f5565b5b92915050565b600061280e826127b6565b9150612819836127b6565b925082820190508281121560008312168382126000841215161715612841576128406124f5565b5b92915050565b6000612852826127b6565b91507f80000000000000000000000000000000000000000000000000000000000000008203612884576128836124f5565b5b600182039050919050565b7f6974277320706175736564000000000000000000000000000000000000000000600082015250565b60006128c5600b836121d0565b91506128d08261288f565b602082019050919050565b600060208201905081810360008301526128f4816128b8565b9050919050565b600061290682612007565b915061291183612007565b925082820261291f81612007565b91508282048414831517612936576129356124f5565b5b5092915050565b60006060820190506129526000830186612011565b61295f6020830185612011565b61296c6040830184612011565b949350505050565b7f696e73756666696369656e7420616d6f756e7400000000000000000000000000600082015250565b60006129aa6013836121d0565b91506129b582612974565b602082019050919050565b600060208201905081810360008301526129d98161299d565b9050919050565b7f6f7574206f662072616e67650000000000000000000000000000000000000000600082015250565b6000612a16600c836121d0565b9150612a21826129e0565b602082019050919050565b60006020820190508181036000830152612a4581612a09565b9050919050565b60008190508160005260206000209050919050565b60008154612a6e816126df565b612a7881866121d0565b94506001821660008114612a935760018114612aa957612adc565b60ff198316865281151560200286019350612adc565b612ab285612a4c565b60005b83811015612ad457815481890152600182019150602081019050612ab5565b808801955050505b50505092915050565b6000604082019050612afa6000830185612494565b8181036020830152612b0c8184612a61565b90509392505050565b600081519050612b2481612116565b92915050565b600060208284031215612b4057612b3f61203b565b5b6000612b4e84828501612b15565b91505092915050565b7f4e487b7100000000000000000000000000000000000000000000000000000000600052601260045260246000fd5b6000612b9182612007565b9150612b9c83612007565b925082612bac57612bab612b57565b5b828206905092915050565b6000612bc282612007565b9150612bcd83612007565b925082612bdd57612bdc612b57565b5b828204905092915050565b6000604082019050612bfd6000830185612494565b612c0a6020830184612011565b9392505050565b7f4f776e61626c653a206e6577206f776e657220697320746865207a65726f206160008201527f6464726573730000000000000000000000000000000000000000000000000000602082015250565b6000612c6d6026836121d0565b9150612c7882612c11565b604082019050919050565b60006020820190508181036000830152612c9c81612c60565b9050919050565b6000612cae826127b6565b9150612cb9836127b6565b925082612cc957612cc8612b57565b5b600160000383147f800000000000000000000000000000000000000000000000000000000000000083141615612d0257612d016124f5565b5b828205905092915050565b6000612d18826127b6565b9150612d23836127b6565b9250828202612d31816127b6565b91507f80000000000000000000000000000000000000000000000000000000000000008414600084121615612d6957612d686124f5565b5b8282058414831517612d7e57612d7d6124f5565b5b5092915050565b7f4f776e61626c653a2063616c6c6572206973206e6f7420746865206f776e6572600082015250565b6000612dbb6020836121d0565b9150612dc682612d85565b602082019050919050565b60006020820190508181036000830152612dea81612dae565b9050919050565b600081905092915050565b50565b6000612e0c600083612df1565b9150612e1782612dfc565b600082019050919050565b6000612e2d82612dff565b915081905091905056fea26469706673582212202f27a202ea0f06bdbfc61df4730d58fb5a0afcfc814b1b3bf22c19aecf64041b64736f6c63430008110033697066733a2f2f7368613235366861736856616c75652f73616d706c65312e6a736f6e697066733a2f2f7368613235366861736856616c75652f73616d706c65332e6a736f6e697066733a2f2f7368613235366861736856616c75652f73616d706c65322e6a736f6e",
  "linkReferences": {},
  "deployedLinkReferences": {}
}